:100000000C94A1020C94E8020C94E8020C94E8020F
:100010000C94E8020C94E8020C94E8020C94E802B8
:100020000C94E8020C94E8020C94A10A0C94730B53
:100030000C940E1A0C94E8020C94E8020C94E8025A
:100040000C94E8020C945C230C94E8020C94E802F3
:100050000C94E8020C94A91A0C94E8020C94E8029F
:100060000C94E8020C94E8020C94E8020C94E80268
:100070000C94E8020C94E8020C94E8020C94E80258
:100080000C94E8020C94E8020C94E8020C94E80248
:100090000C94E8020C94E8020C94E8020C94E80238
:1000A0000C94E8020C94E8020C94E80202030603A4
:1000B0000A030E031203160318031D032206F50597
:1000C000F705F905FB05FD05FF0501060306050615
:1000D000070609060B060D060F061106DB0BFE0BC5
:1000E000B90CFE0BB90C430C660CB90C880C9B0CBC
:1000F000CB0FCB0FF80FF80F53108D10F612F6122E
:10010000A510F612A211A2115D127312F612E212DC
:10011000016202620162026200F1A700D100D20016
:10012000D0000002F007F007F104F003F005F1053C
:10013000F205F305F005F405F505F606F005F705FB
:10014000F805F906F105FA05FB05FC06F205FD05C3
:10015000FE05FF06F308F0DE1E1F202122232425C2
:1001600026272D2E2A535455562B141A0815171CC2
:10017000180C12132F30315F6061573904160709CC
:100180000A0B0D0E0F333435285C5D5E57E1641D9C
:100190001B0619051110363738E5C0595A5B58E06F
:1001A000E3E200000000E4002CE6C0E7E4626263E2
:1001B00058003A3B3C3D3E3F404142430000000076
:1001C0000000000101010101010101010101010122
:1001D000010101010101010101010101010101010F
:1001E00001010101010101010101010101010101FF
:1001F00001010101010101010101010101010101EF
:10020000010101010101520101010101010100008F
:100210000000010001010150514F010101000101E5
:1002200001010101010101010000000000000001C5
:10023000010101010101010101010101014A010165
:100240000101010101010101010101010101014B54
:10025000010101010101010101010101010101018E
:10026000014E010101010101010101010101010131
:100270000101014D01010101010100000000010027
:10028000010101010101010101000101010101015F
:10029000010101010000000000000029010101012D
:1002A000010101010101010101350101010101010A
:1002B00001010101010101010101014B01010101E4
:1002C000010101010101010101010101014E0101D1
:1002D000010101010101010101010101010101C04F
:1002E0000101010101010000000001000101010103
:1002F00001010101010001010101010101010101EF
:1003000000000000000000010101010101010101E4
:1003100001010101010101010101010101010101CD
:1003200001010101010101010101010101010101BD
:1003300001010101010101010101010101010101AD
:10034000010101010101010101010101010101E0BE
:10035000E2E30000000001000101010101010101CF
:100360000100010101010101010101010000000082
:100370000000000101010101010101010101010170
:10038000010101010101010101010101010101015D
:10039000010101010101010101010101010101014D
:1003A000010101010101010101010101010101013D
:1003B000010101010101010101010101010100002F
:1003C0000000E40001E6E701010101010100010173
:1003D0000101010101010101000000000000000114
:1003E00001010101010101010101010101010101FD
:1003F00001010101010101010101010101010101ED
:1004000001010101010101010101010101010101DC
:1004100001010101010101010101010101010101CC
:100420000101010101010101010100000000E700DB
:1004300001E6E6C0E4010101010001010101010141
:100440000101010100000000000000353A3B3C3D85
:100450003E3F4041424344454C53CBCCCD01015239
:10046000C5C6C7B401490146474801CECFD0D10126
:1004700050514FC8C9010101014A4B0101D2D3D4E7
:10048000D501010165C1C2C3AAA9A84D4E01010150
:10049000D7D8D9010101000000000100C401010109
:1004A00001DADBDCDD00CACEDACFD7D0DCCDD1D9A2
:1004B00000000000000000001080FF012300230066
:1004C0002000000000000000000000010101020205
:1004D000020303040405050606070808090A0B0BB6
:1004E0000C0D0E0F10111213151617191A1B1D1EC5
:1004F0002022232527292B2D2F313335383A3D3F14
:100500004244474A4D505356595C5F6266696C706D
:1005100074777B7E82868A8E9195999DA1A5A9ADDF
:10052000B0B4B8BCC0C3C7CBCED2D5D8DBDFE2E411
:10053000E7EAECEFF1F3F5F7F8FAFBFCFDFEFFFF5D
:10054000FF0011241FBECFEFDAE0DEBFCDBF04B63F
:1005500003FE27C08091F8039091F903A091FA035C
:10056000B091FB038730904BA740B04BD1F4109271
:10057000F8031092F9031092FA031092FB0314BED1
:1005800084B7877F84BF0FB6F894A89580916000E8
:10059000886180936000109260000FBEE0E0F8E395
:1005A000099512E0A0E0B1E0E2EFF3E502C00590AA
:1005B0000D92AA3FB107D9F723E0AAEFB2E001C03C
:1005C0001D92A83FB207E1F70E946F080C94F7292B
:1005D0000C94000080E693E008958FE190E0089588
:1005E0000F931F93562F642FFC0182818823D1F132
:1005F000052F10E00830110528F5F801EA5AFF4FE1
:100600000C94AC291F910F910C9449061F910F91E6
:100610000C94D6051F910F910C9457061F910F91C2
:100620000C94E0051F910F910C94E30580E001C04C
:1006300081E01F910F910C945E06842F1F910F9102
:100640000C9472065830C1F40E949919827211F00C
:1006500085E301C089E28093FA028091FA020E9448
:100660005A0E06C0583041F48091FA020E942D0FB4
:100670001F910F910C94CD191F910F910895611145
:1006800004C0FC018281811103C080E090E00895E4
:1006900080E191E00895462F672F0C94B127805C8C
:1006A0000E94A527089587E591E0089589E191E0EA
:1006B000089586E0089582E1089580E885BF85BFAA
:1006C0000E94300684B1876084B980B38C7080BB8F
:1006D00081B3836F81BB8AB11AB88BB18FEF8BB9AD
:1006E00084B1877884B985B1886785B9E3E1F3E09F
:1006F000ABEFB2E011921192119211921D921D92E4
:100700001D921D9283E0EB32F807A1F708954F92F6
:100710005F926F927F928F929F92AF92BF92FF9261
:100720000F931F93CF93DF93ABEFB2E0FD0110E087
:1007300001E0C5E0FC2E10FF02C02A9A01C02A98F1
:1007400011FF02C0299A01C0299812FF02C0289AFD
:1007500001C0289880EA8A95F1F78FB182958F7051
:100760008027682F617070E0799903C082E090E083
:1007700002C080E090E0862B972B789903C0C4E0FC
:10078000D0E002C0C0E0D0E08C2B9D2B1B9903C0B1
:1007900048E050E002C040E050E0842B952B48999F
:1007A00003C020E130E002C020E030E0822B932B38
:1007B000499903C0C0E2D0E002C0C0E0D0E08C2B79
:1007C0009D2B4C9903C040E450E002C040E050E053
:1007D000842B952B4D9903C020E830E002C020E027
:1007E00030E0822B932B4E9903C0C0E0D1E002C0D1
:1007F000C0E0D0E08C2B9D2BC9B10C2E000CDD0B82
:10080000C095D0959E012227330F221F3327322F08
:100810002227330FAC01422B532B2FB1022E000C99
:10082000330B20953095C9018827990F881F992788
:10083000982F8827990F990F842B952B7E9903C0A9
:10084000C0E0D8E002C0C0E0D0E04C018C2A9D2A74
:100850004A9903C0C0E0D0E102C0C0E0D0E08C2AD9
:100860009D2A4B9903C040E050E202C040E050E0B6
:10087000842A952A1E9903C020E030E402C020E0BB
:1008800030E0822A932A092C000CAA08BB081D9983
:1008900006C0412C20E8522E612C712C03C0412C43
:1008A000512C320184289528A628B7281C9905C008
:1008B000412C512C3201639403C0412C512C320144
:1008C00084289528A628B7287D9906C0412C512C4C
:1008D00082E0682E712C03C0412C512C32018428F7
:1008E0009528A628B72840805180628073804814DC
:1008F00059046A047B0431F080829182A282B3821F
:10090000F09200012A9A299A289A1F5F349616308D
:1009100009F011CF809100018823D1F0815080939C
:100920000001882339F08FE99FE00197F1F700C0BB
:1009300000000EC0E3E1F3E04D915D916D917D917A
:10094000419351936193719393E0A331B907A1F758
:1009500081E0DF91CF911F910F91FF90BF90AF90F9
:100960009F908F907F906F905F904F90089524E0BC
:10097000829FC0011124FC01ED5EFC4F60817181FA
:100980008281938108950895CF93C82F8730A0F472
:10099000843000F58130D0F10E9480220E94B5227F
:1009A0000E9419230E945423EC2FF0E0E954FB4FDE
:1009B0008491CF910C94CF228730C9F0883031F5E3
:1009C0000E9480220E94B5220E9413230E94542379
:1009D00081E016C00E9480220E94B5220E94192345
:1009E0000E944E2386E08C1BCF910C9459230E94C9
:1009F00080220E94B5220E9413230E94542380E08B
:100A00000E94362383E0CF910C9445230E94192342
:100A10000E9454230E94BB22CF910C949522CF9325
:100A2000DF9300D000D01F92CDB7DEB78091F703DF
:100A300080FF26C0869590E08730910519F00897D1
:100A400081F01EC06623E1F080E40E94482380E22A
:100A50000F900F900F900F900F90DF91CF910C940B
:100A60000423662369F080E40E94482380E20F900B
:100A70000F900F900F900F90DF91CF910C94E9227F
:100A80000F900F900F900F900F90DF91CF910895DE
:100A9000E82FF0E0EE0FFF1FE554FB4F8591949196
:100AA00008953F9A479A6E9A769A279A2F980895B2
:100AB000813031F018F0823029F008954798089578
:100AC000769808952F9A0895813031F018F0823089
:100AD00029F00895479A0895769A08952F980895D1
:100AE0003E984698089546988FE99CE80197F1F75B
:100AF00000C00000469A8FE496E40197F1F700C029
:100B00000000089546988FEB98E00197F1F700C038
:100B10000000469A089598E04698EFEBF8E0319788
:100B2000F1F700C00000469A80FF05C0EFEFF8E142
:100B30003197F1F704C0EFEBF8E03197F1F700C01F
:100B400000008695915041F70895CF93C82F892FC3
:100B50000E948B058C2FCF910C948B058FEE90E02B
:100B60000C94A505CF938F3F91F0C82FF8943E9A2F
:100B70000E9473050E94AE058C2F0E948B058C2F5E
:100B800080950E948B050E9482053E987894CF91B3
:100B9000089587E090E00E94C62980932B03089572
:100BA00060912B0387E090E00C94D42980912B0373
:100BB0008F7780932B0382E00E94B2050C94D005BE
:100BC00080E00C94B20581E00C94B205882319F002
:100BD000813049F135C0862F90E08031910518F5BC
:100BE000FC01E25AFF4F0C94AC2984E0089585E0A3
:100BF000089586E0089588E0089589E008958AE0E0
:100C000008958CE008958DE008958EE0089580E1C8
:100C1000089581E1089582E1089584E1089585E1D0
:100C2000089586E10895613039F070F0623031F056
:100C3000633031F487E108958FE0089583E10895EA
:100C40008FEF089587E008958BE0089580912B033E
:100C5000682F6F70829587700E94E6050C94B2052C
:100C60006A9A0E9470050E94C90580912B038F3FEC
:100C700021F410922B030E94D00580912B03881F32
:100C80008827881F8E5F0E94B2050E942606729AEE
:100C9000089580912B03806880932B03729883E0E2
:100CA0000E94B2050E942606729A0C94D00580918B
:100CB0002B0387FD0C94D6050C94490620912B0339
:100CC00027FF0FC08770982F9295907F822F807892
:100CD0006F70892B862B80932B030E9426060C9421
:100CE000D005089520912B0327FF2AC0422F42955B
:100CF000477050E0682F70E04617570741F0877043
:100D00008295807F2078822B80932B0315C08823C7
:100D100031F0813011F464E003C061E001C060E1B2
:100D2000822F8F7090E0019670E00E9498298F705A
:100D3000207F282B20932B030E9426060C94D0059D
:100D400008956A98729808950C94300680913C0337
:100D50000895CF93DF9300D01F92CDB7DEB79C01EB
:100D60008091ED03843019F593E099833B832A83C6
:100D70009093E9008FEF9091E800815095FD06C0B7
:100D800095ED9A95F1F700008111F5CF8091E8007B
:100D900085FF0DC040E050E063E070E0CE010196B9
:100DA0000E9415098091E8008E778093E8000F90EB
:100DB0000F900F90DF91CF910895CF93DF9300D0E4
:100DC0001F92CDB7DEB72091ED03243021F522E04C
:100DD00029839B838A8383E08093E9008FEF90913E
:100DE000E800815095FD06C095ED9A95F1F7000059
:100DF0008111F5CF8091E80085FF0DC040E050E003
:100E000063E070E0CE0101960E9415098091E80030
:100E10008E778093E8000F900F900F90DF91CF9125
:100E200008952091ED032430F1F422E02093E900AD
:100E30002FEF3091E800215035FD06C035ED3A9591
:100E4000F1F700002111F5CF2091E80025FF0BC03C
:100E500040E050E065E070E00E9415098091E800F4
:100E60008E778093E8000895CF93DF93EC01909103
:100E7000ED03943009F046C080910B018823D9F02E
:100E800080910C018823B9F09093E9008FEF909145
:100E9000E800815095FD06C095E19A95F1F70000B4
:100EA0008111F5CF8091E80085FF2CC040E050E033
:100EB00060E170E017C081E08093E9008FEF9091CE
:100EC000E800815095FD06C095ED9A95F1F7000078
:100ED0008111F5CF8091E80085FF14C040E050E01B
:100EE00068E070E0CE010E9415098091E8008E77DD
:100EF0008093E80080E1FE01ACE2B3E001900D9246
:100F00008A95E1F7DF91CF9108958091EC038111EB
:100F100009C00E94280A0E94830A8091E20084602E
:100F20008093E20008951092EC03089508950895C7
:100F300042E061EC81E00E94C30942E061EC82E0A2
:100F40000E94C30942E061EC83E00E94C30942E1D0
:100F500061EC84E00C94C3098091EF03833009F4C1
:100F600055C030F4813071F0823009F48EC008959C
:100F70008A3009F47AC08B3009F460C0893009F0F6
:100F80009CC020C08091EE03813A09F096C0809108
:100F9000E800877F8093E8008091F2039091F3034B
:100FA000892B21F460E18CE293E003C060E080E0F3
:100FB00090E070E00E9460098091E8008B77809358
:100FC000E80008958091EE03813209F076C08091A7
:100FD000F2039091F303009719F0039709F06DC0A5
:100FE0008091E800877F8093E8008091E80082FD8F
:100FF00005C08091ED038111F8CF5FC08091F100B1
:1010000080933C038091E8008B7753C08091EE037E
:10101000813A09F052C08091F2039091F303892B39
:1010200009F04BC08091E800877F8093E8008091B1
:10103000E80080FFFCCF80910B0136C08091EE0369
:101040008132D9F58091F2039091F303892BA9F5B0
:101050008091E800877F8093E8000E94D709809103
:10106000F00380930B010C9417138091EE038132EF
:1010700021F58091E800877F8093E8000E94D709DE
:101080008091F10380933D0308958091EE03813AAE
:10109000A1F48091E800877F8093E8008091E800C8
:1010A00080FFFCCF80913D038093F1008091E800A8
:1010B0008E778093E8000C94D709089508950895D9
:1010C00008950C9460080E94371A8091EB038823DE
:1010D00029F00E94F71981110C94FF08089584B734
:1010E000877F84BF0FB6F894A895809160008861CF
:1010F00080936000109260000FBE90E080E80FB611
:10110000F89480936100909361000FBE0E945E0886
:101110000E94210D0E94280A0E94830A8091E20009
:1011200084608093E20078948091ED038430E1F74D
:101130000E94230D81E091E00E94CD0C0E945F0887
:101140008091ED03853019F40E946308F9CF0E9465
:10115000330DF6CF0C94641A0C94AA08292F332768
:1011600023303105C1F05CF42130310579F02230B3
:101170003105E9F58DE690E024E731E03CC021320D
:101180003105C1F02232310511F131C082E190E028
:1011900021EE31E030C099278330910540F5FC0104
:1011A000EE0FFF1FE45DFE4F20813181FC01E75D02
:1011B000FE4F1AC06430D8F4E62FF0E0EE0FFF1FA8
:1011C000EF5DFE4F2081318189E090E014C06430F2
:1011D00070F470E0FB01EE0FFF1FE75EFE4F208111
:1011E0003181FB01EB5EFE4F808190E004C080E026
:1011F00090E020E030E0FA0131832083089580E11F
:1012000089BD82E189BD09B400FEFDCF8091D8007F
:101210008F7D8093D8008091E00082608093E00011
:101220008091E00081FDFCCF0895CF92DF92EF9294
:10123000FF920F931F93CF93DF93EC018B016A0111
:101240000E94F609811133C0C114D10439F0F601AE
:1012500080819181081B190BC80FD91FE12CF12C3B
:101260000115110519F18091E80085FD16C08091E6
:10127000E8008E778093E800C114D10449F0F601AC
:1012800080819181E80EF91EF182E08285E00FC035
:101290000E94F609882321F30AC089918093F10006
:1012A00001501109FFEFEF1AFF0ADACF80E0DF915A
:1012B000CF911F910F91FF90EF90DF90CF90089505
:1012C0002091F4033091F5032617370748F0611594
:1012D000710539F42091E8002E772093E80001C0D1
:1012E000B90140E061157105A9F12091ED032223B8
:1012F00009F443C0253009F442C02091E80023FDE1
:1013000040C02091E80022FD32C02091E80020FF7B
:10131000E9CF4091F3002091F20030E0342BFC0142
:10132000CF016115710559F02830310540F48191E4
:101330008093F100615071092F5F3F4FF1CF41E081
:101340002830310509F040E02091E8002E77209305
:10135000E800C8CF4111C9CF0AC08091ED038823AE
:1013600061F0853061F08091E80083FD0AC08091D2
:10137000E80082FFF2CF80E0089582E0089583E0E4
:10138000089581E008958F708093E900EBEEF0E01E
:10139000808181608083EDEEF0E010826093EC004C
:1013A00040838091EE00881F8827881F08958091D0
:1013B000EE0387FF11C08091E80082FD05C0809197
:1013C000ED038111F8CF11C08091E8008B770BC03D
:1013D0008091ED03882349F08091E80080FFF8CFE9
:1013E0008091E8008E778093E80008952091E400D2
:1013F0003091E50095E64091EC00842F817040FF2C
:1014000022C08091E80080FD1CC08091ED038823FC
:1014100091F0853091F08091EB0085FD10C04091F6
:10142000E4005091E5004217530729F39A019150C7
:1014300011F784E0089582E0089583E0089581E043
:10144000089580E008954091E80042FFDECF0895BE
:101450000E94940A0E949C0AE0EEF0E08081816084
:101460008083E8EDF0E080818F77808319BCA7ED61
:10147000B0E08C918E7F8C9380818F7E80831092E0
:10148000EC0308950F931F93CF93DF930E94940A68
:101490000E949C0AC8EDD0E088818F77888388817C
:1014A0008068888388818F7D888319BC1092ED03C2
:1014B0001092EA031092EB0300EE10E0F801808135
:1014C0008B7F808388818160888342E060E080E058
:1014D0000E94C309E1EEF0E080818E7F8083E2EE1E
:1014E000F0E0808181608083808188608083F80162
:1014F00080818E7F8083888180618883DF91CF9116
:101500001F910F910895E8EDF0E080818F7E808338
:10151000E7EDF0E080818160808384E082BF81E03C
:101520008093EC030C94420AE8EDF0E080818E7F1A
:1015300080831092E20008951092DA001092E10088
:1015400008951F920F920FB60F9211242F933F937D
:101550004F935F936F937F938F939F93AF93BF93BB
:10156000EF93FF938091E10082FF0BC08091E20036
:1015700082FF07C08091E1008B7F8093E1000E9491
:1015800097078091DA0080FF1FC08091D80080FF0C
:101590001BC08091DA008E7F8093DA008091D900A1
:1015A00080FF0DC080E189BD82E189BD09B400FEE4
:1015B000FDCF81E08093ED030E94850705C019BC33
:1015C0001092ED030E9493078091E10080FF19C003
:1015D0008091E20080FF15C08091E2008E7F8093B1
:1015E000E2008091E20080618093E2008091D80067
:1015F00080628093D80019BC85E08093ED030E943F
:1016000061088091E10084FF30C08091E20084FF96
:101610002CC080E189BD82E189BD09B400FEFDCF07
:101620008091D8008F7D8093D8008091E1008F7EDB
:101630008093E1008091E2008F7E8093E2008091B0
:10164000E20081608093E2008091EA03882311F038
:1016500084E007C08091E30087FD02C081E001C003
:1016600083E08093ED030E94AC088091E10083FF4A
:1016700029C08091E20083FF25C08091E100877F2F
:101680008093E10082E08093ED031092EA03809161
:10169000E1008E7F8093E1008091E2008E7F809355
:1016A000E2008091E20080618093E20042E060E02D
:1016B00080E00E94C3098091F00088608093F00070
:1016C0000E949607FF91EF91BF91AF919F918F91EB
:1016D0007F916F915F914F913F912F910F900FBE2E
:1016E0000F901F9018951F920F920FB60F92112412
:1016F0002F933F934F935F936F937F938F939F931A
:10170000AF93BF93CF93DF93EF93FF93C091E90023
:10171000CF708091EC00D82FD17080FDD0E810926E
:10172000E9008091F000877F8093F00078940E9418
:10173000B70B1092E9008091F00088608093F00070
:10174000CD2BCF70C093E900FF91EF91DF91CF9146
:10175000BF91AF919F918F917F916F915F914F91C9
:101760003F912F910F900FBE0F901F9018951F93D0
:10177000CF93DF9300D0CDB7DEB7EEEEF3E088E095
:101780008E0F9091F10091938E13FBCF0E94AC07C6
:101790008091E80083FFEDC08091EE039091EF030C
:1017A000492F50E04A30510508F0E3C0FA01E259F0
:1017B000FF4F0C94AC29803881F0823809F0D9C0F1
:1017C0008091F2038F708093E9008091EB0085FB9C
:1017D000882780F91092E90007C08091EB038823E5
:1017E00011F082E001C080E09091E800977F909333
:1017F000E8008093F1001092F10095C0282F2D7F12
:1018000009F0B7C0882319F0823061F0B2C080912E
:10181000F003813009F0ADC0933009F080E080938F
:10182000EB032BC08091F003811127C08091F2035C
:101830008F7009F49EC08093E9002091EB0020FF97
:101840001CC0933021F48091EB00806214C0909111
:10185000EB0090619093EB0021E030E0A90102C021
:10186000440F551F8A95E2F74093EA001092EA0070
:101870008091EB0088608093EB001092E9008091EA
:10188000E800877F53C0811174C01091F0031F7767
:101890008091E3008078812B8093E3008091E800C1
:1018A000877F8093E8000E94D7098091E80080FF3D
:1018B000FCCF8091E30080688093E300111102C0A7
:1018C00082E001C083E08093ED0353C080588230F2
:1018D00008F04FC0AE014F5F5F4F6091F2038091FF
:1018E000F0039091F1030E94AE08BC01892B09F42A
:1018F00040C09091E800977F9093E80089819A8199
:101900000E9460098091E8008B778093E80031C0E5
:10191000803879F58091E800877F8093E800809196
:10192000EA038093F1008091E8008E778093E800CD
:101930000E94D7091EC081111CC09091F003923003
:10194000C0F48091E800877F8093E8009093EA03D9
:101950000E94D7098091EA03811106C08091E300BB
:1019600087FD02C081E001C084E08093ED030E9406
:1019700098078091E80083FF0AC08091E800877F84
:101980008093E8008091EB0080628093EB000F90E1
:101990000F90DF91CF911F9108959093430380930F
:1019A00042030895E0914203F0914303309721F000
:1019B0000190F081E02D099480E00895E0914203C8
:1019C000F0914303309721F00280F381E02D0994D8
:1019D0000895E0914203F0914303309721F0048091
:1019E000F581E02D09940895209140033091410341
:1019F0008217930771F09093410380934003E09125
:101A00004203F0914303309721F00680F781E02DE7
:101A10000994089520913E0330913F038217930764
:101A200071F090933F0380933E03E0914203F09165
:101A30004303309721F00084F185E02D0994089547
:101A400008950C94200D0E946A1A0E945D030E9462
:101A50007B1C0E9409270E9461250E9469220E9426
:101A600073240C9460284F925F926F927F929F92A2
:101A7000AF92BF92CF92DF92EF92FF920F931F939C
:101A8000CF93DF93CDB7DEB729970FB6F894DEBFBB
:101A90000FBECDBF0E94870345E4A42E43E0B42EC1
:101AA00000E010E0902E802F0E94B704F501C19055
:101AB000D190E190F1905F01C626D726E826F9265D
:101AC000C114D104E104F104B1F40F5F1F4F0630DB
:101AD000110541F78FEF89838A831B820E94731A55
:101AE0008160782F9D838C8349815A816B818D81A0
:101AF0000E941A0E64C02091B30321FF0AC06E83B6
:101B00007F83888799870E94C304998588857F8110
:101B10006E8140E050E026013701042E04C0769427
:101B20006794579447940A94D2F740FE41C0498382
:101B30009A82C12CD12C7601C39404C0CC0CDD1C3C
:101B4000EE1CFF1C4A95D2F7260137014622572288
:101B50006822792281E045284628472809F480E058
:101B60008B830E94731A8160782F9D838C834981B7
:101B70005A816B818D810E941A0E49815A816B8135
:101B80007C818D810E940F05000F111F000F111F16
:101B9000F801EB5BFC4F80819181A281B381C82663
:101BA000D926EA26FB26C082D182E282F38207C0D0
:101BB0004F5F5F4F4231510509F0ADCF86CF0E9494
:101BC000F3190E94971F109144030E94D20C18171A
:101BD000D9F00E94D20C8093440329960FB6F89452
:101BE000DEBF0FBECDBFDF91CF911F910F91FF9050
:101BF000EF90DF90CF90BF90AF909F907F906F90CD
:101C00005F904F900C94D02529960FB6F894DEBFC4
:101C10000FBECDBFDF91CF911F910F91FF90EF903D
:101C2000DF90CF90BF90AF909F907F906F905F902C
:101C30004F900895CF93DF93CDB7DEB72B970FB6B4
:101C4000F894DEBF0FBECDBF942F4F83252F58874A
:101C500069877A878B874A855B85452B21F02F3FE3
:101C600009F59F3FF9F4DE01119686E0FD0111921E
:101C70008A95E9F785E0FE01379601900D928A95E5
:101C8000E1F749815A816B817C818D819E810E941F
:101C9000B1152B960FB6F894DEBF0FBECDBFDF9106
:101CA000CF9108954F81588569857A858B850E94EB
:101CB0000F05D9CFCF93882309F4CDC0C82F823820
:101CC00059F40E94D20C81FDC6C089E30E943C18E1
:101CD0000E94CD1989E30CC0833879F40E94D20C9C
:101CE00080FDB9C083E50E943C180E94CD1983E5B0
:101CF0000E940119CF910C94CD19843859F40E9497
:101D0000D20C82FDA8C087E40E943C180E94CD1925
:101D100087E4EECF8CEF8C0F813A48F48C2F0E9431
:101D2000D121811198C08C2F0E943C18E3CF80E212
:101D30008C0F883048F4C77081E001C0880FCA95C5
:101D4000EAF70E949C19D6CF8BE58C0F833078F48C
:101D5000C53A29F0C63A31F083E890E005C081E841
:101D600090E002C082E890E0CF910C94F40C88E5FA
:101D70008C0F853108F06FC0C83A61F1C93A69F13A
:101D8000CA3A71F1CB3A79F1CC3A81F1CD3A89F185
:101D9000CE3A91F1CF3A99F1C13BA1F1C03BA9F103
:101DA000C23BB1F1C33BB9F1C43BC1F1C53BC9F181
:101DB000C63BD1F1C73BD9F1C83BE1F1C93BE9F1E1
:101DC000CA3BF1F1CB3BF9F1CC3B09F43FC080E0D9
:101DD00090E03EC082EE90E03BC089EE90E038C0DB
:101DE0008AEE90E035C085EB90E032C086EB90E063
:101DF0002FC083EB90E02CC084EB90E029C087EBF0
:101E000090E026C08CEC90E023C08DEC90E020C0E8
:101E100083E891E01DC08AE891E01AC082E991E070
:101E200017C084E991E014C081E292E011C083E21E
:101E300092E00EC084E292E00BC085E292E008C01E
:101E400086E292E005C087E292E002C08AE292E078
:101E5000CF910C940A0DCF910895882309F44BC0BB
:101E6000823859F40E94D20C81FF45C089E30E9458
:101E70003C180E94CD1989E30CC0833871F40E948C
:101E8000D20C80FF38C083E50E943C180E94CD1917
:101E900083E50E9401190C94CD19843859F40E94ED
:101EA000D20C82FF28C087E40E943C180E94CD1902
:101EB00087E4EFCF9CEF980F913A58F390E2980F98
:101EC000983050F4877091E001C0990F8A95EAF735
:101ED000892F0E94A219DFCF9BE5980F933020F441
:101EE00080E090E00C94F40C885A853120F480E076
:101EF00090E00C940A0D0895882321F00E949C190B
:101F00000C94CD190895882321F00E94A2190C94F5
:101F1000CD190895CF92DF92EF92FF920F931F9306
:101F2000CF93DF93CDB7DEB727970FB6F894DEBF18
:101F30000FBECDBF25E0FC01DE01119601900D9290
:101F40002A95E1F7FC0140813181028125812295AA
:101F50002F7063817481672B09F448C33F3F19F4E4
:101F60004F3F09F443C36C0149833A8389819A81C5
:101F70002F830E94FB17182F9E830E94FA170E943E
:101F80000A179E81E92FE295EF70F0E0E858FF4FC5
:101F90002F810C94AC29892F807F9F70F92E882384
:101FA00019F0F29490EFF922002349F0FF2009F490
:101FB0005FC28F2D0E94AF190E94CD1959C2812F87
:101FC0000E942D0FFF2009F411C38F2D0E94B51917
:101FD00027960FB6F894DEBF0FBECDBFDF91CF912D
:101FE0001F910F91FF90EF90DF90CF900C94CD193F
:101FF000892F807F9F70F92E803219F0F29480EF44
:10200000F822112319F0113001F129C00023A9F0A1
:102010008F2D222349F1213039F527960FB6F894F8
:10202000DEBF0FBECDBFDF91CF911F910F91FF900B
:10203000EF90DF90CF900C94BF19222319F021303C
:1020400009F4D4C20E94C2192CC00023E9F0263042
:1020500008F0CCC20E9499198F2129F022C00023D8
:10206000F1F0211115C08F2D27960FB6F894DEBF21
:102070000FBECDBFDF91CF911F910F91FF90EF90D9
:10208000DF90CF900C947C0F253008F0AFC209C0D0
:10209000F601858180FFECC18F708583E4CF21112B
:1020A000FBC18F2D69C1292F26952695237030E01D
:1020B0002115310521F021303105C1F097C20023EF
:1020C00019F0812F937002C080E090E027960FB640
:1020D000F894DEBF0FBECDBFDF91CF911F910F915E
:1020E000FF90EF90DF90CF900C94F40C002319F048
:1020F000812F937002C080E090E027960FB6F8948D
:10210000DEBF0FBECDBFDF91CF911F910F91FF902A
:10211000EF90DF90CF900C940A0D812F002319F0DF
:102120000E949F1E02C00E94071F27960FB6F894B8
:10213000DEBF0FBECDBFDF91CF911F910F91FF90FA
:10214000EF90DF90CF900C948C1F892F837009F053
:1021500079C001114BC2812F829586958770880FB7
:10216000880F212F2F70C22ED12CE12CF12C082E9C
:1021700004C0CC0CDD1CEE1CFF1C0A94D2F714FF2B
:1021800012C04FE050E060E070E004C0440F551F03
:10219000661F771F8A95D2F78A019B0100951095DB
:1021A0002095309503C000E010E098019695969533
:1021B0009370492F50E0C901B80142305105D1F068
:1021C0004330510559F16C297D298E299F294130D1
:1021D000510541F127960FB6F894DEBF0FBECDBF73
:1021E000DF91CF911F910F91FF90EF90DF90CF90F3
:1021F0000C941F176C297D298E299F2927960FB6CD
:10220000F894DEBF0FBECDBFDF91CF911F910F912C
:10221000FF90EF90DF90CF900C9431170E941F1722
:10222000C701B60127960FB6F894DEBF0FBECDBF2B
:10223000DF91CF911F910F91FF90EF90DF90CF90A2
:102240000C940D17002319F0892F817001C0869519
:10225000882309F4CBC1812F829586958770880FDA
:10226000880F212F2F70C22ED12CE12CF12C082E9B
:1022700004C0CC0CDD1CEE1CFF1C0A94D2F714FF2A
:1022800012C04FE050E060E070E004C0440F551F02
:10229000661F771F8A95D2F78A019B0100951095DA
:1022A0002095309503C000E010E098019695969532
:1022B0009370492F50E0C901B80142305105D1F067
:1022C0004330510559F16C297D298E299F294130D0
:1022D000510541F127960FB6F894DEBF0FBECDBF72
:1022E000DF91CF911F910F91FF90EF90DF90CF90F2
:1022F0000C94D6176C297D298E299F2927960FB615
:10230000F894DEBF0FBECDBFDF91CF911F910F912B
:10231000FF90EF90DF90CF900C94E8170E94D617B3
:10232000C701B60127960FB6F894DEBF0FBECDBF2A
:10233000DF91CF911F910F91FF90EF90DF90CF90A1
:102340000C94C417103F41F118F4103E48F48BC0B0
:10235000123F09F450C0D8F1133F09F460C083C0A4
:102360001F70892F8F71002321F00E945D17812F2C
:102370007BCE0E947E17812F27960FB6F894DEBF82
:102380000FBECDBFDF91CF911F910F91FF90EF90C6
:10239000DF90CF900C94830F0023A9F0253008F034
:1023A00025C1892F8F7127960FB6F894DEBF0FBE17
:1023B000CDBFDF91CF911F910F91FF90EF90DF90F4
:1023C000CF900C94A317263008F010C1EACF002359
:1023D000A1F0892F8F7127960FB6F894DEBF0FBE3C
:1023E000CDBFDF91CF911F910F91FF90EF90DF90C4
:1023F000CF900C945D17002361F3892F8F7127967E
:102400000FB6F894DEBF0FBECDBFDF91CF911F9105
:102410000F91FF90EF90DF90CF900C947E170023E8
:1024200091F0892F8F7127960FB6F894DEBF0FBEFB
:10243000CDBFDF91CF911F910F91FF90EF90DF9073
:10244000CF900C94481727960FB6F894DEBF0FBEB6
:10245000CDBFDF91CF911F910F91FF90EF90DF9053
:10246000CF900C9443170023A1F0222309F4B1CF9D
:10247000812F27960FB6F894DEBF0FBECDBFDF9138
:10248000CF911F910F91FF90EF90DF90CF900C9420
:102490005A0E222309F4B1CF812F27960FB6F89454
:1024A000DEBF0FBECDBFDF91CF911F910F91FF9087
:1024B000EF90DF90CF900C942D0F492F4F70612F2C
:1024C000C6010E943F0327960FB6F894DEBF0FBEE9
:1024D000CDBFDF91CF911F910F91FF90EF90DF90D3
:1024E000CF900C945516011181C0112341F0892F12
:1024F0008F70843021F0907F212F2F70922B9F704E
:10250000892F90E082309105E9F1ACF4009751F108
:10251000019709F06BC027960FB6F894DEBF0FBE87
:10252000CDBFDF91CF911F910F91FF90EF90DF9082
:10253000CF900C949D2483309105A1F1049709F06C
:1025400055C0812F27960FB6F894DEBF0FBECDBFC2
:10255000DF91CF911F910F91FF90EF90DF90CF907F
:102560000C94F82427960FB6F894DEBF0FBECDBFAB
:10257000DF91CF911F910F91FF90EF90DF90CF905F
:102580000C94842427960FB6F894DEBF0FBECDBFFF
:10259000DF91CF911F910F91FF90EF90DF90CF903F
:1025A0000C94B62427960FB6F894DEBF0FBECDBFAD
:1025B000DF91CF911F910F91FF90EF90DF90CF901F
:1025C0000C94D524492F4F70612FC60127960FB662
:1025D000F894DEBF0FBECDBFDF91CF911F910F9159
:1025E000FF90EF90DF90CF900C94F00227960FB6FB
:1025F000F894DEBF0FBECDBFDF91CF911F910F9139
:10260000FF90EF90DF90CF9008950E94BC190E9438
:102610008B190E94CD190E943C200E948C1F80E0E3
:1026200090E00E94F40C80E090E00C940A0D0E946F
:10263000AC190C9405130E94FB17292F22952F70BB
:1026400030E02C3031054CF42A3031056CF4225046
:1026500031092230310588F407C02C30310549F0AA
:102660002F30310531F009C0803E48F0803F29F419
:1026700006C093FB882780F9089580E0089581E0E3
:102680000895CF93DF9300D000D01F92CDB7DEB76F
:102690000F900F900F900F900F90DF91CF910895B2
:1026A000CF93DF9300D000D000D0CDB7DEB7269611
:1026B0000FB6F894DEBF0FBECDBFDF91CF91089566
:1026C0001F93CF93DF93C0915D0316E080915E036B
:1026D000C81799F0D0E01C9FF0011D9FF00D112448
:1026E000E15AFC4F408151816281738184819581DF
:1026F0000E9450132196C770E9CFDF91CF911F91AF
:10270000089540918F0350919003609191037091CF
:10271000920380919303909194030C9450138091B1
:10272000940382958F7009F054C08091910388239F
:1027300009F44FC080915D03A0915E0360918F0307
:10274000709190034091920350919303B6E08A17E1
:1027500009F43FC090E041155105C1F17F3F11F4EC
:102760006F3FA1F1B89FF001B99FF00D1124E15A1C
:10277000FC4F218172132AC02081621327C022815D
:10278000211124C0238134812417350710F42150EE
:102790003109241B350B283C3105C0F420919403EA
:1027A0002F7020612093940326E0289FF001299F39
:1027B000F00D1124EC59FC4F80818F708061808373
:1027C0008FE893E00E948A0F0C9460130196877043
:1027D000BECF0895CF92DF92EF92FF920F931F9397
:1027E000CF93DF93CDB7DEB762970FB6F894DEBF15
:1027F0000FBECDBF8C0185E0F801DE011D96019072
:102800000D928A95E1F7D8014C9111965C91119740
:1028100012966C9112971396CD90DC90149730918C
:102820008F0370919003809192039091930300978E
:1028300009F46BC17F3F19F43F3F09F466C1E09092
:102840009103EE2009F4C0C020919403C816D90664
:1028500028F0F601E81BF90BCF0104C08095909594
:102860008C0D9D1DFF24F394883C910578F0F12C8C
:10287000207F09F0C6C07C2DD98AC88A89890E9428
:1028800041138FE893E00E948A0FB1C0822F807FAE
:1028900009F046C0751314C0341312C0611110C082
:1028A0002F702061209394030E9481138FE893E09E
:1028B0000E948A0F80919403D80115968C932EC0A4
:1028C000CD2819F15F3F11F44F3FF9F0F62E611159
:1028D0001CC080915D0320915E0336E0821709F4ED
:1028E0005AC090E0389FF001399FF00D1124E15A51
:1028F000FC4F7181571306C07081471303C072816A
:10290000711103C001968770E9CFF62E662309F492
:1029100018C180919403816080939403F12C11C1BC
:10292000751308C0341306C0611104C0809194036C
:10293000D801C3C04D875E878D859E856A8B0E94B6
:102940001B136A898823E1F16623D1F12091940356
:10295000822F82958F7090E0029774F080918F03A0
:102960009091900398878F831986DB86CA862C877F
:10297000CE0107960E948A0F86E0F801AFE8B3E027
:1029800001900D928A95E1F70E948F130E948113A6
:10299000FF24F394D6C04D875E878D859E850E9467
:1029A000FB17292F22952F7030E0223031050CF0D3
:1029B000BCC09F7009F0B6C0805E883008F4C1C00A
:1029C000C8010E948A0FE4CFC816D90608F453C084
:1029D000F601E81BF90BCF01883C910508F450C0C3
:1029E000F12C7C2DD98AC88A89890E944113EFE88D
:1029F000F3E086E0DF011D928A95E9F70E948113DA
:102A0000A0C0751314C0341312C0611110C080919E
:102A10009403F8018583C8010E948A0F86E0EFE8DD
:102A2000F3E0DF011D928A95E9F7FE2C8AC04D87FD
:102A30005E878D859E856A8B0E941B136A89882319
:102A400009F4BECF662309F4BBCF20919403822FF3
:102A500082958F7090E002970CF48ECF80918F0357
:102A6000909190039A8389831B82DD82CC822E838E
:102A7000CE0101967FCF809590958C0D9D1DACCF9A
:102A8000F62E662309F49CCF75132EC034132CC088
:102A90002091940320FD1FC0822F82958F70D9F062
:102AA000D80115962C9315978F3049F08F5F982F8A
:102AB0009295907F822F8F70892B15968C93C801E9
:102AC0000E948A0F86E0F801AFE8B3E001900D9212
:102AD0008A95E1F793CF86E0F801AFE8B3E0019083
:102AE0000D928A95E1F72DC04D875E878D859E8575
:102AF0000E941B13811140CF8091940381608093C9
:102B00009403C8010E948A0F1CC0662309F458CFA1
:102B10004D875E878D859E850E941B13882309F44F
:102B20004FCF2ACF811148CF0CC0243031050CF093
:102B300047CF9F7009F440CFF8019581907F09F04D
:102B40003BCF8F2D62960FB6F894DEBF0FBECDBF80
:102B5000DF91CF911F910F91FF90EF90DF90CF9079
:102B600008951F93CF93DF93CDB7DEB72C970FB6A1
:102B7000F894DEBF0FBECDBF4F83588769877A8731
:102B80008B879C87CE0107960E94EA13882369F001
:102B90008F8198852A853B85232BF1F19F3F09F092
:102BA00063C08F3F09F060C037C086E0FE013796F2
:102BB000DE01119601900D928A95E1F76F8178857B
:102BC000EA85FB85309741F17F3F11F46F3F21F19A
:102BD00020915E0330E0C9010196877099274091EA
:102BE0005D0350E08417950709F447C069837A8331
:102BF000FD83EC8396E0929FD001939FB00D11244A
:102C0000A15ABC4FFE01319601900D929A95E1F7C1
:102C100080935E030E94601316E080915D039091A3
:102C20005E038917C1F1189FC0011124815A9C4F7E
:102C30000E94EA13882379F1E0915D031E9FF00161
:102C40001124E15AFC4F408151816281738184815A
:102C500095810E94501380915D0390E001968770EA
:102C6000992780935D03D9CF4F81588569857A85EF
:102C70008B859C850E945013CFCF0E941713109212
:102C80005E0310925D03EFE8F3E086E0DF011D9242
:102C90008A95E9F7C1CF2C960FB6F894DEBF0FBE28
:102CA000CDBFDF91CF911F910895DF92EF92FF92F8
:102CB0000F931F93CF93DF93FC01892B09F48AC0F4
:102CC000E12CF12CDD24D394EF01219684918537FA
:102CD00009F461C058F4843708F04EC0843008F01D
:102CE0006AC08130D1F0823071F174C0883709F444
:102CF0005DC050F4863709F455C0873709F06AC0C3
:102D00008E2D0E94A91954C09CE7980F903708F0A7
:102D100061C08F770E942D0F50C08F010E5F1F4F33
:102D2000FE01849190E2980F983050F48770FD2D49
:102D300001C0FF0F8A95EAF78F2F0E94AF1914C0C8
:102D40000E945A0E13C08F010E5F1F4FFE01C491E7
:102D500080E28C0F883060F4C7708D2D01C0880F21
:102D6000CA95EAF70E94B5190E94CD19E80125C05D
:102D70008C2F0E942D0FFACF9F012E5F3F4FFE0137
:102D8000C491CC2369F08FE99FE00197F1F700C06F
:102D90000000C150F6CF9F012E5F3F4FFE01F4901F
:102DA000E9010BC00E949919E82E07C00E94AC19D6
:102DB0000E94CD1902C00E945A0E8F2D882341F027
:102DC000EFE9FFE03197F1F700C000008150F6CF46
:102DD000FE017ACFDF91CF911F910F91FF90EF907D
:102DE000DF9008956093990370939A0380939B03F7
:102DF00090939C030E9426260C94051360939503E0
:102E00007093960380939703909398030E9485266E
:102E10000C94051308950C94F2160F931F930091D0
:102E2000990310919A0320919B0330919C03602B8E
:102E3000712B822B932B1F910F910C94F2160F93F1
:102E40001F930091990310919A0320919B03309155
:102E50009C0360237123822393231F910F910C9471
:102E6000F2160F931F930091990310919A032091EA
:102E70009B0330919C0360277127822793271F9122
:102E80000F910C94F21660E070E0CB010C94FE16EA
:102E90000F931F9341E050E060E070E08A019B01D6
:102EA00004C0000F111F221F331F8A95D2F7C901DA
:102EB000B8011F910F910C94FE160F931F9341E0E0
:102EC00050E060E070E004C0440F551F661F771F9C
:102ED0008A95D2F78091950390919603A0919703DC
:102EE000B09198038A019B01082B192B2A2B3B2BAD
:102EF000C901B8011F910F910C94FE160F931F93F7
:102F000041E050E060E070E004C0440F551F661FD0
:102F1000771F8A95D2F7409550956095709580916E
:102F2000950390919603A0919703B09198038A011D
:102F30009B01082319232A233B23C901B8011F91B0
:102F40000F910C94FE160F931F9341E050E060E048
:102F500070E004C0440F551F661F771F8A95D2F793
:102F60008091950390919603A0919703B091980357
:102F70008A019B01082719272A273B27C901B80185
:102F80001F910F910C94FE160F931F9300919503C0
:102F9000109196032091970330919803602B712B29
:102FA000822B932B1F910F910C94FE160F931F935E
:102FB0000091950310919603209197033091980307
:102FC00060237123822393231F910F910C94FE168B
:102FD0000F931F93009195031091960320919703EF
:102FE0003091980360277127822793271F910F91B3
:102FF0000C94FE160895CF92DF92EF92FF920F93FA
:103000001F93CF93DF938C01C0909903D0909A03C4
:10301000E0909B03F0909C034091950350919603A0
:103020006091970370919803C42AD52AE62AF72A5B
:10303000CFE1D0E0D701C6010C2E04C0B695A7950C
:10304000979587950A94D2F780FF07C0B8018C2F17
:103050000E94AF1B8130910531F4219758F7B801D8
:1030600080E00E94AF1BDF91CF911F910F91FF90E5
:10307000EF90DF90CF900895CF92DF92EF92FF9282
:103080000F931F93CF93DF93C82F80910B01882359
:10309000E1F080910C018823C1F08C2F86958695F4
:1030A00086958F3008F0A4C0E0910D01F0910E01DB
:1030B000E80FF11DC77081E090E001C0880FCA954C
:1030C000EAF79181892B818393C0D090B00330912E
:1030D000AE03E0910D01F0910E01332309F473C0AA
:1030E0004091AF038D2D2FEF96E0E92EF12C082FA4
:1030F000082E000C110BBF01600F711FDB0112962F
:103100009C919C1709F474C02F3F19F4911101C0D0
:10311000282FC801019606E010E0B7010E94982907
:103120008413E5CFD22F4D114EC02F3F69F4842F69
:10313000440F990B0196B8010E9498298093B0031F
:1031400031503093AE033FC0822F220F990B01966E
:10315000B8010E949829282FFF24F39406E010E07C
:10316000022E000C330B6F01C20ED31ED601129635
:103170005C91552391F08D2FDD0F990BBF01680FE6
:10318000791FDB0112965C93D60112961C92019670
:10319000B8010E949829D82F01C0F394C901019663
:1031A000B8010E949829282F8413DACF242F440FC6
:1031B000330B2F193109C901069666E070E00E94B1
:1031C00098298093AF032091AF03022E000C330B9C
:1031D000E20FF31FC283C901019666E070E00E940E
:1031E00098298093AF038091AE038F5F8093AE03E5
:1031F000DF91CF911F910F91FF90EF90DF90CF90D3
:103200000895EF92FF920F931F93CF93C82F809151
:103210000B018823E9F080910C018823C9F08C2FE1
:103220008695869586958F3008F06FC0E0910D01E8
:10323000F0910E01E80FF11DC77081E090E001C030
:10324000880FCA95EAF780959181892381835DC0B3
:103250002091B0034091AE03442309F456C0E0919D
:103260000D01F0910E010091AF03002E000C110B27
:1032700086E0E82EF12C30E0DF01A20FB31FCD0174
:10328000029612965C915C1336C0DC011C92415090
:103290004093AE03411104C01092B0031092AF03EB
:1032A0004091AF03842F042E000C990B059666E025
:1032B00070E00E9498292817390739F5C091B003AA
:1032C00006E010E0842F440F990B0596B8010E9488
:1032D00098299C01482F0596B8010E949829DF0182
:1032E000A80FB91F12968C91811102C02C13EACF3E
:1032F0002093AF030AC0C9010196B7010E94982923
:10330000282F8017910709F0B6CFCF911F910F9109
:10331000FF90EF90089581E090E0E0910D01F09131
:103320000E01E80FF91F1082019680319105A9F76F
:1033300008958091B20308959091B203892B8093F0
:10334000B203089580959091B20389238093B203CC
:1033500008958093B20308951092B2030895909156
:10336000B103892B8093B103089580959091B103A7
:1033700089238093B10308951092B1030895809337
:103380009D03089510929D03089580910C01811171
:1033900003C08091AE0308950895E0910D01F0916E
:1033A0000E018091B2038083E0910D01F0910E0136
:1033B00090818091B103892B808380919D03882324
:1033C00061F0E0910D01F0910E019081892B8083D5
:1033D0000E94C519811110929D0380910D01909159
:1033E0000E010C94DE0C0895089508950895CF936E
:1033F0000E94F5190E9487030E94F619C0E08C2FE5
:103400000E94B704672B682B692B29F4CF5FC63065
:10341000B1F780E001C081E0CF9108951F920F9233
:103420000FB60F9211248F939F93AF93BF93809108
:10343000B403811113C08091B5039091B603A0919C
:10344000B703B091B8034196A11DB11D8093B50398
:103450009093B603A093B703B093B803BF91AF9115
:103460009F918F910F900FBE0F901F901895809194
:10347000ED03843041F11092B40320E488E190E040
:103480000FB6F894A895809360000FBE209360005B
:103490000E94A1060E94952283B7817F846083BF2A
:1034A00083B7816083BF7894889583B78E7F83BF0D
:1034B0000FB6F894A89580916000886180936000B1
:1034C000109260000FBE08950E9417130E94A40678
:1034D0000C94732482E084BD93E095BD9AEF97BD70
:1034E00080936E0008952FB7F8948091B503909162
:1034F000B603A091B703B091B8032FBF0895CF9240
:10350000DF92EF92FF920F931F932FB7F8944091A1
:10351000B5035091B6036091B7037091B8032FBF04
:103520006A017B01EE24FF248C0120E030E0C0160C
:10353000D106E206F30610F4415051099A01281B06
:10354000390BC9011F910F91FF90EF90DF90CF9041
:1035500008951F920F920FB60F9211248F939F938D
:10356000AF93BF938091B5039091B603A091B70339
:10357000B091B8030196A11DB11D8093B50390933E
:10358000B603A093B703B093B803BF91AF919F91D7
:103590008F910F900FBE0F901F9018950E94280AD0
:1035A000F8942FEF87EA91E6215080409040E1F7B0
:1035B00000C0000087E090EBDC018093F80390935B
:1035C000F903A093FA03B093FB039CE088E10FB6E4
:1035D000F894A895809360000FBE90936000FFCF91
:1035E0008D3B50F4883A70F5853A18F58430F8F43C
:1035F000813009F46CC068C0883E98F4803EB8F40D
:103600008F3B09F061C00E9417132FEF80E792E013
:10361000215080409040E1F700C000000E94CE1A87
:1036200053C0803F08F450C090E09065089590E04A
:103630000895853A09F44EC0863A09F44EC083E8ED
:1036400090E40895883A09F44BC0893A09F44BC0D4
:103650008A3A09F44BC08B3A09F44BC08C3A09F40E
:103660004BC08D3A09F44BC08E3A09F44BC08F3AE7
:1036700009F44BC0813B09F44BC0803B09F44BC0BB
:10368000823B09F44BC0833B09F44BC0843B09F4F3
:103690004BC0853B09F44BC0863B09F44BC0873BCC
:1036A00009F44BC0883B09F44BC0893B09F44BC07B
:1036B0008A3B09F44BC08B3B09F44BC08C3B09F4AB
:1036C0004BC080E094E4089580E090E0089581E0AC
:1036D00090E0089581E890E4089582E890E40895E8
:1036E00082EE94E4089589EE94E408958AEE94E4D9
:1036F000089585EB94E4089586EB94E4089583EBB4
:1037000094E4089584EB94E4089587EB94E4089599
:103710008CEC94E408958DEC94E4089583E895E4AA
:1037200008958AE895E4089582E995E4089584E986
:1037300095E4089581E296E4089583E296E408957D
:1037400084E296E4089585E296E4089586E296E49C
:10375000089587E296E408958AE296E408950E9427
:103760004B03803EA8F4803C00F5813309F45CC033
:1037700038F4893209F452C08A3209F45BC05FC060
:103780008933B1F08238A1F0853309F441C057C0C4
:10379000833E41F128F4803E99F0823EB9F04FC05B
:1037A000863E31F1873E71F14AC00E944F03089571
:1037B0009091F60390FD02C091FF41C080EE3FC0A2
:1037C0008091F60380FFFACF89E339C08091F60338
:1037D00082FF0CC08091F60384FF02C080E02FC0FE
:1037E00083EE2DC08091F60382FFF4CF82EE27C0D6
:1037F0008091F60383FF0AC08091F60384FDEECF2B
:1038000087EE1DC08091F60383FFF6CF86EE17C0CA
:103810008091F60385FF06C089E211C08091F6030E
:1038200085FFFACF85E30BC08091F60386FF06C0C3
:103830008AE205C08091F60386FFFACF81E30E94F9
:10384000F01A08958F929F92AF92BF92EF92FF92DB
:103850000F931F93CF937C01C0E08C2F0E94B7047D
:103860004B015C0100E010E0D501C401002E04C052
:10387000B695A795979587950A94D2F780FF16C0BD
:10388000602F7C2F80E00E94AF1B9C018E159F054E
:1038900059F0832F807E932F907C11F0803A31F481
:1038A00030E02E153F0511F481E009C00F5F1F4F76
:1038B00002311105C9F6CF5FC63079F680E0CF91AD
:1038C0001F910F91FF90EF90BF90AF909F908F90BE
:1038D0000895CF93DF93EC018CE290E00E94221CCC
:1038E000882329F0CE01DF91CF910C94221C80E037
:1038F000DF91CF910895CF930E94EE1D811102C0F8
:103900000E94C81DC5E6C15049F00E9487038FE39D
:103910009CE90197F1F700C00000F5CF89E290E043
:103920000E94691C811132C18AE290E00E94691CE8
:10393000882341F00E94E81D0E94C81D0E94E627CE
:103940000E94442785E090E00E94691C81110E943A
:10395000CE1A0E94F4190E94F91D8093B30387E0E8
:1039600090E00E94691C8823C1F18BE190E00E94E5
:10397000691C882351F08091B30381FB222720F931
:1039800091E0922790FB81F90FC08EE090E00E94B9
:10399000691C882361F08091B30382FB222720F900
:1039A00091E0922790FB82F98093B30316C080E1E7
:1039B00090E00E94691C9091B303882341F093FB2F
:1039C000222720F981E0822780FB93F904C0892F08
:1039D000809580FB90F99093B3038091B3030E948C
:1039E000FD1D0E940B1E8093F60380EE90E00E9466
:1039F000691C882341F08091F603982F909590FBE5
:103A000080F98093F60389E390E00E94691C882383
:103A100059F08091F60381FB222720F991E092274B
:103A200090FB81F98093F60382EE90E00E94691C7E
:103A3000882359F08091F60382FB222720F991E038
:103A4000922790FB82F98093F60386EE90E00E9425
:103A5000691C882359F08091F60383FB222720F903
:103A600091E0922790FB83F98093F60383EE90E038
:103A70000E94691C882359F08091F60384FB222759
:103A800020F991E0922790FB84F98093F60385E377
:103A900090E00E94691C882359F08091F60385FB11
:103AA000222720F991E0922790FB85F98093F60375
:103AB00081E390E00E94691C882359F08091F6030D
:103AC00086FB222720F991E0922790FB86F98093CC
:103AD000F60381E190E00E94691C882359F08091EF
:103AE000F60387FB222720F991E0922790FB87F9C4
:103AF0008093F6038091F6030E940F1E8091F603D7
:103B000087FB882780F980930C0187E290E00E9470
:103B1000691CC82F8EE190E00E94691C8111C2606F
:103B20008FE190E00E94691C8111C46080E290E006
:103B30000E94691C8111C86081E290E00E94691CAA
:103B40008111C06182E290E00E94691C8111C06213
:103B500083E290E00E94691C8111C06484E290E0DD
:103B60000E94691C882311F0C06802C0CC2329F090
:103B70008C2F0E94061E6C2F03C00E94021E682F0D
:103B800070E080E090E0CF910C940B17CF910895F6
:103B90006DEE7EEF80E090E00E94E22960E082E03E
:103BA00090E00E94D42960E083E090E00E94D42954
:103BB00060E084E090E00E94D42960E085E090E03D
:103BC0000E94D4296091F90286E090E00C94D429F7
:103BD0006FEF7FEF80E090E00C94E22980E090E0CE
:103BE0000E94CE2921E08D3E9E4F09F020E0822FD9
:103BF000089582E090E00C94C629682F82E090E05E
:103C00000C94D42983E090E00C94C629682F83E0BB
:103C100090E00C94D42984E090E00C94C629682F9D
:103C200084E090E00C94D42986E090E00C94C629BE
:103C3000682F86E090E00C94D4298091BB0380FF2C
:103C40000BC06091120185E0689FB0011124759549
:103C50006795759567952BC081FF09C0609112012A
:103C600085E0689FB00111247595679520C082FF9B
:103C700007C06091120185E0689FB001112417C050
:103C80009091BC039923D1F060911101961788F7A8
:103C90002091120185E0289F90011124929FA0019C
:103CA000939F500D112470E0CA010E94982960383A
:103CB000710540F46115710539F002C065E070E0EE
:103CC000862F08958FE7089581E008958091BB03C2
:103CD00080FF08C06091100170E07595679575953B
:103CE000679521C081FF06C06091100170E0759555
:103CF000679519C082FF04C06091100170E010C088
:103D00009091BC039923C1F060910F019617A0F721
:103D100080911001899FC001112470E00E949829B0
:103D20006038710528F46115710521F0862F08951A
:103D30008FE7089581E0089561E070E0F4CF803F5F
:103D400021F40E941D1E819504C0813F29F40E9428
:103D50001D1E8093BF030895823F21F40E941D1E03
:103D6000819504C0833F29F40E941D1E8093BE03E9
:103D70000895893F19F40E94661E05C08A3F31F4F8
:103D80000E94661E81958093C00308958B3F21F4A5
:103D90000E94661E819504C08C3F29F40E94661E15
:103DA0008093C1030895843F21F48091BD03816015
:103DB00017C0853F21F48091BD03826011C0863F0A
:103DC00021F48091BD0384600BC0873F21F4809172
:103DD000BD03886005C0883F31F48091BD038061D8
:103DE0008093BD0308958D3F21F48091BB038160D2
:103DF0000BC08E3F21F48091BB03826005C08F3FD2
:103E000029F48091BB0384608093BB030895803FB5
:103E100039F48091BF0387FF6CC01092BF0369C063
:103E2000813F29F48091BF031816BCF362C09091C2
:103E3000BE03823F29F497FF5CC01092BE0359C0B5
:103E4000833F19F41916CCF354C0893F41F4809193
:103E5000C00318160CF04DC01092C0034AC08A3F30
:103E600029F48091C00387FF44C0F6CF8B3F39F41B
:103E70008091C10387FF3DC01092C1033AC08C3FBF
:103E800029F48091C1031816BCF333C0843F21F498
:103E90008091BD038E7F17C0853F21F48091BD03C3
:103EA0008D7F11C0863F21F48091BD038B7F0BC0B5
:103EB000873F21F48091BD03877F05C0883F31F49F
:103EC0008091BD038F7E8093BD0313C08D3F21F48D
:103ED0008091BB038E7F0BC08E3F21F48091BB038A
:103EE0008D7F05C08F3F29F48091BB038B7F80932A
:103EF000BB038091BE0381110EC08091BF0381116D
:103F00000AC08091C003811106C08091C103811154
:103F100002C01092BC0308958DEB93E00E94E90C5F
:103F20000E94731A9093BA038093B90308951F9364
:103F3000CF93DF938091B9039091BA030E947F1AC7
:103F4000AC019091BC03992321F02091130130E042
:103F500006C0209114018AE0289F90011124421785
:103F6000530708F485C08091BE03C091BF03D09170
:103F7000C0031091C103811107C0C11175C0D111D7
:103F800073C0111171C074C09F3F19F09F5F90936F
:103F9000BC03181624F40E941D1E8093BE0380915A
:103FA000BE0387FF05C00E941D1E81958093BE033E
:103FB0001C1624F40E941D1E8093BF038091BF0332
:103FC00087FF05C00E941D1E81958093BF036091ED
:103FD000BE03662331F1C091BF03CC2311F1062E3D
:103FE000000C770B880B990B0E949F2823E333E387
:103FF00043E35FE30E9403290E9467286093BE03A6
:104000006C2FCC0F770B880B990B0E949F2823E312
:1040100033E343E35FE30E9403290E946728609330
:10402000BF031D1624F40E94661E8093C003809176
:10403000C00387FF05C00E94661E81958093C00360
:10404000111624F40E94661E8093C1038091C1035F
:1040500087FF05C00E94661E81958093C103DF9192
:10406000CF911F910C948C1F9F3F09F08FCF97CF5A
:10407000DF91CF911F910895EDEBF3E085E0DF0133
:104080001D928A95E9F71092BC031092BB03089524
:10409000833081F128F4813059F08230D1F00895D5
:1040A000853009F449C0B8F1863009F456C0089546
:1040B00080911401262F30E0280F311D2F3F31054C
:1040C00024F4680F6093140108958FEF8093140116
:1040D000089580911301262F30E0280F311D2F3FC6
:1040E000310524F4680F6093130108958FEF8093D6
:1040F0001301089580911201262F30E0280F311D01
:104100002F3F310524F4680F6093120108958FEF5B
:1041100080931201089580911101262F30E0280F1D
:10412000311D2F3F310524F4680F6093110108956C
:104130008FEF80931101089580911001262F30E0B8
:10414000280F311D2F3F310524F4680F60931001B3
:1041500008958FEF80931001089580910F01262F0D
:1041600030E0280F311D2F3F310524F4680F609394
:104170000F0108958FEF80930F010895833011F19F
:1041800028F4813049F0823091F00895853081F132
:1041900020F18630C1F1089580911401681720F450
:1041A000861B809314010895109214010895809144
:1041B0001301681720F4861B809313010895109251
:1041C0001301089580911201681720F4861B8093D3
:1041D000120108951092120108958091110168173B
:1041E00020F4861B80931101089510921101089507
:1041F00080911001681720F4861B809310010895A8
:1042000010921001089580910F01681720F4861B09
:1042100080930F01089510920F0108950F931F933B
:104220008B3109F475C0A0F58E3009F484C0C0F458
:10423000873009F462C068F4863009F0AAC0809122
:10424000B303817F8E7F8093B30381E08093C303A8
:10425000A1C0883009F44AC08B3009F498C099C0D5
:10426000813109F472C068F4803109F092C0809104
:10427000B30383FB222720F991E0922790FB83F977
:1042800050C0863109F483C0893109F480C081C0EF
:10429000853309F463C068F4873209F45FC028F4F9
:1042A0008E3108F476C08D515FC0893209F456C052
:1042B00070C0833438F48A3308F055C0883309F469
:1042C00066C067C0833409F449C0883409F061C00E
:1042D0000E9417130FEF13ED20E301501040204010
:1042E000E1F700C000000E94CE1A51C00E94F91DE3
:1042F0000E940B1E0E94141E4AC09091B303892F86
:10430000817090FF12C0917F9E7F9093B30342C053
:104310008091B30381FB222720F991E0922790FB43
:1043200081F98093B303992391F18091B303816064
:104330008093B3032CC08091B30382FB222720F922
:1043400091E0922790FB82F9ECCF0E941713909195
:104350000C0181E0892780930C0119C061E070E0B5
:1043600080E090E010C0895341E050E060E070E0F0
:104370008A019B0104C0000F111F221F331F8A9561
:10438000D2F7C901B8010E940B170E94171381E0F0
:1043900001C080E01F910F91089580E0089580E0B2
:1043A0000895CF93C82F8091C303813069F018F02E
:1043B0008230C9F184C0E0910D01F0910E0180813D
:1043C000823209F07EC007C0E0910D01F0910E012C
:1043D0008081823261F48C2F0E94CD21811104C032
:1043E0008C2F0E940E211DC081E090E01AC08C2FFE
:1043F0000E94CF21811114C0C43179F048F4CB3030
:1044000079F0C03109F061C082E08093C30308C035
:10441000C93219F0C83321F058C01092C30355C0F7
:1044200081E0817054C0C93291F120F5C43179F135
:10443000B0F4C73009F047C08EE18093140182E3E5
:10444000809313018AE08093120184E1809311012B
:1044500088E08093100188E280930F0134C0CE5130
:10446000C63088F5EC2FF0E0E151FD4F808180935C
:10447000C20329C0CE34E9F020F4CB3421F56AE040
:1044800013C0C13579F0C235F1F461E00DC08091FF
:10449000C203882319F01092C20315C081E08093F3
:1044A000C30315C061E006C08091C2030E9448208A
:1044B0000AC06AE08091C2030E94BE2004C010922C
:1044C000C30380E004C081E002C080E0AACFCF91A6
:1044D0000895E1E8F0E080818860808380818160D8
:1044E00080838FB7F89493E09093890090ED909338
:1044F00088008FBF0E94E42681E08093DC0308954A
:104500008091DC03882381F080918800909189005C
:10451000892B51F080916F00826080936F0082E060
:104520008093DC030C94FF2608958091DC0388239C
:10453000D9F08091880090918900892BA9F0809111
:104540006F008D7F80936F0081E08093DC0380E0BB
:104550000E94F22681E00E94F22682E00E94F2266A
:104560008091DC030C94FF2608958091DB03876023
:104570008093DB0308951092DB038091DC03882392
:1045800069F080E00E94F22681E00E94F22682E03B
:104590000E94F2268091DC030C94FF260895E5ED3D
:1045A000F3E08083818382830895E82FF0E0EB526B
:1045B000FC4F2081422F50E08FEF90E0861B910945
:1045C000841795071CF48FEF80830895620F608332
:1045D0000895CF93C82F682F80E00E94D5226C2FBA
:1045E00081E00E94D5226C2F82E0CF910C94D522DD
:1045F000E82FF0E0EB52FC4F8081861710F4108218
:104600000895861B80830895CF93C82F682F80E07C
:104610000E94F8226C2F81E00E94F8226C2F82E029
:10462000CF910C94F8228091D40387608093D403B7
:1046300008951092D40308954091D30321E030E00F
:10464000662341F001C0220F8A95EAF7242B2093BC
:10465000D3030895B90102C0660F771F8A95E2F768
:10466000CB01809584238093D3030895CF93C82FE3
:10467000682F80E00E941C236C2F81E00E941C2385
:104680006C2F82E0CF910C941C238093D203089569
:10469000EFECF3E080838183828308958091CE03E1
:1046A00087608093CE0308951092CE031092CD03BD
:1046B00008958093CC0308951F920F920FB60F9226
:1046C0001124EF92FF920F931F932F933F934F93D9
:1046D0005F936F937F938F939F93AF93BF93CF938A
:1046E000DF93EF93FF938091C7038F5F8093C7039E
:1046F00008ED13E0C0E0D0E0FC2E2091DB0330E0B9
:104700000C2E02C0369527950A94E2F720FF1AC0B6
:104710008091C70381110DC0F8018081882319F0B1
:104720008C2F0E94E526FE01EB52FC4F8081F801A0
:1047300080839091C703F8018081981303C08F2D67
:104740000E94F22621960F5F1F4FC330D105A1F6BC
:104750008091C6038F5F803418F48093C603ACC089
:104760001092C603E090D403E11005C09091CE03EF
:1047700091113BC0A1C08091C5038F5F8093C50399
:104780009091D203981790F71092C5030FEC13E0A5
:10479000C0E0D0E0F12CC7010C2E02C096958795A1
:1047A0000A94E2F780FF1AC0F8018081882319F08B
:1047B0008150808313C08091D30390E00C2E02C0FF
:1047C000969587950A94E2F761E080FF04C08C2FEC
:1047D0000E94F82203C08C2F0E94D52221960F5FE1
:1047E0001F4FC330D105B9F6C1CF8091C4038F5F8D
:1047F0008093C4032091CC03281708F05DC0109269
:10480000C4034091C8035091CD03A9ECB3E020E06C
:1048100030E0C1E0D0E0692F70E0022E02C0769552
:1048200067950A94E2F760FF3AC08C91E82FF0E0B8
:10483000EF53FB4F0491B9016B527C4FFB01008396
:10484000642F70E0022E02C0769567950A94E2F715
:1048500060FF19C0811115C0BE01022E01C0660F94
:104860000A94EAF760954623E52FF0E0022E02C095
:10487000F695E7950A94E2F7E0FF11C096235623D8
:104880000EC081500BC08F3741F4BE01022E01C013
:10489000660F0A94EAF7462B02C08F5F8C932F5F56
:1048A0003F4F11962330310509F0B5CF9093CE03D9
:1048B0004093C8035093CD03FF91EF91DF91CF91C7
:1048C000BF91AF919F918F917F916F915F914F9128
:1048D0003F912F911F910F91FF90EF900F900FBE7E
:1048E0000F901F9018950E94EE1D811102C00E942A
:1048F000C81D0E94141E8093F70380FF02C0869596
:1049000001C080E00C94C4048091F70380FF14C0C0
:10491000982F9695292F30E02830310544F49F5F79
:10492000990F8170892B8093F7030E94181E809144
:10493000F70386950C94C40408958091F70380FFD3
:1049400014C0982F9695292F30E02230310544F07D
:104950009158990F8170892B8093F7030E94181E3C
:104960008091F70386950C94C40408958091F70311
:10497000982F9095917090FB80F98093F70399237D
:1049800039F0982F9E7F21F4817082608093F70325
:104990008091F7030E94181E8091F70380FF02C0E8
:1049A000869501C080E00C94C4049091F703892F90
:1049B00086958F5F8F779170893028F4880F892BC7
:1049C0008093F70302C09093F7038091F7038E7FE3
:1049D00091E009F490E08091F70390FB80F98093D7
:1049E000F7030E94181E8091F70386950C94C40467
:1049F000880F9091F7039170892B8093F7038E7F36
:104A000091E009F490E08091F70390FB80F98093A6
:104A1000F7030E94181E8091F70386950C94C40436
:104A2000EF92FF920F931F93CF93DF930091E303D5
:104A30000827611101C0F1F1C0E0D0E0E62EF82EA8
:104A400010E08C2F9C2F2091DB0330E00C2E02C055
:104A5000369527950A94E2F720FF0BC02091DF03DB
:104A600030E00C2E02C0369527950A94E2F720FD1F
:104A70001BC0E11009C09801092E02C03695279588
:104A80000A94E2F720FF10C02091DE032F2530E0CA
:104A900002C0369527959A95E2F720FF03C00E9441
:104AA000580502C00E9464052196C330D10549F61D
:104AB000F092E303DF91CF911F910F91FF90EF9060
:104AC00008950F931F93CF93DF93C0E0D0E001E0F0
:104AD00010E08C2F0E945A2796FF0BC08091DD03B7
:104AE00098010C2E01C0220F0A94EAF7282B20937C
:104AF000DD0394FF0BC08091DE0398010C2E01C0F2
:104B0000220F0A94EAF7282B2093DE0395FF0BC0AF
:104B10008091DF0398010C2E01C0220F0A94EAF75E
:104B2000282B2093DF039F70892F90E0823091051E
:104B300089F083309105D1F08130910511F50C2E6B
:104B400001C0880F0A94EAF79091E103892B8093C2
:104B5000E10317C02091E003C8010C2E01C0880FAB
:104B60000A94EAF7822B8093E0030BC02091E203C2
:104B7000C8010C2E01C0880F0A94EAF7822B80939B
:104B8000E2032196C330D10509F0A3CF0E9451055D
:104B900061E080E0DF91CF911F910F910C9410257F
:104BA000CF92DF92EF92FF920F931F93CF93DF93F9
:104BB0009091E203992309F440C01091E303C0E00F
:104BC000D0E0E82EF12CCC24C394D12C0C2F809172
:104BD000E20390E00C2E02C0969587950A94E2F7C6
:104BE00080FF1BC0802F0E945A27970102C0359575
:104BF00027958A95E2F720FF08C0C6010C2E01C058
:104C0000880F0A94EAF7182B08C0C6010C2E01C0C1
:104C1000880F0A94EAF7809518232196C330D105AE
:104C2000A9F660E0812FDF91CF911F910F91FF9046
:104C3000EF90DF90CF900C941025DF91CF911F91D2
:104C40000F91FF90EF90DF90CF900895AF92BF92B9
:104C5000CF92DF92EF92FF920F931F93CF93DF9348
:104C60002091E103222309F445C06B017C011091DE
:104C7000E303C0E0D0E0AA24A394B12C0C2F8091D0
:104C8000E10390E00C2E02C0969587950A94E2F716
:104C900080FF1EC0802F0E945A27A701960104C0E2
:104CA00056954795379527958A95D2F720FF08C0E6
:104CB000C5010C2E01C0880F0A94EAF7182B08C012
:104CC000C5010C2E01C0880F0A94EAF780951823BD
:104CD0002196C330D10591F660E0812FDF91CF910D
:104CE0001F910F91FF90EF90DF90CF90BF90AF900A
:104CF0000C941025DF91CF911F910F91FF90EF90B1
:104D0000DF90CF90BF90AF900895AF92BF92CF92B7
:104D1000DF92EF92FF920F931F93CF93DF93209137
:104D2000E003222309F445C06B017C011091E303E9
:104D3000C0E0D0E0AA24A394B12C0C2F8091E00312
:104D400090E00C2E02C0969587950A94E2F780FFBA
:104D50001EC0802F0E945A27A701960104C05695B5
:104D60004795379527958A95D2F720FF08C0C5014A
:104D70000C2E01C0880F0A94EAF7182B08C0C50151
:104D80000C2E01C0880F0A94EAF78095182321960B
:104D9000C330D10591F660E0812FDF91CF911F9153
:104DA0000F91FF90EF90DF90CF90BF90AF900C9459
:104DB0001025DF91CF911F910F91FF90EF90DF9021
:104DC000CF90BF90AF90089508952091DF0330E019
:104DD000082E02C0369527950A94E2F720FD0C9420
:104DE000580508952091DF0330E0082E02C0369563
:104DF00027950A94E2F720FD0C94640508958091AC
:104E0000DF03882329F061E08091E3030C941025EF
:104E10000895CF92DF92EF92FF920F931F93CF935B
:104E2000DF9304EE13E0C8E0D0E0E12CF12CCE01DA
:104E30000E94CE29F80191838083019699F4C701DD
:104E4000880F991F9C012C513C4F69018E2D0E94A7
:104E50004805F60191838083F80160817181CE015C
:104E60000E94E229FFEFEF1AFF0A22960E5F1F4F02
:104E7000CE30D105E1F6DF91CF911F910F91FF90D8
:104E8000EF90DF90CF9008950F931F93CF9308E09A
:104E900010E0C0E08C2F0E944805BC01C8010E94B0
:104EA000E229CF5F0E5F1F4FC330A1F7CF911F9153
:104EB0000F910895E82FF0E0EE0FFF1FEC51FC4F2B
:104EC000808191810895CF92DF92EF92FF920F93AC
:104ED0001F93CF9380E190E00E94CE298C01C12CDA
:104EE000D12C2DEEE22E2EEFF22E0E945903C82F68
:104EF0000E945B03C89FC00111249C0183E0220F24
:104F0000331F8A95E1F7205C3F4FC216D30680F429
:104F1000C60142960E94C629282F30E0C0FE02C07A
:104F2000322F2227E20EF31E8FEFC81AD80ADDCFE8
:104F300081E00E151F0509F080E0CF911F910F91C0
:104F4000FF90EF90DF90CF90089590E0880F991F29
:104F500042960C94CE2990E0880F991F42960C94AB
:104F6000E229EF92FF920F931F93CF93DF9300D02C
:104F7000CDB7DEB7182F4A8369830E945903082FE3
:104F80000E945B03089FC0011124189F7001199FA4
:104F9000F00C11240E945B0369819701689F200D2A
:104FA000311D1124C9014A81840F911D8E5A9F4FD2
:104FB0000F900F90DF91CF911F910F91FF90EF9085
:104FC0000C94C6298E5A9F4F0C94D4298F929F928D
:104FD000AF92BF92CF92DF92EF92FF920F931F9307
:104FE000CF93DF930E9456036C010E9453037C0110
:104FF000C114D10409F10E94ED024C01A12CB12C85
:105000000DEE1EEFA814B90420F4F601C591D49159
:1050100002C0C0E0D0E0BE018A2D0E94AB270C0F79
:105020001D1F8FEFA81AB80A82E0C80ED11C80E2BB
:10503000A816B10439F702C00DEE1EEFE114F10419
:1050400071F10E94EA026C01A12CB12C0E9459035B
:10505000C82F0E945B03C89FC001112423E0880F62
:10506000991F2A95E1F7A816B906C8F4AC14BD0437
:1050700028F4F701EA0DFB1DC49101C0C0E06C2FBC
:10508000C5010E94E227EC2FF0E0A0FE02C0FE2F37
:10509000EE270E0F1F1F8FEFA81AB80AD7CFB8013F
:1050A00080E190E0DF91CF911F910F91FF90EF9001
:1050B000DF90CF90BF90AF909F908F900C94E2299B
:1050C0000E946327811102C00C94E62708950E9474
:1050D0006E286894B1110C94FD2808950E94E2286E
:1050E00088F09F5798F0B92F9927B751B0F0E1F0A9
:1050F000660F771F881F991F1AF0BA95C9F714C059
:10510000B13091F00E94FC28B1E008950C94FC2885
:10511000672F782F8827B85F39F0B93FCCF3869591
:1051200077956795B395D9F73EF4909580957095EE
:1051300061957F4F8F4F9F4F0895E89409C097FB6B
:105140003EF490958095709561957F4F8F4F9F4F5E
:105150009923A9F0F92F96E9BB279395F6958795A2
:1051600077956795B795F111F8CFFAF4BB0F11F465
:1051700060FF1BC06F5F7F4F8F4F9F4F16C088230C
:1051800011F096E911C0772321F09EE8872F762F42
:1051900005C0662371F096E8862F70E060E02AF083
:1051A0009A95660F771F881FDAF7880F969587956F
:1051B00097F9089557FD9058440F551F59F05F3FD8
:1051C00071F04795880F97FB991F61F09F3F79F029
:1051D00087950895121613061406551FF2CF4695AB
:1051E000F1DF08C0161617061806991FF1CF86952D
:1051F0007105610508940895E894BB276627772711
:10520000CB0197F908950E9416290C9487290E94D2
:10521000792938F00E94802920F0952311F00C9410
:1052200070290C94762911240C94FD280E94DA2808
:1052300070F3959FC1F3950F50E0551F629FF001E9
:10524000729FBB27F00DB11D639FAA27F00DB11D02
:10525000AA1F649F6627B00DA11D661F829F22278B
:10526000B00DA11D621F739FB00DA11D621F839F12
:10527000A00D611D221F749F3327A00D611D231FE8
:10528000849F600D211D822F762F6A2F11249F5736
:1052900050409AF0F1F088234AF0EE0FFF1FBB1F39
:1052A000661F771F881F91505040A9F79E3F5105F8
:1052B00080F00C9470290C94FD285F3FE4F3983E35
:1052C000D4F3869577956795B795F795E7959F5FA2
:1052D000C1F7FE2B880F911D9695879597F9089534
:1052E00097F99F6780E870E060E008959FEF80EC99
:1052F000089500240A94161617061806090608953C
:1053000000240A9412161306140605060895092EA1
:105310000394000C11F4882352F0BB0F40F4BF2B10
:1053200011F460FF04C06F5F7F4F8F4F9F4F089550
:1053300097FB072E16F4009407D077FD09D00E9442
:10534000B22907FC05D03EF4909581959F4F0895B2
:10535000709561957F4F0895EE0FFF1F0590F491B2
:10536000E02D0994AA1BBB1B51E107C0AA1FBB1F5C
:10537000A617B70710F0A61BB70B881F991F5A95E1
:10538000A9F780959095BC01CD010895F999FECFBC
:1053900092BD81BDF89A992780B50895A8E1B0E043
:1053A00042E050E00C94E929262FF999FECF1FBA6C
:1053B00092BD81BD20BD0FB6F894FA9AF99A0FBE3E
:1053C000019608950E94D429272F0C94D529DC0139
:1053D000CB01FC01F999FECF06C0F2BDE1BDF89A00
:1053E000319600B40D9241505040B8F70895F894AA
:0253F000FFCFED
:1053F20005A60634071107DD06A90601019E03284A
:1054020008140A321E404D3639AF0262022C02F3F2
:105412000186019F01B801D101041E1C70015001D7
:1054220032011C0352006500640020005300630037
:105432006100720066002000490049002B00000054
:105442001E0359006F0075006E00670020005000B7
:1054520069006F006E006500650072007300000055
:105462000403090409026D00040100A032090400CA
:10547200000103010100092111010001224000077E
:1054820005810308000A0904010001030102000961
:105492002111010001224D000705820308000A09BB
:1054A200040200010300000009211101000122365B
:1054B200000705830308000A090403000103000032
:1054C200000921110100012239000705840310009F
:1054D20001120110010000000853520200020001F3
:1054E20002000105010906A101050719E029E715D6
:1054F2000025019508750181020508190129059504
:10550200057501910295017503910105071900299D
:105512007715002501957875018102C00501098082
:10552200A101850216010026B7001A01002AB70060
:10553200751095018100C0050C0901A101850316B2
:105542000100269C021A01002A9C02751095018115
:1055520000C005010902A1010901A1000509190103
:10556200290515002501950575018102950175032F
:1055720081010501093009311581257F95027508E0
:10558200810609381581257F950175088106050C6C
:105592000A38021581257F950175088106C0C0056C
:1055A200010906A101050719E029E7150025019562
:1055B2000875018102950175088101050819012903
:1055C200059505750191029501750391010507196C
:1055D2000029FF150026FF00950675088100C0010D
:0A55E2000203040506070809000291
:00000001FF
