:100000000C9461070C94A8070C94A8070C94A807FB
:100010000C94A8070C94A8070C94A8070C94A807A4
:100020000C94A8070C94A8070C9424110C94F611B6
:100030000C9438210C94A8070C94A8070C94A807DA
:100040000C94A8070C945D2E0C94A8070C94A80798
:100050000C94A8070C94DF210C94A8070C94A80713
:100060000C94A8070C94A8070C94A8070C94A80754
:100070000C94A8070C94A8070C94A8070C94A80744
:100080000C94A8070C94A8070C94A8070C94A80734
:100090000C94A8070C94A8070C94A8070C94A80724
:1000A0000C94A8070C94A8070C94A807700874086F
:1000B00078087C088008840886088B08F10BC40B3C
:1000C000C60BC80BCA0BCC0BCE0BD00BD20BD40B70
:1000D000D60BD80BDA0BDC0BDE0BE00B5E128112B9
:1000E0003C1381123C13C612E9123C130B131E136E
:1000F000A016A016CD16CD1628176217CB19CB194E
:100100007A17CB197718771832194819CB19B719FC
:10011000016202620162026200F1A700D100D20016
:10012000D0000002F007F007F104F003F005F1053C
:10013000F205F305F005F405F505F606F005F705FB
:10014000F805F906F105FA05FB05FC06F205FD05C3
:10015000FE05FF06F308F0DE1E1F202122232425C2
:1001600026272D2E2A535455562B141A0815171CC2
:10017000180C12132F30315F6061573904160709CC
:100180000A0B0D0E0F333435285C5D5E57E1641D9C
:100190001B0619051110363738E5C0595A5B58E06F
:1001A000E3E200000000E4002CE6C0E7E4626263E2
:1001B00058003A3B3C3D3E3F404142430000000076
:1001C0000000000101010101010101010101010122
:1001D000010101010101010101010101010101010F
:1001E00001010101010101010101010101010101FF
:1001F00001010101010101010101010101010101EF
:10020000010101010101520101010101010100008F
:100210000000010001010150514F010101000101E5
:1002200001010101010101010000000000000001C5
:10023000010101010101010101010101014A010165
:100240000101010101010101010101010101014B54
:10025000010101010101010101010101010101018E
:10026000014E010101010101010101010101010131
:100270000101014D01010101010100000000010027
:10028000010101010101010101000101010101015F
:10029000010101010000000000000029010101012D
:1002A000010101010101010101350101010101010A
:1002B00001010101010101010101014B01010101E4
:1002C000010101010101010101010101014E0101D1
:1002D000010101010101010101010101010101C04F
:1002E0000101010101010000000001000101010103
:1002F00001010101010001010101010101010101EF
:1003000000000000000000010101010101010101E4
:1003100001010101010101010101010101010101CD
:1003200001010101010101010101010101010101BD
:1003300001010101010101010101010101010101AD
:10034000010101010101010101010101010101E0BE
:10035000E2E30000000001000101010101010101CF
:100360000100010101010101010101010000000082
:100370000000000101010101010101010101010170
:10038000010101010101010101010101010101015D
:10039000010101010101010101010101010101014D
:1003A000010101010101010101010101010101013D
:1003B000010101010101010101010101010100002F
:1003C0000000E40001E6E701010101010100010173
:1003D0000101010101010101000000000000000114
:1003E00001010101010101010101010101010101FD
:1003F00001010101010101010101010101010101ED
:1004000001010101010101010101010101010101DC
:1004100001010101010101010101010101010101CC
:100420000101010101010101010100000000E700DB
:1004300001E6E6C0E4010101010001010101010141
:100440000101010100000000000000353A3B3C3D85
:100450003E3F4041424344454C53CBCCCD01015239
:10046000C5C6C7B401490146474801CECFD0D10126
:1004700050514FC8C9010101014A4B0101D2D3D4E7
:10048000D501010165C1C2C3AAA9A84D4E01010150
:10049000D7D8D9010101000000000100C401010109
:1004A00001DADBDCDD00CACEDACFD7D0DCCDD1D9A2
:1004B000000000000000000A002530313662003ADA
:1004C000200025303258000A722F63203031323339
:1004D0003435363738394142434445460A000A002C
:1004E0002530325800626F756E6365213A20000036
:1004F0001080FF0123002300205B735D004B6579B2
:10050000626F6172642073746172742E0A005553B5
:100510004220636F6E666967757265642E0A005BC0
:10052000575D005B535D005B525D005B445D005BAB
:10053000435D000A002530325820006B6579626FF8
:100540006172645F7265706F72743A20004C45444A
:100550003A20253032580A0064656C5F6B65795F1C
:100560006269743A2063616E27742064656C3A2076
:10057000253032580A006164645F6B65795F626997
:10058000743A2063616E2774206164643A202530D8
:1005900032580A00646F6E652E0A00626F6F746DC8
:1005A00061676963207363616E3A202E2E2E2000EE
:1005B000290A002575002F002575005D2800256497
:1005C0000020002564002000256400200025640030
:1005D0007C0025303258006D6F7573656B6579202E
:1005E0005B62746E7C782079207620685D28726565
:1005F000702F61636C293A205B006D6B5F776865D3
:10060000656C5F74696D655F746F5F6D6178203DC7
:100610002025640A006D6B5F776865656C5F6D61AE
:10062000785F7370656564203D2025640A006D6BFA
:100630005F74696D655F746F5F6D6178203D202523
:10064000640A006D6B5F6D61785F7370656564202F
:100650003D2025640A006D6B5F696E74657276617A
:100660006C203D2025640A006D6B5F64656C6179C8
:10067000203D2025640A006D6B5F776865656C5FBF
:1006800074696D655F746F5F6D6178203D202564CE
:100690000A006D6B5F776865656C5F6D61785F738D
:1006A00070656564203D2025640A006D6B5F746988
:1006B0006D655F746F5F6D6178203D2025640A0071
:1006C0006D6B5F6D61785F7370656564203D20259B
:1006D000640A006D6B5F696E74657276616C203DB3
:1006E0002025640A006D6B5F64656C6179203D2094
:1006F00025640A000A00257500363A20776865658A
:100700006C5F74696D655F746F5F6D61783A20002E
:100710000A00257500353A20776865656C5F6D6164
:10072000785F73706565643A20000A0025750034AF
:100730003A2074696D655F746F5F6D61783A20006F
:100740000A00257500333A206D61785F7370656526
:10075000643A20000A00257500323A20696E7465FB
:100760007276616C286D73293A20000A00257500A5
:10077000313A2064656C6179282A31306D73293AE9
:1007800020000A092D2056616C756573202D0A0022
:100790004D3E004D25643E20003F0073657420648B
:1007A000656661756C740A00433E20007768657267
:1007B000652064656C74613A20637572736F723D75
:1007C00025642C20776865656C3D25640A53656552
:1007D00020687474703A2F2F656E2E77696B69707C
:1007E000656469612E6F72672F77696B692F4D6F32
:1007F0007573655F6B6579730A000A092D204D6F6B
:100800007573656B6579202D0A4553432F713A093D
:10081000717569740A313A0964656C6179282A3105
:10082000306D73290A323A09696E74657276616CAB
:10083000286D73290A333A096D61785F73706565B5
:10084000640A343A0974696D655F746F5F6D61782D
:100850000A353A09776865656C5F6D61785F73701A
:100860006565640A363A09776865656C5F74696D19
:10087000655F746F5F6D61780A0A703A097072691A
:100880006E742076616C7565730A643A09736574D9
:100890002064656661756C74730A75703A092B3152
:1008A0000A646F776E3A092D310A706775703A09DC
:1008B0002B31300A7067646F776E3A092D31300A38
:1008C0000A7370656564203D2064656C7461202A3C
:1008D000206D61785F7370656564202A20287265D9
:1008E00070656174202F2074696D655F746F5F6D32
:1008F0006178290A003F004D3E2000433E20004C15
:1009000025640A000A092D20436F6E736F6C652001
:100910002D0A4553432F713A09717569740A6D3A6E
:10092000096D6F7573656B65790A000A092D204D95
:1009300061676963202D0A643A0964656275670A14
:10094000783A096465627567206D61747269780A26
:100950006B3A096465627567206B6579626F6172D5
:10096000640A6D3A096465627567206D6F75736519
:100970000A763A0976657273696F6E0A733A09737B
:1009800074617475730A633A09636F6E736F6C6593
:10099000206D6F64650A302D343A096C6179657297
:1009A000302D34284631302D4634290A5061757374
:1009B0003A09626F6F746C6F616465720A653A0917
:1009C000656570726F6D0A6E3A094E4B524F0A00A0
:1009D0000A002575002E6C6576656C3A20000A00C9
:1009E0002575002E656E61626C653A20000A00254F
:1009F000303258006261636B6C696768745F636F63
:100A00006E6669672E7261773A20000A00257500CC
:100A10002E6E6B726F3A20000A002575002E7377D8
:100A200061705F6261636B736C6173685F62616365
:100A30006B73706163653A20000A002575002E73A0
:100A40007761705F67726176655F6573633A2000F6
:100A50000A002575002E6E6F5F6775693A20000ADF
:100A6000002575002E737761705F72616C745F7220
:100A70006775693A20000A002575002E737761704A
:100A80005F6C616C745F6C6775693A20000A0025C1
:100A900075002E636170736C6F636B5F746F5F635F
:100AA0006F6E74726F6C3A20000A002575002E7309
:100AB0007761705F636F6E74726F6C5F6361707388
:100AC0006C6F636B3A20000A0025303258006B656A
:100AD000796D61705F636F6E6669672E7261773AD8
:100AE00020000A002575002E6D6F7573653A200091
:100AF0000A002575002E6B6579626F6172643A2079
:100B0000000A002575002E6D61747269783A200024
:100B10000A002575002E656E61626C653A20000A38
:100B200000253032580064656275675F636F6E66DA
:100B300069672E7261773A20000A002575006465A6
:100B40006661756C745F6C617965723A20003F0074
:100B50004E4B524F3A206F66660A004E4B524F3A48
:100B6000206F6E0A0074696D65725F72656164332F
:100B70003228293A202530346C580A006B65796296
:100B80006F6172645F6E6B726F3A2025580A006B5A
:100B90006579626F6172645F69646C653A2025589B
:100BA0000A006B6579626F6172645F70726F746F57
:100BB000636F6C3A2025580A00686F73745F6B6529
:100BC00079626F6172645F6C65647328293A2025CD
:100BD000580A000A092D20537461747573202D0A78
:100BE000004743433A20342E392E32204156522DAD
:100BF0004C4942433A20312E382E3073766E2041D4
:100C000056525F415243483A20617672350A004F8E
:100C10005054494F4E533A204C55464120424F4F75
:100C2000544D41474943204D4F5553454B4559205D
:100C300045585452414B455920434F4E534F4C4514
:100C400020434F4D4D414E44204E4B524F204B457B
:100C5000594D41505F494E5F454550524F4D204CD4
:100C600045444D4150204C45444D41505F494E5FF5
:100C7000454550524F4D204241434B4C4947485403
:100C800020534F465450574D5F4C454420425245E7
:100C9000415448494E475F4C454420343039360A68
:100CA000004255494C443A203432373939383820DB
:100CB0002831363A30393A323020417567202031B8
:100CC0002032303138290A005649443A20307835EC
:100CD00032353328596F756E672050696F6E6565C0
:100CE000727329205049443A20307830303032280D
:100CF0005265642053636172662049492B2920564E
:100D000045523A203078303030320A00444553435F
:100D10003A20742E6D2E6B2E206B6579626F617296
:100D200064206669726D7761726520666F72205209
:100D300065642053636172662049492B0A000A09E1
:100D40002D2056657273696F6E202D0A000A6D6F33
:100D50007573653A206F66660A000A6D6F75736574
:100D60003A206F6E0A000A6B6579626F6172643AAD
:100D7000206F66660A000A6B6579626F6172643A79
:100D8000206F6E0A000A6D61747269783A206F668E
:100D9000660A000A6D61747269783A206F6E0A0003
:100DA0000A64656275673A206F6E0A000A646562BC
:100DB00075673A206F66660A000A0A626F6F746C84
:100DC0006F616465722E2E2E2000433E2000656503
:100DD000636F6E6669673A0A000000000000000059
:100DE00000000001010102020203030404050506DC
:100DF00006070808090A0B0B0C0D0E0F1011121331
:100E0000151617191A1B1D1E2022232527292B2DE5
:100E10002F313335383A3D3F4244474A4D505356BF
:100E2000595C5F6266696C7074777B7E82868A8E9D
:100E30009195999DA1A5A9ADB0B4B8BCC0C3C7CBCD
:100E4000CED2D5D8DBDFE2E4E7EAECEFF1F3F5F759
:100E5000F8FAFBFCFDFEFFFFFF6261636B6C6967E4
:100E6000687420737465703A2025750A00626163A6
:100E70006B6C6967687420746F67676C653A2025CE
:100E8000750A006261636B6C6967687420637573CF
:100E9000746F6D2064656372656173653A202575B2
:100EA0000A006261636B6C696768742063757374B0
:100EB0006F6D20696E6372656173653A2025750AEE
:100EC000000011241FBECFEFDAE0DEBFCDBF04B6B5
:100ED00003FE27C08091430490914404A0914504EF
:100EE000B09146048730904BA740B04BD1F410929C
:100EF000430410924404109245041092460414BE18
:100F000084B7877F84BF0FB6F894A895809160005E
:100F1000886180936000109260000FBEE0E0F8E30B
:100F2000099513E0A0E0B1E0ECE8FAE602C0059014
:100F30000D92A234B107D9F724E0A2E4B3E001C0D6
:100F40001D92A334B207E1F70E94DE0E0C944435E3
:100F50000C940000FF93EF93E0914203F091430360
:100F6000309709F00995EF91FF910895FC01859163
:100F7000803011F0EFDFFBCF0895FF27E0E230E291
:100F800047FF0CC0419597FF09C0EDE26095709551
:100F900080959095611D711D811D911D27FF02C0D7
:100FA000219530E350E2AA27660F771F881F991F0B
:100FB000AA1FA41710F0A41B63955A95A9F7AA308D
:100FC00008F0A95FA05DAF93F395611571058105E8
:100FD000910541F7ED3211F4EF93F395F21718F400
:100FE0003F93F395FBCF8F91B5DFFA95E1F7089525
:100FF000E991F9918591803021F0853219F0AADFCD
:10100000F9CF089520E0E89455915532C1F350335B
:1010100011F4689455915A3348F4505390F3220FC9
:10102000022E220F220F200D250FF4CF0EF4219552
:1010300089919991533619F3533729F1533559F161
:10104000BC0188279927E8945C3621F4899199910D
:1010500068945591543639F446EF7EF077FF0DC011
:101060008FEF9FEF0AC055374AE039F0583540E11D
:1010700021F0523642E009F00895FF93EF937DDFAF
:10108000EF91FF91B7CFFF93EF93FC0181918030F7
:10109000B9F360DFFBCFFF93EF9368DFF1CFDF930E
:1010A000CF93CDB7DEB72596A3DFCF91DF9108951B
:1010B00080E693E008958FE190E008950F931F93E9
:1010C000562F642FFC0182818823D1F1052F10E077
:1010D0000830110528F5F801EA5AFF4F0C94F9344D
:1010E0001F910F910C94180C1F910F910C94A50B4C
:1010F0001F910F910C94260C1F910F910C94AF0B24
:101100001F910F910C94B20B80E001C081E01F9100
:101110000F910C942D0C842F1F910F910C94410C66
:101120005830C1F40E948E20827211F085E301C014
:1011300089E280934403809144030E942F1506C0E6
:10114000583041F4809144030E9402161F910F9180
:101150000C94C2201F910F910895611104C0FC01ED
:101160008281811103C080E090E0089580E191E0E8
:101170000895462F672F0C94FE32805C0E94F23255
:10118000089587E591E0089589E191E0089586E06A
:10119000089582E1089580E885BF85BF0E94FF0B16
:1011A00084B1876084B980B38C7080BB81B3836F56
:1011B00081BB8AB11AB88BB18FEF8BB984B18778B4
:1011C00084B985B1886785B9EDE5F3E0A5E4B3E0BE
:1011D00011921192119211921D921D921D921D92C7
:1011E00083E0E537F807A1F70895DF92EF92FF92C9
:1011F0000F931F93CF93DF9305E413E0E801D12C05
:10120000D0FE02C02A9A01C02A98D1FE02C0299AB3
:1012100001C02998D2FE02C0289A01C0289880EA0D
:101220008A95F1F78FB182958F7091E0892780FBC5
:10123000EE24E0F8F12C799903C082E090E002C03E
:1012400080E090E08E299F29789903C044E050E027
:1012500002C040E050E0842B952B1B9903C028E08E
:1012600030E002C020E030E0822B932B489903C08D
:1012700060E170E002C060E070E0862B972B499936
:1012800003C040E250E002C040E050E0842B952BC8
:101290004C9903C020E430E002C020E030E0822B13
:1012A000932B4D9903C0E0E8F0E002C0E0E0F0E0ED
:1012B0008E2B9F2B4E9903C060E071E002C060E06E
:1012C00070E0862B972B69B1062E000C770B60958A
:1012D00070959B012227330F221F3327322F22279D
:1012E000330FAC01422B532B2FB1022E000C330BCA
:1012F00020953095C9018827990F881F9927982F25
:101300008827990F990F842B952B7E9903C060E055
:1013100078E002C060E070E0862B972B4A9903C00A
:1013200060E070E102C060E070E0862B972B4B9983
:1013300003C040E050E202C040E050E0842B952B17
:101340001E9903C020E030E402C020E030E0822B90
:10135000932B092E000CAA0BBB0B1D9905C040E076
:1013600050E860E070E003C040E050E0BA01842B38
:10137000952BA62BB72B1C9905C040E050E061E0EF
:1013800070E003C040E050E0BA01842B952BA62BFF
:10139000B72B7D9905C040E050E062E070E003C0EB
:1013A00040E050E0BA01842B952BA62BB72B488147
:1013B00059816A817B81481759076A077B0769F160
:1013C00088839983AA83BB8380910001882311F1CC
:1013D0008091FE0380FF04C085EE94E00E94B60772
:1013E0008091FE0380FF0EC0809100011F928F93B9
:1013F00080EE94E09F938F930E944F080F900F9080
:101400000F900F908091FE0380FF04C08EED94E05A
:101410000E94B60785E0809300012A9A299A289AAB
:10142000D394249696E0D912EBCE809100018823C4
:10143000E1F0815080930001882339F0CFE9DFE0AB
:101440002197F1F700C0000010C0EDE5F3E0E801DE
:1014500089919991A991B9918E0181939193A193C9
:10146000B193D3E00D351D0791F781E0DF91CF9166
:101470001F910F91FF90EF90DF90089524E0829FDD
:10148000C0011124FC01E35AFC4F6081718182810B
:1014900093810895CF92DF92EF92FF920F931F9363
:1014A000CF93DF9387EC94E00E94B6078DE5E82E9A
:1014B00083E0F82EC0E0D0E092ECC92E94E0D92E63
:1014C00009EB14E0DF93CF93DF92CF920E944F0895
:1014D0008FEB94E00E94B607F70181919191A19161
:1014E000B1917F010E9403219F938F931F930F93CC
:1014F0000E944F0887EB94E00E94B60721968DB7B3
:101500009EB708960FB6F8949EBF0FBE8DBFC6302B
:10151000D105C1F6DF91CF911F910F91FF90EF9010
:10152000DF90CF900895CF93C82F8730A0F48430F8
:1015300000F58130D0F10E94812D0E94B62D0E94CD
:101540001A2E0E94552EEC2FF0E0E151FB4F8491B2
:10155000CF910C94D02D8730C9F0883031F50E949E
:10156000812D0E94B62D0E94142E0E94552E81E0DE
:1015700016C00E94812D0E94B62D0E941A2E0E9434
:101580004F2E86E08C1BCF910C945A2E0E94812DF9
:101590000E94B62D0E94142E0E94552E80E00E94BB
:1015A000372E83E0CF910C94462E0E941A2E0E9473
:1015B000552E0E94BC2DCF910C94962DCF93DF9386
:1015C00000D000D01F92CDB7DEB78091420480FFDB
:1015D00026C0869590E08730910519F0089781F034
:1015E0001EC06623E1F080E40E94492E80E20F9045
:1015F0000F900F900F900F90DF91CF910C94052ECC
:10160000662369F080E40E94492E80E20F900F90DB
:101610000F900F900F90DF91CF910C94EA2D0F90C7
:101620000F900F900F900F90DF91CF910895E82FBA
:10163000F0E0EE0FFF1FED50FB4F85919491089560
:101640003F9A479A6E9A769A279A2F9808958130F2
:1016500031F018F0823029F008954798089576986F
:1016600008952F9A0895813031F018F0823029F0D2
:101670000895479A0895769A08952F9808953E9868
:101680004698089546988FE99CE80197F1F700C0C5
:101690000000469A8FE496E40197F1F700C000003D
:1016A000089546988FEB98E00197F1F700C000008D
:1016B000469A089598E04698EFEBF8E03197F1F7F5
:1016C00000C00000469A80FF05C0EFEFF8E13197B7
:1016D000F1F704C0EFEBF8E03197F1F700C000003C
:1016E0008695915041F70895CF93C82F892F0E9476
:1016F0005A0B8C2FCF910C945A0B8FEE90E00C94D8
:10170000740BCF938F3F91F0C82FF8943E9A0E94AC
:10171000420B0E947D0B8C2F0E945A0B8C2F8095C0
:101720000E945A0B0E94510B3E987894CF910895D5
:1017300087E090E00E9413358093750308956091CF
:10174000750387E090E00C942135809175038F77C5
:101750008093750382E00E94810B0C949F0B80E0C4
:101760000C94810B81E00C94810B882319F081305B
:1017700049F135C0862F90E08031910518F5FC01C4
:10178000E25AFF4F0C94F93484E0089585E00895FF
:1017900086E0089588E0089589E008958AE0089534
:1017A0008CE008958DE008958EE0089580E108951D
:1017B00081E1089582E1089584E1089585E1089525
:1017C00086E10895613039F070F0623031F06330B5
:1017D00031F487E108958FE0089583E108958FEF54
:1017E000089587E008958BE0089580917503682F30
:1017F0006F70829587700E94B50B0C94810B6A9A6A
:101800000E943F0B0E94980B809175038F3F21F43B
:10181000109275030E949F0B80917503881F882783
:10182000881F8E5F0E94810B0E94F50B729A0895AB
:1018300080917503806880937503729883E00E949D
:10184000810B0E94F50B729A0C949F0B809175038B
:1018500087FD0C94A50B0C94180C2091750327FFA1
:101860000FC08770982F9295907F822F80786F702D
:10187000892B862B809375030E94F50B0C949F0B8C
:1018800008952091750327FF2AC0422F4295477083
:1018900050E0682F70E04617570741F08770829537
:1018A000807F2078822B8093750315C0882331F0C8
:1018B000813011F464E003C061E001C060E1822F77
:1018C0008F7090E0019670E00E94E5348F70207F69
:1018D000282B209375030E94F50B0C949F0B089501
:1018E0006A98729808950C94FF0B8091870308956D
:1018F00090913804943009F050C09091E9009F70A5
:101900003091EC00232F217030FD20E8922B24E051
:101910002093E9002091EB0020FF3CC02091EE00D5
:1019200027FF38C020917603222321F02091E80080
:1019300025FF30C01092760326E03091E80035FD97
:1019400015C030913804343029F53091EB0035FD65
:1019500021C0215021F481E0809376031BC0EFE980
:10196000FFE03197F1F700C00000E7CF8093F1006E
:101970008091E80085FD09C08091E80080FFFCCFE0
:101980008091E8008E778093E8009F709093E90043
:1019900080E008959F709093E9008FEF0895CF93B2
:1019A000DF9300D01F92CDB7DEB79C018091380441
:1019B000843019F593E099833B832A839093E9005F
:1019C0008FEF9091E800815095FD06C095ED9A95B6
:1019D000F1F700008111F5CF8091E80085FF0DC07F
:1019E00040E050E063E070E0CE0101960E94980F65
:1019F0008091E8008E778093E8000F900F900F9011
:101A0000DF91CF910895CF93DF9300D01F92CDB790
:101A1000DEB720913804243021F522E029839B830E
:101A20008A8383E08093E9008FEF9091E8008150F2
:101A300095FD06C095ED9A95F1F700008111F5CF5F
:101A40008091E80085FF0DC040E050E063E070E069
:101A5000CE0101960E94980F8091E8008E778093C6
:101A6000E8000F900F900F90DF91CF910895209193
:101A700038042430F1F422E02093E9002FEF309174
:101A8000E800215035FD06C035ED3A95F1F700002C
:101A90002111F5CF2091E80025FF0BC040E050E078
:101AA00065E070E00E94980F8091E8008E77809347
:101AB000E8000895CF93DF9320913804243009F093
:101AC00048C0EC0180910B018823E1F080910C016A
:101AD0008823C1F086E08093E9008FEF9091E800C1
:101AE000815095FD06C095E19A95F1F700008111AE
:101AF000F5CF8091E80085FF2CC040E050E060E128
:101B000070E017C081E08093E9008FEF9091E800CA
:101B1000815095FD06C095ED9A95F1F70000811171
:101B2000F5CF8091E80085FF14C040E050E068E008
:101B300070E0CE010E94980F8091E8008E7780932C
:101B4000E80080E1FE01A7E7B3E001900D928A95DD
:101B5000E1F7DF91CF9108958FE295E00E94B607FB
:101B600080913704811109C00E94AB100E940611B8
:101B70008091E20084608093E20008958BE295E01A
:101B80000E94B60710923704089587E295E00C94FE
:101B9000B60780913804843059F58091E90090911E
:101BA000EC00292F217090FD20E8909138049430AA
:101BB000F9F48F70822B9093E9009091EB0090FFE5
:101BC00014C09091EE0097FF10C09091E80095FF2F
:101BD00003C01092F100F9CF9091E80090FF05C08A
:101BE0009091E8009E779093E8008F708093E900D1
:101BF000089542E061EC81E00E94461042E061EC11
:101C000082E00E94461042E061EC83E00E944610B0
:101C100042E261EC84E00E94461042E260EC85E022
:101C20000E94461042E161EC86E00C9446108091DF
:101C30003A04833009F455C030F4813071F08230B9
:101C400009F48EC008958A3009F47AC08B3009F403
:101C500060C0893009F09CC020C080913904813A6D
:101C600009F096C08091E800877F8093E80080911A
:101C70003D0490913E04892B21F460E187E793E0D5
:101C800003C060E080E090E070E00E94E30F80918C
:101C9000E8008B778093E8000895809139048132C1
:101CA00009F076C080913D0490913E04009719F0B0
:101CB000049709F06DC08091E800877F8093E80069
:101CC0008091E80082FD05C0809138048111F8CF31
:101CD0005FC08091F100809387038091E8008B774B
:101CE00053C080913904813A09F052C080913D047B
:101CF00090913E04892B09F04BC08091E800877FCA
:101D00008093E8008091E80080FFFCCF80910B0178
:101D100036C0809139048132D9F580913D0490918B
:101D20003E04892BA9F58091E800877F8093E80025
:101D30000E945A1080913B0480930B010C94EC1983
:101D400080913904813221F58091E800877F80936A
:101D5000E8000E945A1080913C0480938803089503
:101D600080913904813AA1F48091E800877F8093C3
:101D7000E8008091E80080FFFCCF80918803809389
:101D8000F1008091E8008E778093E8000C945A105F
:101D9000089508950895089583E295E00E94B60796
:101DA0000C94CB0E0E94612180913604882329F087
:101DB0000E94212181110C94820F089584B7877F9E
:101DC00084BF0FB6F894A8958091600088618093D5
:101DD0006000109260000FBE90E080E80FB6F894AB
:101DE00080936100909361000FBE0E94C90E0E9413
:101DF000E2130E94AB100E9406118091E200846001
:101E00008093E20088E79CE00E94E820789480912B
:101E100038048430E1F78EE095E00E94B6070E9416
:101E2000E41381E091E00E9450138DEF94E00E9452
:101E3000B6070E94CA0E80913804853039F489EFC4
:101E400094E00E94B6070E94D20EF5CF0E94F413D0
:101E5000F2CF0C948E218FE195E00E94B6070C948E
:101E6000290F292F332723303105C1F05CF42130AD
:101E7000310579F022303105E9F58DE890E029E768
:101E800031E03CC021323105C1F02232310511F17F
:101E900031C082E190E026E032E030C09927833003
:101EA000910540F5FC01EE0FFF1FEF5CFE4F208116
:101EB0003181FC01E25DFE4F1AC06530D8F4E62F97
:101EC000F0E0EE0FFF1FEC5DFE4F2081318189E0D5
:101ED00090E014C0653070F470E0FB01EE0FFF1F5E
:101EE000E65EFE4F20813181FB01EB5EFE4F80817B
:101EF00090E004C080E090E020E030E0FA0131831F
:101F00002083089580E189BD82E189BD09B400FE86
:101F1000FDCF8091D8008F7D8093D8008091E00024
:101F200082608093E0008091E00081FDFCCF089505
:101F3000CF92DF92EF92FF920F931F93CF93DF9395
:101F4000EC018B016A010E947910811133C0C11428
:101F5000D10439F0F60180819181081B190BC80F5B
:101F6000D91FE12CF12C0115110519F18091E80020
:101F700085FD16C08091E8008E778093E800C1143B
:101F8000D10449F0F60180819181E80EF91EF182B9
:101F9000E08285E00FC00E947910882321F30AC0F7
:101FA00089918093F10001501109FFEFEF1AFF0AA8
:101FB000DACF80E0DF91CF911F910F91FF90EF90EA
:101FC000DF90CF90089520913F0430914004261770
:101FD000370748F06115710539F42091E8002E7734
:101FE0002093E80001C0B90140E061157105A9F135
:101FF00020913804222309F443C0253009F442C05B
:102000002091E80023FD40C02091E80022FD32C06D
:102010002091E80020FFE9CF4091F3002091F200E9
:1020200030E0342BFC01CF016115710559F02830E7
:10203000310540F481918093F100615071092F5F67
:102040003F4FF1CF41E02830310509F040E02091C9
:10205000E8002E772093E800C8CF4111C9CF0AC00D
:1020600080913804882361F0853061F08091E80028
:1020700083FD0AC08091E80082FFF2CF80E00895DE
:1020800082E0089583E0089581E008958F70809341
:10209000E900EBEEF0E0808181608083EDEEF0E01E
:1020A00010826093EC0040838091EE00881F8827A7
:1020B000881F08958091390487FF11C08091E8003E
:1020C00082FD05C0809138048111F8CF11C0809144
:1020D000E8008B770BC080913804882349F0809109
:1020E000E80080FFF8CF8091E8008E778093E800C9
:1020F00008952091E4003091E50095E64091EC00D0
:10210000842F817040FF22C08091E80080FD1CC0B8
:1021100080913804882391F0853091F08091EB0014
:1021200085FD10C04091E4005091E500421753072F
:1021300029F39A01915011F784E0089582E00895FF
:1021400083E0089581E0089580E008954091E800DB
:1021500042FFDECF08950E9417110E941F11E0EE8A
:10216000F0E0808181608083E8EDF0E080818F770E
:10217000808319BCA7EDB0E08C918E7F8C93808119
:102180008F7E80831092370408950F931F93CF930F
:10219000DF930E9417110E941F11C8EDD0E08881C3
:1021A0008F77888388818068888388818F7D888302
:1021B00019BC10923804109235041092360400EEC7
:1021C00010E0F80180818B7F808388818160888323
:1021D00042E060E080E00E944610E1EEF0E08081A5
:1021E0008E7F8083E2EEF0E0808181608083808159
:1021F00088608083F80180818E7F80838881806100
:102200008883DF91CF911F910F910895E8EDF0E061
:1022100080818F7E8083E7EDF0E080818160808324
:1022200084E082BF81E0809337040C94C510E8ED10
:10223000F0E080818E7F80831092E20008951092FA
:10224000DA001092E10008951F920F920FB60F92DC
:1022500011242F933F934F935F936F937F938F93AB
:102260009F93AF93BF93EF93FF938091E10082FF21
:102270000BC08091E20082FF07C08091E1008B7F5C
:102280008093E1000E94C90D8091DA0080FF1FC099
:102290008091D80080FF1BC08091DA008E7F8093F0
:1022A000DA008091D90080FF0DC080E189BD82E114
:1022B00089BD09B400FEFDCF81E0809338040E94FF
:1022C000AC0D05C019BC109238040E94BE0D80915F
:1022D000E10080FF19C08091E20080FF15C080916D
:1022E000E2008E7F8093E2008091E2008061809323
:1022F000E2008091D80080628093D80019BC85E00C
:10230000809338040E94CC0E8091E10084FF30C09D
:102310008091E20084FF2CC080E189BD82E189BD0B
:1023200009B400FEFDCF8091D8008F7D8093D80046
:102330008091E1008F7E8093E1008091E2008F7EAA
:102340008093E2008091E20081608093E2008091BE
:102350003504882311F084E007C08091E30087FDF5
:1023600002C081E001C083E0809338040E942B0FFB
:102370008091E10083FF29C08091E20083FF25C0A6
:102380008091E100877F8093E10082E080933804B0
:10239000109235048091E1008E7F8093E10080915E
:1023A000E2008E7F8093E2008091E2008061809362
:1023B000E20042E060E080E00E9446108091F00080
:1023C00088608093F0000E94C50DFF91EF91BF914E
:1023D000AF919F918F917F916F915F914F913F91BD
:1023E0002F910F900FBE0F901F9018951F920F9274
:1023F0000FB60F9211242F933F934F935F936F93D8
:102400007F938F939F93AF93BF93CF93DF93EF937C
:10241000FF93C091E900CF708091EC00D82FD1706C
:1024200080FDD0E81092E9008091F000877F8093D2
:10243000F00078940E943A121092E9008091F00026
:1024400088608093F000CD2BCF70C093E900FF919E
:10245000EF91DF91CF91BF91AF919F918F917F913C
:102460006F915F914F913F912F910F900FBE0F9001
:102470001F9018951F93CF93DF9300D0CDB7DEB791
:10248000E9E3F4E088E08E0F9091F10091938E13D0
:10249000FBCF0E94170E8091E80083FFEDC0809172
:1024A000390490913A04492F50E04A30510508F020
:1024B000E3C0FA01E259FF4F0C94F934803881F0FF
:1024C000823809F0D9C080913D048F708093E90073
:1024D0008091EB0085FB882780F91092E90007C006
:1024E00080913604882311F082E001C080E0909151
:1024F000E800977F9093E8008093F1001092F1003C
:1025000095C0282F2D7F09F0B7C0882319F082309D
:1025100061F0B2C080913B04813009F0ADC09330CE
:1025200009F080E0809336042BC080913B04811138
:1025300027C080913D048F7009F49EC08093E9000C
:102540002091EB0020FF1CC0933021F48091EB0020
:10255000806214C09091EB0090619093EB0021E0B9
:1025600030E0A90102C0440F551F8A95E2F740935D
:10257000EA001092EA008091EB0088608093EB0003
:102580001092E9008091E800877F53C0811174C0E8
:1025900010913B041F778091E3008078812B80931A
:1025A000E3008091E800877F8093E8000E945A1042
:1025B0008091E80080FFFCCF8091E30080688093E9
:1025C000E300111102C082E001C083E0809338046F
:1025D00053C08058823008F04FC0AE014F5F5F4F4C
:1025E00060913D0480913B0490913C040E94310F26
:1025F000BC01892B09F440C09091E800977F90932B
:10260000E80089819A810E94E30F8091E8008B772E
:102610008093E80031C0803879F58091E800877FA9
:102620008093E800809135048093F1008091E80068
:102630008E778093E8000E945A101EC081111CC042
:1026400090913B049230C0F48091E800877F8093A2
:10265000E800909335040E945A108091350481114E
:1026600006C08091E30087FD02C081E001C084E0E4
:10267000809338040E94F90D8091E80083FF0AC01E
:102680008091E800877F8093E8008091EB00806272
:102690008093EB000F900F90DF91CF911F910895E1
:1026A00090938E0380938D030895E0918D03F091B4
:1026B0008E03309721F00190F081E02D099480E0A5
:1026C0000895EF92FF920F931F93CF93DF93E091C2
:1026D0008D03F0918E033097B1F18C010280F3816C
:1026E000E02D09958091FE0382FF2DC080FF04C07C
:1026F0008BE395E00E94B607E80110E185E3E82E40
:1027000085E0F82E8091FE0380FF0BC088811F9228
:102710008F93FF92EF920E944F080F900F900F90AF
:102720000F90115021961111EDCF8091FE0380FF83
:102730000AC083E395E0DF91CF911F910F91FF9045
:10274000EF900C94B607DF91CF911F910F91FF90FE
:10275000EF900895E0918D03F0918E03309721F072
:102760000480F581E02D0994089520918B03309128
:102770008C038217930771F090938C0380938B03E3
:10278000E0918D03F0918E03309721F00680F78160
:10279000E02D099408952091890330918A038217CE
:1027A000930771F090938A0380938903E0918D03DE
:1027B000F0918E03309721F00084F185E02D09948B
:1027C000089508950C94E1130E9494210E94CB086F
:1027D0000E94B1230E9456320E94AE300E946A2DA0
:1027E0000E94742F0C94AD334F925F926F927F9240
:1027F0009F92AF92BF92CF92DF92EF92FF920F9390
:102800001F93CF93DF93CDB7DEB729970FB6F89418
:10281000DEBF0FBECDBF0E94F50840E9A42E43E005
:10282000B42E00E010E0902E802F0E943E0AF501A9
:10283000C190D190E190F1905F01C626D726E8269D
:10284000F926C114D104E104F104B1F40F5F1F4F64
:102850000630110541F78FEF89838A831B820E941E
:102860009D218160782F9D838C8349815A816B8162
:102870008D810E94EF1464C02091FE0321FF0AC0E5
:102880006E837F83888799870E944A0A9985888505
:102890007F816E8140E050E026013701042E04C0A4
:1028A00076946794579447940A94D2F740FE41C0B7
:1028B00049839A82C12CD12C7601C39404C0CC0CDC
:1028C000DD1CEE1CFF1C4A95D2F72601370146227B
:1028D00057226822792281E045284628472809F4B2
:1028E00080E08B830E949D218160782F9D838C8363
:1028F00049815A816B818D810E94EF1449815A81EF
:102900006B817C818D810E94DE0A000F111F000FF8
:10291000111FF801E057FC4F80819181A281B381A2
:10292000C826D926EA26FB26C082D182E282F3821B
:1029300007C04F5F5F4F4231510509F0ADCF86CFE1
:102940000E941D210E94572710918F030E9455134A
:10295000181779F10E94551380938F039091FE030D
:1029600092FF0EC090FF0CC01F928F938DE495E0F4
:102970009F938F930E944F080F900F900F900F908E
:1029800080918F0329960FB6F894DEBF0FBECDBF9E
:10299000DF91CF911F910F91FF90EF90DF90CF903B
:1029A000BF90AF909F907F906F905F904F900C94EE
:1029B0001D3129960FB6F894DEBF0FBECDBFDF9153
:1029C000CF911F910F91FF90EF90DF90CF90BF902C
:1029D000AF909F907F906F905F904F900895CF93AE
:1029E000DF93CDB7DEB72B970FB6F894DEBF0FBEDF
:1029F000CDBF942F4F83252F588769877A878B8780
:102A00004A855B85452B21F02F3F09F59F3FF9F45F
:102A1000DE01119686E0FD0111928A95E9F785E0C5
:102A2000FE01379601900D928A95E1F749815A810E
:102A30006B817C818D819E810E94861C2B960FB6B6
:102A4000F894DEBF0FBECDBFDF91CF9108954F81C7
:102A5000588569857A858B850E94DE0AD9CFCF9308
:102A6000882309F4CDC0C82F823859F40E94551329
:102A700081FDC6C089E30E94111F0E94C22089E324
:102A80000CC0833879F40E94551380FDB9C083E5EA
:102A90000E94111F0E94C22083E50E94E51FCF9172
:102AA0000C94C220843859F40E94551382FDA8C0AA
:102AB00087E40E94111F0E94C22087E4EECF8CEFB2
:102AC0008C0F813A48F48C2F0E94152C811198C0EC
:102AD0008C2F0E94111FE3CF80E28C0F883048F4C6
:102AE000C77081E001C0880FCA95EAF70E94912063
:102AF000D6CF8BE58C0F833078F4C53A29F0C63AEF
:102B000031F083E890E005C081E890E002C082E8FF
:102B100090E0CF910C94B51388E58C0F853108F0C7
:102B20006FC0C83A61F1C93A69F1CA3A71F1CB3A5A
:102B300079F1CC3A81F1CD3A89F1CE3A91F1CF3A9F
:102B400099F1C13BA1F1C03BA9F1C23BB1F1C33B3B
:102B5000B9F1C43BC1F1C53BC9F1C63BD1F1C73B9B
:102B6000D9F1C83BE1F1C93BE9F1CA3BF1F1CB3BFB
:102B7000F9F1CC3B09F43FC080E090E03EC082EE2A
:102B800090E03BC089EE90E038C08AEE90E035C01E
:102B900085EB90E032C086EB90E02FC083EB90E0B5
:102BA0002CC084EB90E029C087EB90E026C08CEC31
:102BB00090E023C08DEC90E020C083E891E01DC040
:102BC0008AE891E01AC082E991E017C084E991E0B7
:102BD00014C081E292E011C083E292E00EC084E270
:102BE00092E00BC085E292E008C086E292E005C068
:102BF00087E292E002C08AE292E0CF910C94CB137C
:102C0000CF910895882309F44BC0823859F40E946B
:102C1000551381FF45C089E30E94111F0E94C22005
:102C200089E30CC0833871F40E94551380FF38C0CB
:102C300083E50E94111F0E94C22083E50E94E51FC8
:102C40000C94C220843859F40E94551382FF28C086
:102C500087E40E94111F0E94C22087E4EFCF9CEFFF
:102C6000980F913A58F390E2980F983050F487708B
:102C700091E001C0990F8A95EAF7892F0E94972069
:102C8000DFCF9BE5980F933020F480E090E00C9428
:102C9000B513885A853120F480E090E00C94CB1372
:102CA0000895882321F00E9491200C94C220089559
:102CB000882321F00E9497200C94C2200895CF927F
:102CC000DF92EF92FF920F931F93CF93DF93CDB7D5
:102CD000DEB727970FB6F894DEBF0FBECDBF25E055
:102CE000FC01DE01119601900D922A95E1F7FC019D
:102CF000408131810281258122952F706381748109
:102D0000672B09F448C33F3F19F44F3F09F443C30D
:102D10006C0149833A8389819A812F830E94D01E56
:102D2000182F9E830E94CF1E0E94DF1D9E81E92FD7
:102D3000E295EF70F0E0E858FF4F2F810C94F934E2
:102D4000892F807F9F70F92E882319F0F29490EFDD
:102D5000F922002349F0FF2009F45FC28F2D0E9461
:102D6000A4200E94C22059C2812F0E940216FF2077
:102D700009F411C38F2D0E94AA2027960FB6F8944C
:102D8000DEBF0FBECDBFDF91CF911F910F91FF909E
:102D9000EF90DF90CF900C94C220892F807F9F709E
:102DA000F92E803219F0F29480EFF822112319F0F5
:102DB000113001F129C00023A9F08F2D222349F100
:102DC000213039F527960FB6F894DEBF0FBECDBF80
:102DD000DF91CF911F910F91FF90EF90DF90CF90F7
:102DE0000C94B420222319F0213009F4D4C20E949B
:102DF000B7202CC00023E9F0263008F0CCC20E9496
:102E00008E208F2129F022C00023F1F0211115C05E
:102E10008F2D27960FB6F894DEBF0FBECDBFDF9182
:102E2000CF911F910F91FF90EF90DF90CF900C9476
:102E30005116253008F0AFC209C0F601858180FF28
:102E4000ECC18F708583E4CF2111FBC18F2D69C147
:102E5000292F26952695237030E02115310521F084
:102E600021303105C1F097C2002319F0812F9370F2
:102E700002C080E090E027960FB6F894DEBF0FBE48
:102E8000CDBFDF91CF911F910F91FF90EF90DF9019
:102E9000CF900C94B513002319F0812F937002C0CA
:102EA00080E090E027960FB6F894DEBF0FBECDBF4E
:102EB000DF91CF911F910F91FF90EF90DF90CF9016
:102EC0000C94CB13812F002319F00E94DD2502C042
:102ED0000E94452627960FB6F894DEBF0FBECDBFE1
:102EE000DF91CF911F910F91FF90EF90DF90CF90E6
:102EF0000C94CA26892F837009F079C001114BC246
:102F0000812F829586958770880F880F212F2F70CB
:102F1000C22ED12CE12CF12C082E04C0CC0CDD1CCF
:102F2000EE1CFF1C0A94D2F714FF12C04FE050E0D1
:102F300060E070E004C0440F551F661F771F8A953C
:102F4000D2F78A019B01009510952095309503C01A
:102F500000E010E09801969596959370492F50E007
:102F6000C901B80142305105D1F04330510559F142
:102F70006C297D298E299F294130510541F12796E1
:102F80000FB6F894DEBF0FBECDBFDF91CF911F917A
:102F90000F91FF90EF90DF90CF900C94F41D6C296F
:102FA0007D298E299F2927960FB6F894DEBF0FBE84
:102FB000CDBFDF91CF911F910F91FF90EF90DF90E8
:102FC000CF900C94061E0E94F41DC701B6012796EF
:102FD0000FB6F894DEBF0FBECDBFDF91CF911F912A
:102FE0000F91FF90EF90DF90CF900C94E21D0023A3
:102FF00019F0892F817001C08695882309F4CBC10F
:10300000812F829586958770880F880F212F2F70CA
:10301000C22ED12CE12CF12C082E04C0CC0CDD1CCE
:10302000EE1CFF1C0A94D2F714FF12C04FE050E0D0
:1030300060E070E004C0440F551F661F771F8A953B
:10304000D2F78A019B01009510952095309503C019
:1030500000E010E09801969596959370492F50E006
:10306000C901B80142305105D1F04330510559F141
:103070006C297D298E299F294130510541F12796E0
:103080000FB6F894DEBF0FBECDBFDF91CF911F9179
:103090000F91FF90EF90DF90CF900C94AB1E6C29B6
:1030A0007D298E299F2927960FB6F894DEBF0FBE83
:1030B000CDBFDF91CF911F910F91FF90EF90DF90E7
:1030C000CF900C94BD1E0E94AB1EC701B60127967F
:1030D0000FB6F894DEBF0FBECDBFDF91CF911F9129
:1030E0000F91FF90EF90DF90CF900C94991E103FBE
:1030F00041F118F4103E48F48BC0123F09F450C05F
:10310000D8F1133F09F460C083C01F70892F8F71FD
:10311000002321F00E94321E812F7BCE0E94531E7D
:10312000812F27960FB6F894DEBF0FBECDBFDF917B
:10313000CF911F910F91FF90EF90DF90CF900C9463
:1031400058160023A9F0253008F025C1892F8F716A
:1031500027960FB6F894DEBF0FBECDBFDF91CF919B
:103160001F910F91FF90EF90DF90CF900C94781EFD
:10317000263008F010C1EACF0023A1F0892F8F710B
:1031800027960FB6F894DEBF0FBECDBFDF91CF916B
:103190001F910F91FF90EF90DF90CF900C94321E13
:1031A000002361F3892F8F7127960FB6F894DEBF45
:1031B0000FBECDBFDF91CF911F910F91FF90EF9088
:1031C000DF90CF900C94531E002391F0892F8F71C4
:1031D00027960FB6F894DEBF0FBECDBFDF91CF911B
:1031E0001F910F91FF90EF90DF90CF900C941D1ED8
:1031F00027960FB6F894DEBF0FBECDBFDF91CF91FB
:103200001F910F91FF90EF90DF90CF900C94181EBC
:103210000023A1F0222309F4B1CF812F27960FB606
:10322000F894DEBF0FBECDBFDF91CF911F910F91FC
:10323000FF90EF90DF90CF900C942F15222309F48C
:10324000B1CF812F27960FB6F894DEBF0FBECDBF4A
:10325000DF91CF911F910F91FF90EF90DF90CF9072
:103260000C940216492F4F70612FC6010E94AD08C1
:1032700027960FB6F894DEBF0FBECDBFDF91CF917A
:103280001F910F91FF90EF90DF90CF900C942A1D2B
:10329000011181C0112341F0892F8F70843021F0FA
:1032A000907F212F2F70922B9F70892F90E082307A
:1032B0009105E9F1ACF4009751F1019709F06BC069
:1032C00027960FB6F894DEBF0FBECDBFDF91CF912A
:1032D0001F910F91FF90EF90DF90CF900C94B12F42
:1032E00083309105A1F1049709F055C0812F2796ED
:1032F0000FB6F894DEBF0FBECDBFDF91CF911F9107
:103300000F91FF90EF90DF90CF900C94453027966F
:103310000FB6F894DEBF0FBECDBFDF91CF911F91E6
:103320000F91FF90EF90DF90CF900C94852F279610
:103330000FB6F894DEBF0FBECDBFDF91CF911F91C6
:103340000F91FF90EF90DF90CF900C94DD2F279698
:103350000FB6F894DEBF0FBECDBFDF91CF911F91A6
:103360000F91FF90EF90DF90CF900C940F30492F8A
:103370004F70612FC60127960FB6F894DEBF0FBEBF
:10338000CDBFDF91CF911F910F91FF90EF90DF9014
:10339000CF900C945E0827960FB6F894DEBF0FBE50
:1033A000CDBFDF91CF911F910F91FF90EF90DF90F4
:1033B000CF9008950E94B1200E9480200E94C220D8
:1033C0000E94FC270E94CA2680E090E00E94B5136C
:1033D00080E090E00C94CB130E94A1200C94DA19A9
:1033E0000E94D01E292F22952F7030E02C303105FD
:1033F0004CF42A3031056CF4225031092230310569
:1034000088F407C02C30310549F02F30310531F0F8
:1034100009C0803E48F0803F29F406C093FB88270E
:1034200080F9089580E0089581E00895CF93DF93B7
:1034300000D000D01F92CDB7DEB70F900F900F9045
:103440000F900F90DF91CF910895CF93DF9300D02D
:1034500000D000D0CDB7DEB726960FB6F894DEBF09
:103460000FBECDBFDF91CF9108951F93CF93DF9310
:10347000C091A80316E08091A903C81799F0D0E085
:103480001C9FF0011D9FF00D1124E655FC4F40815B
:10349000518162817381848195810E94251A2196D0
:1034A000C770E9CFDF91CF911F9108954091DA0362
:1034B0005091DB036091DC037091DD038091DE03AA
:1034C0009091DF030C94251A8091DF0382958F7011
:1034D00009F054C08091DC03882309F44FC0809127
:1034E000A803A091A9036091DA037091DB034091D6
:1034F000DD035091DE03B6E08A1709F43FC090E087
:1035000041155105C1F17F3F11F46F3FA1F1B89F03
:10351000F001B99FF00D1124E655FC4F2181721383
:103520002AC02081621327C02281211124C0238157
:1035300034812417350710F421503109241B350B31
:10354000283C3105C0F42091DF032F7020612093C7
:10355000DF0326E0289FF001299FF00D1124E1559B
:10356000FC4F80818F70806180838AED93E00E94A0
:103570005F160C94351A01968770BECF0895CF92CE
:10358000DF92EF92FF920F931F93CF93DF93CDB70C
:10359000DEB762970FB6F894DEBF0FBECDBF8C01C9
:1035A00085E0F801DE011D9601900D928A95E1F704
:1035B000D8014C9111965C91119712966C911297CB
:1035C0001396CD90DC9014973091DA037091DB0361
:1035D0008091DD039091DE03009709F46BC17F3F7A
:1035E00019F43F3F09F466C1E090DC03EE2009F4D2
:1035F000C0C02091DF03C816D90628F0F601E81BE9
:10360000F90BCF0104C0809590958C0D9D1DFF2472
:10361000F394883C910578F0F12C207F09F0C6C026
:103620007C2DD98AC88A89890E94161A8AED93E06E
:103630000E945F16B1C0822F807F09F046C07513CB
:1036400014C0341312C0611110C02F702061209378
:10365000DF030E94561A8AED93E00E945F16809164
:10366000DF03D80115968C932EC0CD2819F15F3F4A
:1036700011F44F3FF9F0F62E61111CC08091A803A0
:103680002091A90336E0821709F45AC090E0389FD0
:10369000F001399FF00D1124E655FC4F718157134D
:1036A00006C07081471303C07281711103C0019677
:1036B0008770E9CFF62E662309F418C18091DF03E5
:1036C00081608093DF03F12C11C1751308C034139E
:1036D00006C0611104C08091DF03D801C3C04D87CB
:1036E0005E878D859E856A8B0E94F0196A89882382
:1036F000E1F16623D1F12091DF03822F82958F7053
:1037000090E0029774F08091DA039091DB03988740
:103710008F831986DB86CA862C87CE0107960E9486
:103720005F1686E0F801AAEDB3E001900D928A954C
:10373000E1F70E94641A0E94561AFF24F394D6C03F
:103740004D875E878D859E850E94D01E292F2295EC
:103750002F7030E0223031050CF0BCC09F7009F0B2
:10376000B6C0805E883008F4C1C0C8010E945F16F0
:10377000E4CFC816D90608F453C0F601E81BF90BCC
:10378000CF01883C910508F450C0F12C7C2DD98ADA
:10379000C88A89890E94161AEAEDF3E086E0DF0103
:1037A0001D928A95E9F70E94561AA0C0751314C09D
:1037B000341312C0611110C08091DF03F8018583BA
:1037C000C8010E945F1686E0EAEDF3E0DF011D927A
:1037D0008A95E9F7FE2C8AC04D875E878D859E8588
:1037E0006A8B0E94F0196A89882309F4BECF662388
:1037F00009F4BBCF2091DF03822F82958F7090E078
:1038000002970CF48ECF8091DA039091DB039A83B8
:1038100089831B82DD82CC822E83CE0101967FCFED
:10382000809590958C0D9D1DACCFF62E662309F4E6
:103830009CCF75132EC034132CC02091DF0320FDC4
:103840001FC0822F82958F70D9F0D80115962C93C6
:1038500015978F3049F08F5F982F9295907F822F28
:103860008F70892B15968C93C8010E945F1686E095
:10387000F801AAEDB3E001900D928A95E1F793CF9C
:1038800086E0F801AAEDB3E001900D928A95E1F788
:103890002DC04D875E878D859E850E94F019811110
:1038A00040CF8091DF0381608093DF03C8010E94D5
:1038B0005F161CC0662309F458CF4D875E878D853F
:1038C0009E850E94F019882309F44FCF2ACF8111D9
:1038D00048CF0CC0243031050CF047CF9F7009F45D
:1038E00040CFF8019581907F09F03BCF8F2D6296F4
:1038F0000FB6F894DEBF0FBECDBFDF91CF911F9101
:103900000F91FF90EF90DF90CF9008951F93CF938A
:10391000DF93CDB7DEB72C970FB6F894DEBF0FBE9E
:10392000CDBF4F83588769877A878B879C87CE0165
:1039300007960E94BF1A882369F08F8198852A858F
:103940003B85232BF1F19F3F09F063C08F3F09F0C6
:1039500060C037C086E0FE013796DE011196019007
:103960000D928A95E1F76F817885EA85FB8530971E
:1039700041F17F3F11F46F3F21F12091A90330E025
:10398000C9010196877099274091A80350E08417D8
:10399000950709F447C069837A83FD83EC8396E039
:1039A000929FD001939FB00D1124A655BC4FFE01EC
:1039B000319601900D929A95E1F78093A9030E94A8
:1039C000351A16E08091A8039091A9038917C1F1D7
:1039D000189FC001112486559C4F0E94BF1A88234E
:1039E00079F1E091A8031E9FF0011124E655FC4FE8
:1039F0004081518162817381848195810E94251A61
:103A00008091A80390E00196877099278093A8037E
:103A1000D9CF4F81588569857A858B859C850E9491
:103A2000251ACFCF0E94EC191092A9031092A80377
:103A3000EAEDF3E086E0DF011D928A95E9F7C1CF58
:103A40002C960FB6F894DEBF0FBECDBFDF91CF919D
:103A50001F910895DF92EF92FF920F931F93CF93E0
:103A6000DF93FC01892B09F48AC0E12CF12CDD24C1
:103A7000D394EF0121968491853709F461C058F4FD
:103A8000843708F04EC0843008F06AC08130D1F02D
:103A9000823071F174C0883709F45DC050F4863704
:103AA00009F455C0873709F06AC08E2D0E949E2008
:103AB00054C09CE7980F903708F061C08F770E9440
:103AC000021650C08F010E5F1F4FFE01849190E2DD
:103AD000980F983050F48770FD2D01C0FF0F8A9524
:103AE000EAF78F2F0E94A42014C00E942F1513C044
:103AF0008F010E5F1F4FFE01C49180E28C0F883052
:103B000060F4C7708D2D01C0880FCA95EAF70E9436
:103B1000AA200E94C220E80125C08C2F0E94021614
:103B2000FACF9F012E5F3F4FFE01C491CC2369F075
:103B30008FE99FE00197F1F700C00000C150F6CF78
:103B40009F012E5F3F4FFE01F490E9010BC00E94E0
:103B50008E20E82E07C00E94A1200E94C22002C031
:103B60000E942F158F2D882341F0EFE9FFE0319758
:103B7000F1F700C000008150F6CFFE017ACFDF914F
:103B8000CF911F910F91FF90EF90DF900895609378
:103B9000E4037093E5038093E6039093E7030E94A8
:103BA00073310C94DA196093E0037093E10380930E
:103BB000E2039093E3030E94D2310C94DA19089542
:103BC0000C94C71D0F931F930091E4031091E5031C
:103BD0002091E6033091E703602B712B822B932B0E
:103BE0001F910F910C94C71D0F931F930091E40335
:103BF0001091E5032091E6033091E70360237123E0
:103C0000822393231F910F910C94C71D0F931F9331
:103C10000091E4031091E5032091E6033091E7035E
:103C200060277127822793271F910F910C94C71D3E
:103C300060E070E0CB010C94D31D0F931F9341E023
:103C400050E060E070E08A019B0104C0000F111F8A
:103C5000221F331F8A95D2F7C901B8011F910F9116
:103C60000C94D31D0F931F9341E050E060E070E08F
:103C700004C0440F551F661F771F8A95D2F78091A5
:103C8000E0039091E103A091E203B091E3038A0184
:103C90009B01082B192B2A2B3B2BC901B8011F9123
:103CA0000F910C94D31D0F931F9341E050E060E0FF
:103CB00070E004C0440F551F661F771F8A95D2F726
:103CC00040955095609570958091E0039091E10347
:103CD000A091E203B091E3038A019B010823192319
:103CE0002A233B23C901B8011F910F910C94D31DC6
:103CF0000F931F9341E050E060E070E004C0440F78
:103D0000551F661F771F8A95D2F78091E003909127
:103D1000E103A091E203B091E3038A019B0108272C
:103D200019272A273B27C901B8011F910F910C942D
:103D3000D31D0F931F930091E0031091E103209195
:103D4000E2033091E303602B712B822B932B1F91A5
:103D50000F910C94D31D0F931F930091E0031091CA
:103D6000E1032091E2033091E30360237123822376
:103D700093231F910F910C94D31D0F931F930091C8
:103D8000E0031091E1032091E2033091E303602707
:103D90007127822793271F910F910C94D31D0895AB
:103DA000CF92DF92EF92FF920F931F93CF93DF9307
:103DB0008C01C090E403D090E503E090E603F0901E
:103DC000E7034091E0035091E1036091E2037091B9
:103DD000E303C42AD52AE62AF72ACFE1D0E0D701A7
:103DE000C6010C2E04C0B695A795979587950A94A1
:103DF000D2F780FF07C0B8018C2F0E94E5228130E6
:103E0000910531F4219758F7B80180E00E94E5222E
:103E1000DF91CF911F910F91FF90EF90DF90CF90A6
:103E20000895CF92DF92EF92FF920F931F93CF935B
:103E3000DF93C82F80910B01882361F180910C01E1
:103E4000882341F18C2F8695869586958F3088F44E
:103E5000E0910D01F0910E01E80FF11DC77081E0B6
:103E600090E001C0880FCA95EAF79181892B818380
:103E7000A3C08091FE0380FF9FC01F92CF9386E76F
:103E800095E09F938F930E944F080F900F900F9093
:103E90000F9092C0D090FB033091F903E0910D0197
:103EA000F0910E01332309F473C04091FA038D2D74
:103EB0002FEF96E0E92EF12C082F082E000C110BA5
:103EC000BF01600F711FDB0112969C919C1709F4D2
:103ED00073C02F3F19F4911101C0282FC80101961A
:103EE00006E010E0B7010E94E5348413E5CFD22F3D
:103EF0004D114EC02F3F69F4842F440F990B01964A
:103F0000B8010E94E5348093FB0331503093F903EC
:103F10003FC0822F220F990B0196B8010E94E53411
:103F2000282FFF24F39406E010E0022E000C330B40
:103F30006F01C20ED31ED60112965C91552391F0EB
:103F40008D2FDD0F990BBF01680F791FDB011296D2
:103F50005C93D60112961C920196B8010E94E5343A
:103F6000D82F01C0F394C9010196B8010E94E5342D
:103F7000282F8413DACF242F440F330B2F19310944
:103F8000C901069666E070E00E94E5348093FA036A
:103F90008091FA03082E000C990BE80FF91FC283D9
:103FA000019666E070E00E94E5348093FA03809108
:103FB000F9038F5F8093F903DF91CF911F910F91E8
:103FC000FF90EF90DF90CF900895EF92FF920F93C4
:103FD0001F93CF93DF93482F80910B01882369F1C2
:103FE00080910C01882349F1842F869586958695CA
:103FF0008F3090F4E0910D01F0910E01E80FF11D6A
:10400000477081E090E001C0880F4A95EAF78095FB
:104010009181892381836DC08091FE0380FF69C0F7
:104020001F924F9388E595E09F938F930E944F08CE
:104030000F900F900F900F905CC02091FB03E091C8
:10404000F903EE2309F455C0C0910D01D0910E0182
:104050000091FA03002E000C110B86E0E82EF12CE3
:1040600030E0DE01A20FB31FCD01029612965C91E3
:10407000541335C0DC011C92E150E093F903E111C7
:1040800004C01092FB031092FA034091FA03842FAC
:10409000042E000C990B059666E070E00E94E53452
:1040A0002817390731F5F090FB0306E010E0842F64
:1040B000440F990B0596B8010E94E5349C01482FE6
:1040C0000596B8010E94E534FE01E80FF91F8281D0
:1040D000811102C02F11EBCF2093FA030AC0C9014E
:1040E0000196B7010E94E534282F8017910709F047
:1040F000B7CFDF91CF911F910F91FF90EF9008956F
:1041000081E090E0E0910D01F0910E01E80FF91FC0
:104110001082019680319105A9F708958091FD03E1
:1041200008959091FD03892B8093FD030895809558
:104130009091FD0389238093FD0308958093FD03EF
:1041400008951092FD0308959091FC03892B8093AC
:10415000FC03089580959091FC0389238093FC03D0
:1041600008951092FC0308958093E8030895109237
:10417000E803089580910C01811103C08091F90337
:1041800008950895E0910D01F0910E018091FD03D5
:104190008083E0910D01F0910E0190818091FC03EC
:1041A000892B80838091E803882361F0E0910D01E1
:1041B000F0910E019081892B80830E94BA20811199
:1041C0001092E80380910D0190910E010C946113FF
:1041D000909343038093420308958295982F9C7C8B
:1041E000392F36953695282F237344E0249FC0013C
:1041F0001124932F982B292F2A7A2695892F85759C
:10420000880F822B08951F93CF93DF931F92CDB712
:10421000DEB799830E94ED20182F9981892F0E9483
:10422000ED20212F30E0322F2227A901482BCA018F
:104230000F90DF91CF911F910895089508950895EB
:104240000895CF930E941F210E94F5080E9420210B
:10425000C0E08C2F0E943E0A672B682B692B29F443
:10426000CF5FC630B1F780E001C081E0CF91089503
:104270001F920F920FB60F9211248F939F93AF93BB
:10428000BF938091FF03811113C08091000490912E
:104290000104A0910204B09103044196A11DB11D37
:1042A0008093000490930104A0930204B09303044C
:1042B000BF91AF919F918F910F900FBE0F901F9064
:1042C000189580913804843041F11092FF0320E466
:1042D00088E190E00FB6F894A895809360000FBE37
:1042E000209360000E94700C0E94962D83B7817FFE
:1042F000846083BF83B7816083BF7894889583B7D8
:104300008E7F83BF0FB6F894A89580916000886176
:1043100080936000109260000FBE08950E94EC1917
:104320000E94730C0C94742F82E084BD93E095BDC1
:104330009AEF97BD80936E0008952FB7F8948091FF
:10434000000490910104A0910204B09103042FBFD6
:1043500008952FB7F8946091000470910104809142
:104360000204909103042FBF0895CF92DF92EF9241
:10437000FF920F931F932FB7F89440910004509130
:10438000010460910204709103042FBF6A017B0154
:10439000EE24FF248C0120E030E0C016D106E206B6
:1043A000F30610F4415051099A01281B390BC90139
:1043B0001F910F91FF90EF90DF90CF9008951F9283
:1043C0000F920FB60F9211248F939F93AF93BF93C9
:1043D0008091000490910104A0910204B091030423
:1043E0000196A11DB11D8093000490930104A09338
:1043F0000204B0930304BF91AF919F918F910F90EE
:104400000FBE0F901F9018950E94AB10F8942FEFDD
:1044100087EA91E6215080409040E1F700C000001B
:1044200087E090EBDC018093430490934404A093D5
:104430004504B09346049CE088E10FB6F894A89533
:10444000809360000FBE90936000FFCF8D3B50F4CF
:10445000883A70F5853A18F58430F8F4813009F41B
:104460006CC068C0883E98F4803EB8F48F3B09F079
:1044700061C00E94EC192FEF80E792E0215080404C
:104480009040E1F700C000000E94042253C0803F2A
:1044900008F450C090E09065089590E00895853A42
:1044A00009F44EC0863A09F44EC083E890E40895BA
:1044B000883A09F44BC0893A09F44BC08A3A09F4A6
:1044C0004BC08B3A09F44BC08C3A09F44BC08D3A7F
:1044D00009F44BC08E3A09F44BC08F3A09F44BC033
:1044E000813B09F44BC0803B09F44BC0823B09F48B
:1044F0004BC0833B09F44BC0843B09F44BC0853B64
:1045000009F44BC0863B09F44BC0873B09F44BC010
:10451000883B09F44BC0893B09F44BC08A3B09F442
:104520004BC08B3B09F44BC08C3B09F44BC080E083
:1045300094E4089580E090E0089581E090E008958B
:1045400081E890E4089582E890E4089582EE94E48E
:10455000089589EE94E408958AEE94E4089585EB35
:1045600094E4089586EB94E4089583EB94E408952D
:1045700084EB94E4089587EB94E408958CEC94E440
:1045800008958DEC94E4089583E895E408958AE80D
:1045900095E4089582E995E4089584E995E4089501
:1045A00081E296E4089583E296E4089584E296E435
:1045B000089585E296E4089586E296E4089587E2F8
:1045C00096E408958AE296E408950E94B908803E30
:1045D000A8F4803C00F5813309F45CC038F48932DA
:1045E00009F452C08A3209F45BC05FC08933B1F06C
:1045F0008238A1F0853309F441C057C0833E41F1B0
:1046000028F4803E99F0823EB9F04FC0863E31F1E9
:10461000873E71F14AC00E94BD08089590914104FF
:1046200090FD02C091FF41C080EE3FC080914104E7
:1046300080FFFACF89E339C08091410482FF0CC02A
:104640008091410484FF02C080E02FC083EE2DC022
:104650008091410482FFF4CF82EE27C08091410413
:1046600083FF0AC08091410484FDEECF87EE1DC018
:104670008091410483FFF6CF86EE17C080914104FC
:1046800085FF06C089E211C08091410485FFFACF01
:1046900085E30BC08091410486FF06C08AE205C015
:1046A0008091410486FFFACF81E30E94262208957B
:1046B0008F929F92AF92BF92EF92FF920F931F93B0
:1046C000CF937C01C0E08C2F0E943E0A4B015C011D
:1046D00000E010E0D501C401002E04C0B695A795F6
:1046E000979587950A94D2F780FF16C0602F7C2F8C
:1046F00080E00E94E5229C018E159F0559F0832FD2
:10470000807E932F907C11F0803A31F430E02E15AA
:104710003F0511F481E009C00F5F1F4F0231110501
:10472000C9F6CF5FC63079F680E0CF911F910F9127
:10473000FF90EF90BF90AF909F908F900895CF9390
:10474000DF93EC018CE290E00E945823882329F04B
:10475000CE01DF91CF910C94582380E0DF91CF916F
:104760000895CF930E942C25811102C00E94062536
:104770008BE995E00E94B607C5E6C15049F00E945A
:10478000F5088FE39CE90197F1F700C00000F5CF31
:1047900084E995E00E94B60789E290E00E949F2399
:1047A000811132C18AE290E00E949F23882341F068
:1047B0000E9426250E9406250E9433330E949132D2
:1047C00085E090E00E949F2381110E9404220E94B4
:1047D0001E210E9437258093FE0387E090E00E940F
:1047E0009F238823C1F18BE190E00E949F238823BF
:1047F00051F08091FE0381FB222720F991E092275E
:1048000090FB81F90FC08EE090E00E949F238823E7
:1048100061F08091FE0382FB222720F991E092272C
:1048200090FB82F98093FE0316C080E190E00E9425
:104830009F239091FE03882341F093FB222720F9C8
:1048400081E0822780FB93F904C0892F809580FB4B
:1048500090F99093FE038091FE030E943B250E94F5
:1048600049258093410480EE90E00E949F23882395
:1048700041F080914104982F909590FB80F98093AE
:10488000410489E390E00E949F23882359F080919E
:10489000410481FB222720F991E0922790FB81F9C6
:1048A0008093410482EE90E00E949F23882359F078
:1048B0008091410482FB222720F991E0922790FB0E
:1048C00082F98093410486EE90E00E949F23882322
:1048D00059F08091410483FB222720F991E092272F
:1048E00090FB83F98093410483EE90E00E949F2324
:1048F000882359F08091410484FB222720F991E01C
:10490000922790FB84F98093410485E390E00E9414
:104910009F23882359F08091410485FB222720F9A9
:1049200091E0922790FB85F98093410481E390E028
:104930000E949F23882359F08091410486FB2227FF
:1049400020F991E0922790FB86F98093410481E160
:1049500090E00E949F23882359F08091410487FBB7
:10496000222720F991E0922790FB87F98093410458
:10497000809141040E944D258091410487FB882746
:1049800080F980930C0187E290E00E949F23C82F5A
:104990008EE190E00E949F238111C2608FE190E040
:1049A0000E949F238111C46080E290E00E949F23B7
:1049B0008111C86081E290E00E949F238111C06153
:1049C00082E290E00E949F238111C06283E290E026
:1049D0000E949F238111C06484E290E00E949F2383
:1049E000882311F0C06802C0CC2329F08C2F0E94CC
:1049F00044256C2F03C00E944025682F70E080E0A2
:104A000090E0CF910C94E01DCF9108956DEE7EEF74
:104A100080E090E00E942F3560E082E090E00E940C
:104A2000213560E083E090E00E94213560E084E081
:104A300090E00E94213560E085E090E00E94213501
:104A40006091400386E090E00C9421356FEF7FEF9A
:104A500080E090E00C942F3580E090E00E941B35C0
:104A600021E08D3E9E4F09F020E0822F089582E0E4
:104A700090E00C941335682F82E090E00C9421357F
:104A800083E090E00C941335682F83E090E00C9461
:104A9000213584E090E00C941335682F84E090E099
:104AA0000C94213586E090E00C941335682F86E055
:104AB00090E00C9421358091060480FF0BC060913A
:104AC000120185E0689FB001112475956795759571
:104AD00067952BC081FF09C06091120185E0689F36
:104AE000B00111247595679520C082FF07C06091C1
:104AF000120185E0689FB001112417C0909107044E
:104B00009923D1F060911101961788F72091120135
:104B100085E0289F90011124929FA001939F500D42
:104B2000112470E0CA010E94E5346038710540F438
:104B30006115710539F002C065E070E0862F0895B7
:104B40008FE7089581E008958091060480FF08C0F2
:104B50006091100170E0759567957595679521C016
:104B600081FF06C06091100170E07595679519C0CE
:104B700082FF04C06091100170E010C090910704A2
:104B80009923C1F060910F019617A0F78091100151
:104B9000899FC001112470E00E94E53460387105DE
:104BA00028F46115710521F0862F08958FE7089587
:104BB00081E0089561E070E0F4CF803F21F40E942D
:104BC0005B25819504C0813F29F40E945B25809379
:104BD0000A040895823F21F40E945B25819504C058
:104BE000833F29F40E945B25809309040895893F3F
:104BF00019F40E94A42505C08A3F31F40E94A4251F
:104C0000819580930B0408958B3F21F40E94A42585
:104C1000819504C08C3F29F40E94A42580930C0444
:104C20000895843F21F480910804816017C0853F76
:104C300021F480910804826011C0863F21F48091A4
:104C4000080484600BC0873F21F4809108048860C9
:104C500005C0883F31F48091080480618093080486
:104C600008958D3F21F48091060481600BC08E3F32
:104C700021F480910604826005C08F3F29F4809161
:104C800006048460809306040895803F39F480917F
:104C90000A0487FF6CC010920A0469C0813F29F49E
:104CA00080910A041816BCF362C090910904823FF7
:104CB00029F497FF5CC01092090459C0833F19F48E
:104CC0001916CCF354C0893F41F480910B04181697
:104CD0000CF04DC010920B044AC08A3F29F4809119
:104CE0000B0487FF44C0F6CF8B3F39F480910C044E
:104CF00087FF3DC010920C043AC08C3F29F480918C
:104D00000C041816BCF333C0843F21F480910804CE
:104D10008E7F17C0853F21F4809108048D7F11C0DC
:104D2000863F21F4809108048B7F0BC0873F21F4DC
:104D300080910804877F05C0883F31F48091080482
:104D40008F7E8093080413C08D3F21F48091060468
:104D50008E7F0BC08E3F21F4809106048D7F05C0AD
:104D60008F3F29F4809106048B7F80930604809105
:104D7000090481110EC080910A0481110AC080913A
:104D80000B04811106C080910C04811102C01092A5
:104D9000070408958091FE0383FF7EC087ED95E0B0
:104DA0000E94B607809108041F928F9382ED95E0D0
:104DB0009F938F930E944F0880ED95E00E94B60765
:104DC00080910904282F082E000C330B3F938F93FA
:104DD0008DEC95E09F938F930E944F088BEC95E0AC
:104DE0000E94B60780910A04282F082E000C330B6E
:104DF0003F938F9388EC95E09F938F930E944F0889
:104E000086EC95E00E94B60780910B04282F082EAF
:104E1000000C330B3F938F9383EC95E09F938F931C
:104E20000E944F0881EC95E00E94B60780910C0427
:104E3000282F082E000C330B3F938F938EEB95E0B9
:104E40009F938F930E944F088BEB95E00E94B607CB
:104E5000809107041F928F9388EB95E09F938F9327
:104E60000E944F0886EB95E00E94B60780910604E9
:104E70001F928F9383EB95E09F938F930E944F082F
:104E800080EB95E00E94B6078DB79EB74C960FB6A3
:104E9000F8949EBF0FBE8DBF88E094E00E94AA13D5
:104EA0000E949D21909305048093040408951F930C
:104EB000CF93DF9380910404909105040E94B52163
:104EC000AC0190910704992321F02091130130E067
:104ED00006C0209114018AE0289F900111244217F6
:104EE000530708F485C080910904C0910A04D09149
:104EF0000B0410910C04811107C0C11175C0D111B0
:104F000073C0111171C074C09F3F19F09F5F9093DF
:104F10000704181624F40E945B25809309048091ED
:104F2000090487FF05C00E945B25819580930904D1
:104F30001C1624F40E945B2580930A0480910A04C5
:104F400087FF05C00E945B25819580930A046091CC
:104F50000904662331F1C0910A04CC2311F1062E15
:104F6000000C770B880B990B0E94EC3323E333E39F
:104F700043E35FE30E9450340E94B433609309041A
:104F80006C2FCC0F770B880B990B0E94EC3323E32B
:104F900033E343E35FE30E9450340E94B4336093F1
:104FA0000A041D1624F40E94A42580930B0480910A
:104FB0000B0487FF05C00E94A425819580930B04F4
:104FC000111624F40E94A42580930C0480910C04F3
:104FD00087FF05C00E94A425819580930C04DF9172
:104FE000CF911F910C94CA269F3F09F08FCF97CF86
:104FF000DF91CF911F910895E8E0F4E085E0DF01B3
:105000001D928A95E9F710920704109206040895FC
:105010008AEF97E00E94B6071F9281E08F931F925C
:1050200085E08F938CEA97E09F938F930E944F08BF
:105030000F900F900F900F900F900F900895833066
:10504000E9F128F4813061F0823009F1089585306A
:1050500009F462C008F449C0863009F474C00895A8
:1050600080911401262F30E0280F311D2F3F31058C
:1050700024F4680F6093140103C08FEF8093140130
:10508000809114011F928F9385EE96E072C08091FB
:105090001301262F30E0280F311D2F3F310524F456
:1050A000680F6093130103C08FEF80931301809109
:1050B00013011F928F9383ED96E05BC080911201E4
:1050C000262F30E0280F311D2F3F310524F4680FC3
:1050D0006093120103C08FEF80931201809112013F
:1050E0001F928F9380EC96E044C080911101262F8F
:1050F00030E0280F311D2F3F310524F4680F6093F5
:10510000110103C08FEF80931101809111011F9253
:105110008F938BEA96E02DC080911001262F30E00E
:10512000280F311D2F3F310524F4680F60931001C3
:1051300003C08FEF80931001809110011F928F9315
:1051400082E996E016C080910F01262F30E0280FEB
:10515000311D2F3F310524F4680F60930F0103C008
:105160008FEF80930F0180910F011F928F9387E73C
:1051700096E09F938F930E944F080F900F900F908F
:105180000F900895833081F128F4813059F08230F6
:10519000D1F00895853009F449C0B8F1863009F49A
:1051A00056C0089580911401681720F4861B8093DF
:1051B000140102C010921401809114011F928F9368
:1051C00088E696E054C080911301681720F4861B8E
:1051D0008093130102C010921301809113011F925A
:1051E0008F9386E596E043C080911201681720F402
:1051F000861B8093120102C010921201809112014D
:105200001F928F9383E496E032C08091110168175A
:1052100020F4861B8093110102C01092110180912D
:1052200011011F928F938EE296E021C080911001B0
:10523000681720F4861B8093100102C010921001A1
:10524000809110011F928F9385E196E010C08091AC
:105250000F01681720F4861B80930F0102C0109283
:105260000F0180910F011F928F938AEF95E09F931A
:105270008F930E944F080F900F900F900F900895FA
:10528000CF93C82F1F928F938FEF98E09F938F93A8
:105290000E944F0881E090E0A0E0B0E0BC01CD01A9
:1052A00004C0660F771F881F991FCA95D2F70E9406
:1052B000E01D0F900F900F900F90CF910C94EC1970
:1052C000CF938B3109F409C208F049C08E3009F43C
:1052D00018C200F5873009F4E7C1A8F4863009F058
:1052E00098C28091FE03817F8E7F8093FE0384E0CD
:1052F00099E00E94B6078AEC9DE00E94B60781E023
:1053000080930E04CFC1883009F45BC08B3009F460
:10531000C5C17FC2813109F464C220F4803109F42F
:1053200004C277C2863109F41BC2893109F071C207
:105330008EE39DE00E94B6078CE09DE00E94B607D8
:1053400088EC9CE00E94B60781EA9CE00E94B607C8
:105350008FE09CE00E94B60781EE9BE0A1C18533FF
:1053600009F451C268F4873209F44DC228F48E3131
:1053700008F44FC28D514AC2893209F444C249C26D
:10538000833438F48A3308F040C2883309F486C184
:1053900040C2833409F437C2883409F03AC20E940B
:1053A000EC1989EB9DE00E94B6079FEF23ED80E3A7
:1053B000915020408040E1F700C000000E9404228C
:1053C00071C18EEC9DE00E94B6078EE39BE00E94C7
:1053D000B6070E9440251F928F938BE39BE09F931B
:1053E0008F930E944F0889E39BE00E94B6070E94BA
:1053F0003725C82F86E29BE00E94B6071F92CF9305
:1054000081E29BE09F938F930E944F088FE19BE086
:105410000E94B60785E19BE00E94B6078C2F817041
:105420001F928F9382E19BE09F938F930E944F087E
:1054300080E19BE00E94B60786E09BE00E94B607F1
:10544000C1FB882780F91F928F9383E09BE09F9395
:105450008F930E944F0881E09BE00E94B60785EF82
:105460009AE00E94B607C2FB882780F91F928F93AB
:1054700082EF9AE09F938F930E944F0880EF9AE00B
:105480000E94B60787EE9AE00E94B607C3FBCC27BE
:10549000C0F91F92CF9384EE9AE09F938F930E945E
:1054A0004F0882EE9AE00E94B6070E944925C82F55
:1054B0008EEC9AE00E94B6071F92CF9389EC9AE097
:1054C0009F938F930E944F0887EC9AE00E94B60743
:1054D0008EEA9AE00E94B6078C2F81701F928F93FC
:1054E0008BEA9AE09F938F930E944F088DB79EB7E7
:1054F00080960FB6F8949EBF0FBE8DBF89EA9AE0E2
:105500000E94B60782E99AE00E94B607C1FB88278D
:1055100080F91F928F938FE89AE09F938F930E9458
:105520004F088DE89AE00E94B6078BE79AE00E9448
:10553000B607C2FB882780F91F928F9388E79AE00D
:105540009F938F930E944F0886E79AE00E94B607C8
:1055500084E69AE00E94B607C3FB882780F91F9271
:105560008F9381E69AE09F938F930E944F088FE577
:105570009AE00E94B60785E59AE00E94B607C4FB50
:10558000882780F91F928F9382E59AE09F938F93EB
:105590000E944F0880E59AE00E94B6078EE39AE0E9
:1055A0000E94B607C5FB882780F91F928F938BE373
:1055B0009AE09F938F930E944F0889E39AE00E949C
:1055C000B6078DE19AE00E94B607C6FB882780F9EE
:1055D0001F928F938AE19AE09F938F930E944F08C6
:1055E00088E19AE00E94B60780E19AE00E94B6073F
:1055F000C7FBCC27C0F91F92CF938DE09AE09F9311
:105600008F930E944F088BE09AE00E94B6070E9499
:105610005225C82F84EF99E00E94B6071F92CF93BE
:105620008FEE99E09F938F930E944F088DB79EB79E
:1056300080960FB6F8949EBF0FBE8DBF8DEE99E099
:105640000E94B60783EE99E00E94B6078C2F817006
:105650001F928F9380EE99E09F938F930E944F0843
:105660008EED99E00E94B60785ED99E00E94B6079D
:10567000C6951F92CF9382ED99E09F938F930E94DE
:105680004F0880ED99E00E94B6078DB79EB7089647
:105690000FB6F8949EBF0FBE8DBF04C08BE299E099
:1056A0000E94B607C1E0BAC08091FE03C82FC17046
:1056B00080FF09C08CEA9DE00E94B6078091FE033E
:1056C000817F8E7F47C080EA9DE00E94B60780916F
:1056D000FE0381608093FE03E5CF9091FE0391FB72
:1056E000CC27C0F981E0C827892FC0FB81F98093BE
:1056F000FE03CC2319F083E99DE027C085E89DE0F7
:10570000CFCF9091FE0392FBCC27C0F981E0C82750
:10571000892FC0FB82F98093FE03CC2319F086E722
:105720009DE013C086E69DE0BBCF9091FE0393FB06
:10573000CC27C0F981E0C827892FC0FB83F980936B
:10574000FE03CC2351F08AE59DE00E94B6078091CC
:10575000FE0381608093FE0361C08DE49DE0A0CFD5
:1057600083ED9BE00E94B6070E9455131F928F9312
:1057700089EB9BE09F938F930E944F0880910B01D0
:105780001F928F9382EA9BE09F938F930E944F0812
:10579000809188031F928F938FE89BE09F938F9354
:1057A0000E944F0880910C011F928F938CE79BE021
:1057B0009F938F930E944F080E94A9219F938F93DC
:1057C0007F936F9385E69BE09F938F930E944F0892
:1057D0008DB79EB746960FB6F8949EBF0FBE8DBF8D
:1057E00061CF0E94EC19C0910C0181E0C827C093E1
:1057F0000C01CC2329F08BE59BE00E94B6070EC07C
:1058000080E59BE04DCF80E001C089530E94402994
:1058100049CF8EE49BE00E94B607C0E08C2FCF9169
:10582000089580E0089580E00895CF93C82F809177
:105830000E04813071F020F0823009F44BC042C177
:10584000E0910D01F0910E018081823209F03CC19E
:1058500007C0E0910D01F0910E018081823261F468
:105860008C2F0E94112C811104C08C2F0E94602962
:105870002FC081E090E02CC08C2F0E94132C81114E
:1058800026C0C431E1F070F4CB3081F0C031D1F4E6
:105890000E94082887EF98E00E94B60782E0809374
:1058A0000E0415C0C93259F0C83361F484E099E0A0
:1058B0000E94B6078BEF98E00E94B60708C01092CE
:1058C0000E0404C185EF98E00E94B607FFC081E096
:1058D0008170FEC0C43228F5CE3108F0C1C0CB3093
:1058E000A1F1D0F4C73009F0D3C08EE18093140148
:1058F00082E3809313018AE08093120184E1809314
:10590000110188E08093100188E280930F018BE9F8
:1059100097E00E94B607BFC0C33149F1C431C1F05E
:10592000B7C0CB3409F4A9C028F4C93289F0C83310
:1059300061F0AEC0C13509F49EC0C23509F499C00A
:10594000CE3409F0A5C06AE09EC00E940828A3C01A
:1059500080910D04882319F010920D049CC088EAF0
:1059600097E00E94B60781E080930E04B1C082E800
:1059700097E00E94B60780E797E00E94B607809103
:1059800014011F928F938DE697E09F938F930E944F
:105990004F088BE697E00E94B60789E597E00E94E2
:1059A000B607809113011F928F9386E597E09F932E
:1059B0008F930E944F0884E597E00E94B60785E424
:1059C00097E00E94B607809112011F928F9382E4A4
:1059D00097E09F938F930E944F0880E497E00E9486
:1059E000B6078FE297E00E94B607809111011F92DF
:1059F0008F938CE297E09F938F930E944F088AE2E7
:105A000097E00E94B60785E197E00E94B607809173
:105A100010011F928F9382E197E09F938F930E94D2
:105A20004F0880E197E00E94B60789EF96E00E9458
:105A3000B60780910F011F928F9386EF96E09F9398
:105A40008F930E944F0884EF96E00E94B6078DB7AF
:105A50009EB748960FB6F8949EBF0FBE8DBF1BC071
:105A6000CE51EC2FF0E0EA5CFC4F808180930D0476
:105A700012C061E003C061E006C06AE080910D04DD
:105A80000E941F2808C080910D040E94C22803C0F4
:105A900089E997E013C080910D04882369F01F9273
:105AA0008F9383E997E09F938F930E944F080F9005
:105AB0000F900F900F9004C080E997E00E94B60706
:105AC00081E006C010920E0480E002C080E000CFAA
:105AD000CF910895E1E8F0E0808188608083808143
