:100000000C94E5050C9429060C9429060C942906F9
:100010000C9429060C9429060C9429060C942906A4
:100020000C9429060C9429060C94700E0C94420F23
:100030000C94CF1E0C9429060C9429060C942906C6
:100040000C9429060C94CA2B0C9429060C942906AE
:100050000C9429060C94421F0C9429060C94290632
:100060000C9429060C9429060C9429060C94290654
:100070000C9429060C9429060C9429060C94290644
:100080000C9429060C9429060C9429060C94290634
:100090000C9429060C9429060C9429060C94290624
:1000A0000C9429060C9429060C942906A20FC20F61
:1000B0007A10C20F7A10041027107A1049105C10C1
:1000C000E513E513131413146F14AB141017101762
:1000D000C3141017BA15BA1576168A161017FE161D
:1000E000016202620162026200F1A100D200D1004D
:1000F000D001F101F201F401F500D301F301F0297F
:10010000CA3A3B3C3D3E3F40414243444546474856
:10011000351E1F20212223242526272D2E2A494A39
:100120004B2B141A0815171C180C12132F30314CB6
:100130004D4E39041607090A0B0D0E0F33340028F3
:10014000000000E1001D1B0619051110363738E5C7
:1001500000C852C9E0E3E200000000002C00C0E645
:1001600065E450514F01010101010101010101014B
:10017000010101010101010101010101010101016F
:10018000010101010101010101520101010101010E
:1001900001010101010101010150514F0101010162
:1001A00001010101010101000001010101C2C1C3FE
:1001B000AAA9A80101010101C50101010100000175
:1001C0000000010001CA0101C6C4C70A0025303180
:1001D0003662003A200025303258000A722F632020
:1001E000303132333435363738394142434445466D
:1001F0000A000A002530325800626F756E6365216F
:100200003A2000001080FF0103002010805B735D26
:10021000004B6579626F6172642073746172742E31
:100220000A0055534220636F6E6669677572656494
:100230002E0A005B575D005B535D005B525D005B07
:10024000445D005B435D000A002530325820006B9E
:100250006579626F6172645F7265706F72743A2063
:10026000004C45443A20253032580A0064656C5FE2
:100270006B65795F6269743A2063616E27742064EC
:10028000656C3A20253032580A006164645F6B6502
:10029000795F6269743A2063616E277420616464D7
:1002A0003A20253032580A00646F6E652E0A0062CB
:1002B0006F6F746D61676963207363616E3A202E9E
:1002C0002E2E2000290A002575002F002575005DBF
:1002D00028002564002000256400200025640020FB
:1002E000002564007C0025303258006D6F75736501
:1002F0006B6579205B62746E7C782079207620684B
:100300005D287265702F61636C293A205B006D6B0C
:100310005F776865656C5F74696D655F746F5F6D4D
:100320006178203D2025640A006D6B5F7768656504
:100330006C5F6D61785F7370656564203D20256436
:100340000A006D6B5F74696D655F746F5F6D6178D6
:10035000203D2025640A006D6B5F6D61785F7370CE
:10036000656564203D2025640A006D6B5F696E74CD
:10037000657276616C203D2025640A006D6B5F64B8
:10038000656C6179203D2025640A006D6B5F77689C
:1003900065656C5F74696D655F746F5F6D61782012
:1003A0003D2025640A006D6B5F776865656C5F6D45
:1003B00061785F7370656564203D2025640A006D77
:1003C0006B5F74696D655F746F5F6D6178203D2050
:1003D00025640A006D6B5F6D61785F73706565649D
:1003E000203D2025640A006D6B5F696E746572762E
:1003F000616C203D2025640A006D6B5F64656C6153
:1004000079203D2025640A000A00257500363A202F
:10041000776865656C5F74696D655F746F5F6D614A
:10042000783A20000A00257500353A20776865651E
:100430006C5F6D61785F73706565643A20000A00D7
:10044000257500343A2074696D655F746F5F6D6166
:10045000783A20000A00257500333A206D61785FF4
:1004600073706565643A20000A00257500323A20F1
:10047000696E74657276616C286D73293A20000A82
:1004800000257500313A2064656C6179282A313085
:100490006D73293A20000A092D2056616C75657329
:1004A000202D0A004D3E004D25643E20003F007384
:1004B00065742064656661756C740A00433E2000B3
:1004C00077686572652064656C74613A2063757243
:1004D000736F723D25642C20776865656C3D2564DB
:1004E0000A53656520687474703A2F2F656E2E77F5
:1004F000696B6970656469612E6F72672F77696BCC
:10050000692F4D6F7573655F6B6579730A000A0912
:100510002D204D6F7573656B6579202D0A4553430A
:100520002F713A09717569740A313A0964656C6111
:1005300079282A31306D73290A323A09696E746557
:100540007276616C286D73290A333A096D61785FA0
:1005500073706565640A343A0974696D655F746F18
:100560005F6D61780A353A09776865656C5F6D6122
:10057000785F73706565640A363A09776865656CFB
:100580005F74696D655F746F5F6D61780A0A703AB8
:10059000097072696E742076616C7565730A643ACD
:1005A000097365742064656661756C74730A75708F
:1005B0003A092B310A646F776E3A092D310A706758
:1005C00075703A092B31300A7067646F776E3A099B
:1005D0002D31300A0A7370656564203D2064656CB6
:1005E0007461202A206D61785F7370656564202ACC
:1005F0002028726570656174202F2074696D655FB5
:10060000746F5F6D6178290A003F004D3E20004302
:100610003E20004C25640A000A092D20436F6E73AA
:100620006F6C65202D0A4553432F713A0971756926
:10063000740A6D3A096D6F7573656B65790A000A06
:10064000092D204D61676963202D0A643A096465AC
:100650006275670A783A096465627567206D61742E
:100660007269780A6B3A096465627567206B65790F
:10067000626F6172640A6D3A096465627567206D24
:100680006F7573650A763A0976657273696F6E0ADB
:10069000733A097374617475730A633A09636F6E10
:1006A000736F6C65206D6F64650A302D343A096C88
:1006B00061796572302D34284631302D4634290A4F
:1006C000506175733A09626F6F746C6F6164657223
:1006D0000A653A09656570726F6D0A6E3A094E4B8C
:1006E000524F0A000A002575002E6C6576656C3A3B
:1006F00020000A002575002E656E61626C653A2047
:10070000000A0025303258006261636B6C696768CB
:10071000745F636F6E6669672E7261773A20000AB4
:10072000002575002E6E6B726F3A20000A00257549
:10073000002E737761705F6261636B736C617368C5
:100740005F6261636B73706163653A20000A002524
:1007500075002E737761705F67726176655F657390
:10076000633A20000A002575002E6E6F5F67756979
:100770003A20000A002575002E737761705F726160
:100780006C745F726775693A20000A002575002E47
:10079000737761705F6C616C745F6C6775693A2028
:1007A000000A002575002E636170736C6F636B5FC8
:1007B000746F5F636F6E74726F6C3A20000A00256D
:1007C00075002E737761705F636F6E74726F6C5F0C
:1007D000636170736C6F636B3A20000A00253032DE
:1007E00058006B65796D61705F636F6E6669672E27
:1007F0007261773A20000A002575002E6D6F7573BF
:10080000653A20000A002575002E6B6579626F61DC
:1008100072643A20000A002575002E6D61747269B9
:10082000783A20000A002575002E656E61626C65BD
:100830003A20000A00253032580064656275675F0F
:10084000636F6E6669672E7261773A20000A002531
:10085000750064656661756C745F6C617965723A88
:1008600020003F004E4B524F3A206F66660A004E02
:100870004B524F3A206F6E0A0074696D65725F7259
:10088000656164333228293A202530346C580A00D7
:100890006B6579626F6172645F6E6B726F3A20256F
:1008A000580A006B6579626F6172645F69646C6598
:1008B0003A2025580A006B6579626F6172645F7037
:1008C000726F746F636F6C3A2025580A00686F73FB
:1008D000745F6B6579626F6172645F6C65647328C5
:1008E000293A2025580A000A092D2053746174758D
:1008F00073202D0A004743433A20342E382E3220ED
:100900004156522D4C4942433A20312E382E302048
:100910004156525F415243483A20617672350A008F
:100920004F5054494F4E533A204C55464120424F68
:100930004F544D41474943204D4F5553454B455921
:100940002045585452414B455920434F4E534F4C2C
:100950004520434F4D4D414E44204E4B524F204B6E
:1009600045594D41505F494E5F454550524F4D20CE
:100970004C45444D4150204C45444D41505F494EFB
:100980005F454550524F4D204241434B4C494748EB
:100990005420534F465450574D5F4C4544204252CB
:1009A00045415448494E475F4C4544203430393620
:1009B0000A004255494C443A20756E6B6E6F776E53
:1009C000202830313A34353A3439204170722020B1
:1009D000332032303138290A005649443A203078E1
:1009E0004344434428786975646929205049443A4E
:1009F000203078383738372858443837292056453A
:100A0000523A203078303030310A00444553433A6E
:100A100020742E6D2E6B2E206B6579626F6172646F
:100A2000206669726D7761726520666F7220584426
:100A300038370A000A092D2056657273696F6E20D7
:100A40002D0A000A6D6F7573653A206F66660A009D
:100A50000A6D6F7573653A206F6E0A000A6B6579CF
:100A6000626F6172643A206F66660A000A6B65798C
:100A7000626F6172643A206F6E0A000A6D6174726F
:100A800069783A206F66660A000A6D617472697847
:100A90003A206F6E0A000A64656275673A206F6ECD
:100AA0000A000A64656275673A206F66660A000A82
:100AB0000A626F6F746C6F616465722E2E2E200057
:100AC000433E20006565636F6E6669673A0A000001
:100AD000000000000000000000010101020202030A
:100AE00003040405050606070808090A0B0B0C0D8C
:100AF0000E0F10111213151617191A1B1D1E202286
:100B0000232527292B2D2F313335383A3D3F4244B9
:100B1000474A4D505356595C5F6266696C707477F2
:100B20007B7E82868A8E9195999DA1A5A9ADB0B450
:100B3000B8BCC0C3C7CBCED2D5D8DBDFE2E4E7EA8E
:100B4000ECEFF1F3F5F7F8FAFBFCFDFEFFFFFF52C7
:100B50004742204C4544204C6576656C3A2025641C
:100B60000A006261636B6C696768742073746570F6
:100B70003A2025750A006261636B6C6967687420AE
:100B8000746F67676C653A2025750A006261636B54
:100B90006C6967687420637573746F6D2064656336
:100BA00072656173653A2025750A006261636B6C3A
:100BB0006967687420637573746F6D20696E637202
:100BC000656173653A2025750A0011241FBECFEFB9
:100BD000DAE0DEBFCDBF04B603FE24C080919104ED
:100BE00090919204A0919304B09194048730904B1B
:100BF000A740B04BB9F41092910410929204109255
:100C000093041092940414BE84B7877F84BF88E154
:100C10000FB6F89480936000109260000FBEE0E081
:100C2000F8E3099513E0A0E0B1E0E4EEFBE602C0D2
:100C300005900D92A032B107D9F714E0A0E2B3E01D
:100C400001C01D92A139B107E1F70E94310C0C944B
:100C5000F0350C940000FF93EF93E0912003F091A6
:100C60002103309709F00995EF91FF910895FC0158
:100C70008591803011F0EFDFFBCF0895FF27E0E290
:100C800030E247FF0CC0419597FF09C0EDE2609547
:100C9000709580959095611D711D811D911D27FF97
:100CA00002C0219530E350E2AA27660F771F881F04
:100CB000991FAA1FA41710F0A41B63955A95A9F7B2
:100CC000AA3008F0A95FA05DAF93F3956115710597
:100CD0008105910541F7ED3211F4EF93F395F21789
:100CE00018F43F93F395FBCF8F91B5DFFA95E1F7B9
:100CF0000895E991F9918591803021F0853219F0BC
:100D0000AADFF9CF089520E0E89455915532C1F358
:100D1000503311F4689455915A3348F4505390F37A
:100D2000220F022E220F220F200D250FF4CF0EF4DA
:100D3000219589919991533619F3533729F15335F8
:100D400059F1BC0188279927E8945C3621F48991F0
:100D5000999168945591543639F446EF7EF077FFB7
:100D60000DC08FEF9FEF0AC055374AE039F0583574
:100D700040E121F0523642E009F00895FF93EF93ED
:100D80007DDFEF91FF91B7CFFF93EF93FC0181914E
:100D90008030B9F360DFFBCFFF93EF9368DFF1CFD3
:100DA000DF93CF93CDB7DEB72596A3DFCF91DF9149
:100DB00008958CEC90E008958BE090E00895611127
:100DC00007C0FC018281882319F080EE90E008952D
:100DD00080E090E008950F931F93CF93DF93EC0191
:100DE000062F142F611117C08A81882371F00E9489
:100DF000FD1D827211F085E301C089E28093220318
:100E0000809122030E946E1204C0809122030E94EE
:100E100041130E94311E8A818823B1F10130A1F56E
:100E20001230F1F050F41123A9F0113069F5DF917F
:100E3000CF911F910F910C94D52E1430E9F0B0F0A2
:100E4000153011F561E08EE1DF91CF911F910F9187
:100E50000C94652FDF91CF911F910F910C94CE2EA2
:100E6000DF91CF911F910F910C94F12EDF91CF91D3
:100E70001F910F910C94082F61E08EE1DF91CF91CB
:100E80001F910F910C94542FDF91CF911F910F91CF
:100E90000895462F672F0C94C033805C0E94B433B2
:100EA00008958FEF90E0089589EE90E008955198AD
:100EB000599884B18C7F84B985B18C7F85B93F986E
:100EC00047988AB1877D8AB98BB1877D8BB90895A0
:100ED00086E0089581E1089580E885BF85BF0E947E
:100EE000570780B38C7080BB81B3836F81BB6E98D2
:100EF000769A8AB18B728AB98BB1846D8BB93E9820
:100F0000469A84B1837884B985B18C6785B9EBE35F
:100F1000F3E0A3E2B3E011921192119211921D92AB
:100F20001D921D921D9283E0E335F807A1F7089505
:100F3000EF92FF921F93CF93DF93C3E2D3E010E0D1
:100F4000133099F028F4113051F0123059F004C0E8
:100F5000143071F0153079F0519A59980EC0209ADA
:100F600028980BC0219A299808C03F9A479805C035
:100F7000539A5B9802C0559A5D9880EA8A95F1F77A
:100F80008CB1829586958695837091E0892780FB48
:100F9000EE24E0F8F12C789B03C060E070E002C022
:100FA00062E070E09B012E293F29799B03C060E03D
:100FB00070E002C064E070E0622B732B7C9B03C086
:100FC00040E050E002C048E050E09B01242B352B6C
:100FD0007D9B03C080E090E002C080E190E0282B80
:100FE000392B7E9B03C080E090E002C080E290E05D
:100FF000282B392B8FB1992787FD90958095909557
:101000008827990F881F992756E0880F991F5A95AE
:10101000E1F7282B392B1D9B03C0E0E0F0E002C074
:10102000E0E8F0E02E2B3F2B1E9B03C0E0E0F0E059
:1010300002C0E0E0F1E0E22BF32B369B03C060E05E
:1010400070E002C060E072E0AF01462B572B4C9B72
:1010500003C080E090E002C080E094E0482B592B70
:101060004E9B03C080E090E002C080E098E0482BF7
:10107000592B89B1992787FD909580959095882760
:10108000990F881F9927982F88279295907F482B32
:10109000592B1C9B03C020E030E002C020E030E26E
:1010A000422B532B1A9B03C020E030E002C020E00B
:1010B00030E4422B532B662757FD6095762F1B9B00
:1010C00004C080E090E0DC0104C080E090E8A0E093
:1010D000B0E0842B952BA62BB72B4A9B04C040E095
:1010E00050E0BA0104C040E050E061E070E0842BC1
:1010F000952BA62BB72B488159816A817B81481794
:1011000059076A077B0769F188839983AA83BB83A0
:1011100080910001882311F18091DC0380FF04C0DD
:1011200089EF91E00E9437068091DC0380FF0EC0BA
:10113000809100011F928F9384EF91E09F938F9392
:101140000E94D0060F900F900F900F908091DC03BB
:1011500080FF04C082EF91E00E94370685E0809313
:1011600000010E9457071F5F2496163009F0E8CE51
:10117000809100018823E1F0815080930001882351
:1011800039F08FE99FE00197F1F700C0000010C02F
:10119000CBE3D3E0E3E2F3E081919191A191B191AE
:1011A00089939993A993B99393E0EB33F907A1F746
:1011B00081E0DF91CF911F91FF90EF90089594E02F
:1011C000899FF0011124E55CFC4F6081718182816F
:1011D00093810895CF92DF92EF92FF920F931F9326
:1011E000CF93DF938BED91E00E9437066BE3E62E01
:1011F00063E0F62EC0E0D0E076EDC72E71E0D72E8A
:101200000DEC11E0DF93CF93DF92CF920E94D006D6
:1012100083ED91E00E943706F70181919191A191B0
:10122000B1917F010E946E1E9F938F931F930F9326
:101230000E94D0068BEC91E00E94370621968DB774
:101240009EB708960FB6F8949EBF0FBE8DBFC630EE
:10125000D105C1F6DF91CF911F910F91FF90EF90D3
:10126000DF90CF900895CF93C82F0E94F42AC73003
:10127000A0F4C430F0F4C130A0F10E94292B0E94E8
:101280008E2B0E94C22BEC2FF0E0ED5FFD4F84917E
:1012900080935303CF910C94432BC730A9F0C830EF
:1012A00001F50E94292B0E94882B0E94C22B81E00D
:1012B00012C00E94292B0E948E2B0E94BC2B86E01C
:1012C0008C1BCF910C94C72B0E94292B0E94882B3A
:1012D0000E94C22B80E00E94A32B83E0CF910C944C
:1012E000B22B0E948E2B0E94C22B1092530380E0DF
:1012F0000E94432BCF910C942F2B1F93CF93DF93FE
:1013000000D000D01F92CDB7DEB7162F8091900489
:1013100080FF20C08E7F8E3041F4662331F080E460
:101320000E94B52B80E20E94792B809190048E7FE1
:10133000803181F4112371F080E40E94B52B80E2AA
:101340000F900F900F900F900F90DF91CF911F9102
:101350000C945E2B0F900F900F900F900F90DF91D9
:10136000CF911F910895089560E0FC0180810C9455
:101370003A2F60E0FC0180810C943A2FE82FF0E0D6
:10138000EE0FFF1FE95FFD4F8591949108958091C5
:101390006503089590918604943009F051C09091AE
:1013A000E9009F702091EC0020FF02C020E801C0FE
:1013B00020E0292B94E09093E9009091EB0090FFBE
:1013C0003CC09091EE0097FF38C090915403992350
:1013D00021F09091E80095FF30C01092540396E000
:1013E0003091E80035FD15C030918604343029F580
:1013F0003091EB0035FD21C0915021F481E08093C4
:1014000054031BC0EFE9FFE03197F1F700C0000083
:10141000E7CF8093F1008091E80085FD09C08091BD
:10142000E80080FFFCCF8091E8008E778093E80091
:101430002F702093E90080E008952F702093E90039
:101440008FEF0895CF93DF9300D01F92CDB7DEB713
:1014500020918604243019F523E029839B838A8315
:101460002093E9008FEF9091E800815095FD06C030
:1014700095ED9A95F1F700008111F5CF8091E80084
:1014800085FF0DC040E050E063E070E0CE010196C2
:101490000E94E80C8091E8008E778093E8000F901E
:1014A0000F900F90DF91CF910895CF93DF9300D0ED
:1014B0001F92CDB7DEB720918604243021F522E0BB
:1014C00029839B838A8383E08093E9008FEF909147
:1014D000E800815095FD06C095ED9A95F1F7000062
:1014E0008111F5CF8091E80085FF0DC040E050E00C
:1014F00063E070E0CE0101960E94E80C8091E80064
:101500008E778093E8000F900F900F90DF91CF912E
:101510000895209186042430F1F422E02093E9001C
:101520002FEF3091E800215035FD06C035ED3A959A
:10153000F1F700002111F5CF2091E80025FF0BC045
:1015400040E050E065E070E00E94E80C8091E80027
:101550008E778093E8000895CF93DF93EC0180911C
:101560008604843009F047C080910B018823E1F0A4
:1015700080910C018823C1F086E08093E9008FEF11
:101580009091E800815095FD06C095E19A95F1F79C
:1015900000008111F5CF8091E80085FF2CC040E06C
:1015A00050E060E170E017C081E08093E9008FEFC8
:1015B0009091E800815095FD06C095ED9A95F1F760
:1015C00000008111F5CF8091E80085FF14C040E054
:1015D00050E068E070E0CE010E94E80C8091E800E5
:1015E0008E778093E80080E1FE01A5E5B3E00190ED
:1015F0000D928A95E1F7DF91CF91089583E492E00F
:101600000E94370680918504811109C00E94F70D60
:101610000E94520E8091E20084608093E20008955F
:101620008FE392E00E9437061092850408958BE3C1
:1016300092E00C94370680918604843061F58091A5
:10164000E9009091EC0090FF02C020E801C020E08A
:10165000909186049430F9F48F70822B9093E90076
:101660009091EB0090FF14C09091EE0097FF10C096
:101670009091E80095FF03C01092F100F9CF90918E
:10168000E80090FF05C09091E8009E779093E800F5
:101690008F708093E900089542E061EC81E00E9440
:1016A000920D42E061EC82E00E94920D42E061EC1A
:1016B00083E00E94920D42E261EC84E00E94920D70
:1016C00042E260EC85E00E94920D42E161EC86E02E
:1016D0000C94920D80918804833009F455C030F445
:1016E000813071F0823009F48EC008958A3009F497
:1016F0007AC08B3009F460C0893009F09CC020C0EA
:1017000080918704813A09F096C08091E800877F34
:101710008093E80080918B0490918C04892B21F0B8
:1017200060E080E090E003C060E185E593E070E078
:101730000E94310D8091E8008B778093E800089536
:1017400080918704813209F076C080918B0490915A
:101750008C04009719F0049709F06DC08091E8009F
:10176000877F8093E8008091E80082FD05C080912A
:1017700086048111F8CF5FC08091F10080936503EA
:101780008091E8008B7753C080918704813A09F0FB
:1017900052C080918B0490918C04892B09F04BC02E
:1017A0008091E800877F8093E8008091E80080FFC7
:1017B000FCCF80910B0136C0809187048132D9F52E
:1017C00080918B0490918C04892BA9F58091E8007D
:1017D000877F8093E8000E94A60D80918904809302
:1017E0000B010C94311780918704813221F580918F
:1017F000E800877F8093E8000E94A60D80918A040C
:1018000080936603089580918704813AA1F48091C2
:10181000E800877F8093E8008091E80080FFFCCF9C
:10182000809166038093F1008091E8008E77809329
:10183000E8000C94A60D089508950895089587E38F
:1018400092E00E9437060C941E0C0E948A1E809122
:101850008404882329F00E94B41E81110C94D20CB8
:10186000089584B7877F84BF88E10FB6F89480938A
:101870006000109260000FBE90E080E80FB6F89410
:1018800080936100909361000FBE0E941C0C0E9427
:101890001C110E94F70D0E94520E8091E20084609C
:1018A0008093E2008AEC99E00E94571E7894809120
:1018B00086048430E1F782E292E00E9437060E94BB
:1018C0001E1181E091E00E948E1081E192E00E9461
:1018D00037060E941D0C80918604853039F48DE016
:1018E00092E00E9437060E94250CF5CF0E9430112D
:1018F000F2CF0C94CB1E83E392E00E9437060C9447
:10190000790C292F33272330310599F05CF42130ED
:101910003105D9F122303105E9F58DE890E027E570
:1019200031E03CC02132310599F022323105E9F035
:1019300031C099278330910568F5FC01EE0FFF1F38
:10194000ED5CFE4F20813181FC01E05DFE4F1AC04D
:10195000653000F5E62FF0E0EE0FFF1FEA5DFE4F69
:101960002081318189E090E019C0653098F4E62F3C
:10197000F0E0DF01AA0FBB1FA45EBE4F2D913C918A
:10198000E95EFE4F808190E009C082E190E024EEA4
:1019900031E004C080E090E020E030E0FA013183E3
:1019A0002083089580E189BD82E189BD09B400FEEC
:1019B000FDCF8091D8008F7D8093D8008091E0008A
:1019C00082608093E0008091E00081FDFCCF08956B
:1019D000CF92DF92EF92FF920F931F93CF93DF93FB
:1019E0007C018B01EA010E94C70D811131C0209753
:1019F00031F088819981081B190BE80EF91EC12C62
:101A0000D12C0115110519F18091E80085FD14C054
:101A10008091E8008E778093E800209741F08881DC
:101A200099818C0D9D1D9983888385E011C00E944A
:101A3000C70D882331F30CC0F70181917F0180939A
:101A4000F10001501109FFEFCF1ADF0ADACF80E071
:101A5000DF91CF911F910F91FF90EF90DF90CF908A
:101A6000089520918D0430918E042617370748F091
:101A70006115710539F42091E8002E772093E80074
:101A800001C0B901FC0120E061157105B9F1809137
:101A90008604882309F440C0853009F43FC0809152
:101AA000E80083FD3DC08091E80082FF06C0809180
:101AB000E80082FF26C080E008958091E80080FF62
:101AC000E3CF2091F3008091F20090E0922B61151A
:101AD000710551F08830910538F421912093F1007F
:101AE000615071090196F3CF21E0089709F020E0D9
:101AF0008091E8008E778093E800C6CF2111C7CF90
:101B0000D6CF80918604882339F0853039F08091D2
:101B1000E80083FFCCCF04C082E0089583E00895FD
:101B200081E008958F708093E900EBEEF0E0808112
:101B300081608083EDEEF0E010826093EC004083E2
:101B40008091EE00881F8827881F08958091870460
:101B500087FD05C08091E80080FF0EC012C0809113
:101B6000E80082FD05C0809186048111F8CF0895B8
:101B70008091E8008B7708C0809186048111EACFBC
:101B800008958091E8008E778093E8000895809111
:101B9000E4009091E50045E62091EC0020FF21C093
:101BA0002091E80020FD21C020918604222389F0A5
:101BB000253089F02091EB0025FD0FC02091E40035
:101BC0003091E5002817390739F3415041F0C90138
:101BD000E3CF82E0089583E0089581E0089584E0F2
:101BE00008952091E80022FFDFCF80E008950E9451
:101BF000630E0E946B0EE0EEF0E0808181608083D6
:101C0000E8EDF0E080818F77808319BCA7EDB0E02C
:101C10008C918E7F8C9380818F7E8083109285043F
:101C200008950F931F93CF93DF930E94630E0E943A
:101C30006B0EC8EDD0E088818F77888388818068BB
:101C4000888388818F7D888319BC109286041092C6
:101C500083041092840400EE10E0F80180818B7FF1
:101C6000808388818160888342E060E080E00E9418
:101C7000920DE1EEF0E080818E7F8083E2EEF0E075
:101C8000808181608083808188608083F801808189
:101C90008E7F8083888180618883DF91CF911F91BF
:101CA0000F910895E8EDF0E080818F7E8083E7ED6D
:101CB000F0E080818160808384E082BF81E0809356
:101CC00085040C94110EE8EDF0E080818E7F808316
:101CD0001092E20008951092DA001092E100089547
:101CE0001F920F920FB60F9211242F933F934F9391
:101CF0005F936F937F938F939F93AF93BF93EF9374
:101D0000FF938091E10082FF0BC08091E20082FF8F
:101D100007C08091E1008B7F8093E1000E941B0B44
:101D20008091DA0080FF1FC08091D80080FF1BC027
:101D30008091DA008E7F8093DA008091D90080FF55
:101D40000DC080E189BD82E189BD09B400FEFDCFEF
:101D500081E0809386040E94FE0A05C019BC10929F
:101D600086040E94100B8091E10080FF19C08091D1
:101D7000E20080FF15C08091E2008E7F8093E20038
:101D80008091E20080618093E2008091D8008062BF
:101D90008093D80019BC85E0809386040E941F0CB4
:101DA0008091E10084FF30C08091E20084FF2CC06C
:101DB00080E189BD82E189BD09B400FEFDCF80913B
:101DC000D8008F7D8093D8008091E1008F7E809332
:101DD000E1008091E2008F7E8093E2008091E2003A
:101DE00081608093E20080918304882311F084E075
:101DF00007C08091E30087FF02C083E001C081E05B
:101E0000809386040E947B0C8091E10083FF29C0AF
:101E10008091E20083FF25C08091E100877F80935D
:101E2000E10082E080938604109283048091E100B7
:101E30008E7F8093E1008091E2008E7F8093E200AC
:101E40008091E20080618093E20042E060E080E007
:101E50000E94920D8091F00088608093F0000E94B3
:101E6000170BFF91EF91BF91AF919F918F917F9150
:101E70006F915F914F913F912F910F900FBE0F90F7
:101E80001F9018951F920F920FB60F9211242F9347
:101E90003F934F935F936F937F938F939F93AF93F2
:101EA000BF93CF93EF93FF93C091E900CF708091E0
:101EB000EC001092E9008091F000877F8093F000A1
:101EC00078940E947E0F1092E9008091F000886063
:101ED0008093F000C093E900FF91EF91CF91BF9103
:101EE000AF919F918F917F916F915F914F913F91B2
:101EF0002F910F900FBE0F901F9018951F93CF93A7
:101F0000DF9300D0CDB7DEB7E7E8F4E08091F100D1
:101F1000819384E0EF38F807C9F70E946A0B80913B
:101F2000E80083FFE7C02091870430918804832F65
:101F300090E08A30910508F0DDC0FC01EA5AFF4FBD
:101F40000C94B935203881F0223809F0D3C0809143
:101F50008B048F708093E9008091EB0085FB8827CC
:101F600080F91092E90004C080918404811182E01C
:101F70009091E800977F9093E8008093F100109291
:101F8000F10092C0822F8D7F09F0B4C0222319F096
:101F9000223061F0AFC080918904813009F0AAC07D
:101FA000333009F080E08093840428C08091890454
:101FB000811124C020918B042F7009F49BC02093C1
:101FC000E9008091EB0080FF19C08091EB00333075
:101FD00011F4806211C080618093EB0081E090E099
:101FE000022E01C0880F0A94EAF78093EA0010924B
:101FF000EA008091EB0088608093EB001092E9008A
:102000008091E800877F53C0211174C0109189042A
:102010001F778091E3008078812B8093E30080918B
:10202000E800877F8093E8000E94A60D8091E80079
:1020300080FFFCCF8091E30080688093E300112350
:1020400011F083E001C082E08093860453C02058E1
:10205000223008F04FC0AE014F5F5F4F60918B049C
:102060008091890490918A040E94810C009709F460
:1020700041C02091E800277F2093E800BC018981BE
:102080009A810E94310D8091E8008B778093E8005F
:1020900031C0203879F58091E800877F8093E8008F
:1020A000809183048093F1008091E8008E77809383
:1020B000E8000E94A60D1EC021111CC09091890449
:1020C0009230C0F48091E800877F8093E80090937D
:1020D00083040E94A60D80918304811104C0809125
:1020E000E30087FF02C084E001C081E080938604A2
:1020F0000E944C0B8091E80083FF0AC08091E800A9
:10210000877F8093E8008091EB0080628093EB00F2
:102110000F900F90DF91CF911F91089590936C03D2
:1021200080936B030895E0916B03F0916C033097FB
:1021300021F00190F081E02D099480E00895FF9254
:102140000F931F93CF93DF938C01E0916B03F0917A
:102150006C03309799F10280F381E02D099580910D
:10216000DC0382FF2BC080FF04C08FE492E00E945A
:102170003706E80180E1F82E09E412E08091DC03E3
:1021800080FF0BC088811F928F931F930F930E9433
:10219000D0060F900F900F900F90FA942196F110A7
:1021A000EDCF8091DC0380FF09C087E492E0DF91EE
:1021B000CF911F910F91FF900C943706DF91CF9133
:1021C0001F910F91FF900895E0916B03F0916C03C4
:1021D000309721F00480F581E02D09940895209135
:1021E000690330916A038217930771F090936A0331
:1021F00080936903E0916B03F0916C03309721F0B9
:102200000680F781E02D09940895209167033091AD
:1022100068038217930771F09093680380936703B4
:10222000E0916B03F0916C03309721F00084F1850D
:10223000E02D0994089508950C941B110E94F81E36
:102240000E946C070E9415210E941C330E943831A5
:102250000E94DD2A0E949F2F0E947F2E0C946834DA
:102260004F925F926F927F929F92AF92BF92CF9266
:10227000DF92EF92FF920F931F93CF93DF93CDB72F
:10228000DEB729970FB6F894DEBF0FBECDBF0E9410
:1022900098073EE6A32E33E0B32E00E010E0902E28
:1022A000802F0E94DF08F501C190D190E190F1905C
:1022B0005F01C626D726E826F926C114D104E10419
:1022C000F104B1F40F5F1F4F0630110541F78FEF96
:1022D00089838A831B820E94011F8160782F9D83DE
:1022E0008C8349815A816B818D810E942C1265C03B
:1022F0002091DC0321FF0AC06E837F838887998742
:102300000E94EA08998588857F816E8120E030E00F
:10231000422F26013701022E04C076946794579409
:1023200047940A94D2F740FE41C029839A82C12C77
:10233000D12C7601C39404C0CC0CDD1CEE1CFF1C18
:102340004A95D2F7DC01CB018C219D21AE21BF2122
:1023500021E0892B8A2B8B2B09F420E02B830E9410
:10236000011F8160782F9D838C8349815A816B8105
:102370008D810E942C1249815A816B817C818D81D3
:102380000E947D09F801EE0FFF1FEE0FFF1FE259BB
:10239000FC4F80819181A281B3818C259D25AE2542
:1023A000BF2580839183A283B38307C02F5F3F4FF4
:1023B0002131310509F0ACCF85CF0E94881E0E94E3
:1023C000D62410916D030E949310181779F10E9482
:1023D000931080936D039091DC0392FF0EC090FFE9
:1023E0000CC01F928F9381E692E09F938F930E947F
:1023F000D0060F900F900F900F9080916D0329964B
:102400000FB6F894DEBF0FBECDBFDF91CF911F9105
:102410000F91FF90EF90DF90CF90BF90AF909F9083
:102420007F906F905F904F900C94C33129960FB6B8
:10243000F894DEBF0FBECDBFDF91CF911F910F91FA
:10244000FF90EF90DF90CF90BF90AF909F907F90E4
:102450006F905F904F900895CF93DF93CDB7DEB725
:102460002B970FB6F894DEBF0FBECDBF4F835887B2
:1024700069877A878B878A859B85892B31F05F3FB7
:1024800011F080E003C04F3FE1F781E0811107C008
:102490004F81588569857A858B850E947D09DE018B
:1024A000119686E0FD0111928A95E9F785E0FE011B
:1024B000379601900D928A95E1F749815A816B8197
:1024C0007C818D819E810E94FD192B960FB6F89418
:1024D000DEBF0FBECDBFDF91CF910895CF93C82F40
:1024E000882309F4CCC0823859F40E94931081FDEE
:1024F000C6C089E30E947A1C0E94311E89E30CC089
:10250000833879F40E94931080FDB9C083E50E945E
:102510007A1C0E94311E83E50E944F1DCF910C94BE
:10252000311E843859F40E94931082FDA8C087E4BC
:102530000E947A1C0E94311E87E4EECF8CEF8C0F34
:10254000813A48F48C2F0E948B29811198C08C2FDE
:102550000E947A1CE3CF80E28C0F883048F4C77069
:1025600081E001C0880FCA95EAF70E94001ED6CF0D
:102570008BE58C0F833078F4C53A29F0C63A31F4F4
:1025800082E890E005C081E890E002C083E890E036
:10259000CF910C94EF1088E58C0F853108F06FC057
:1025A000C83A61F1C93A69F1CA3A71F1CB3A79F1A5
:1025B000CC3A81F1CD3A89F1CE3A91F1CF3A99F105
:1025C000C13BA1F1C03BA9F1C23BB1F1C33BB9F1A1
:1025D000C43BC1F1C53BC9F1C63BD1F1C73BD9F101
:1025E000C83BE1F1C93BE9F1CA3BF1F1CB3BF9F161
:1025F000CC3B09F03FC08AE292E03EC082EE90E020
:102600003BC089EE90E038C08AEE90E035C085EBA3
:1026100090E032C086EB90E02FC083EB90E02CC0BE
:1026200084EB90E029C087EB90E026C08CEC90E032
:1026300023C08DEC90E020C083E891E01DC08AE8C3
:1026400091E01AC082E991E017C084E991E014C0DA
:1026500081E292E011C083E292E00EC084E292E057
:102660000BC085E292E008C086E292E005C087E2F6
:1026700092E002C080E090E0CF910C940511CF91E0
:102680000895882309F44BC0823859F40E949310AE
:1026900081FF45C089E30E947A1C0E94311E89E3B4
:1026A0000CC0833871F40E94931080FF38C083E51A
:1026B0000E947A1C0E94311E83E50E944F1D0C94DB
:1026C000311E843859F40E94931082FF28C087E499
:1026D0000E947A1C0E94311E87E4EFCF9CEF980F76
:1026E000913A58F390E2980F983050F4877091E047
:1026F00001C0990F8A95EAF7892F0E94061EDFCF45
:102700009BE5980F933020F480E090E00C94EF105C
:10271000885A853120F480E090E00C9405110895EA
:10272000882321F00E94001E0C94311E08958823F6
:1027300021F00E94061E0C94311E0895CF92DF9264
:10274000EF92FF920F931F93CF93DF93CDB7DEB736
:1027500028970FB6F894DEBF0FBECDBF8C0185E081
:10276000F801DE01119601900D928A95E1F7F801CA
:1027700040813181F280258122952F70838194815F
:10278000892B31F03F3F31F481E04F3F19F403C012
:1027900081E001C080E080FD43C349833A838981A1
:1027A0009A812F830E94381C9E8388870E94371C41
:1027B0000E945F1B4E81E42FE295EF70F0E0E05A3B
:1027C000FF4F2F8168850C94B935842F807F142F9B
:1027D0001F70882311F01295107FFF2059F01123EC
:1027E00009F45FC2812F68870E94131E0E94311E68
:1027F000688557C2862F0E944113112309F410C324
:10280000812F0E94191E28960FB6F894DEBF0FBEC6
:10281000CDBFDF91CF911F910F91FF90EF90DF908F
:10282000CF900C94311E842F807F942F9F70E92EBF
:10283000803219F0E29480EFE822662319F06130CB
:1028400001F129C0FF20A9F08E2D222349F121306A
:1028500039F528960FB6F894DEBF0FBECDBFDF91D5
:10286000CF911F910F91FF90EF90DF90CF900C943C
:10287000231E222319F0213009F4D2C20E94261E01
:102880002CC0FF20E9F0263008F0CAC20E94FD1DCE
:102890008E2129F022C0FF20F1F0211115C08E2DCC
:1028A00028960FB6F894DEBF0FBECDBFDF91CF9153
:1028B0001F910F91FF90EF90DF90CF900C949013A9
:1028C000253008F0ADC209C0F801858180FFE9C15B
:1028D0008F708583E4CF2111F8C18E2D66C1242F1E
:1028E00026952695237030E02115310521F0213001
:1028F0003105C9F095C2FF2021F0862F942F9370E7
:1029000002C080E090E028960FB6F894DEBF0FBEBC
:10291000CDBFDF91CF911F910F91FF90EF90DF908E
:10292000CF900C94EF10FF2021F0862F942F9370FE
:1029300002C080E090E028960FB6F894DEBF0FBE8C
:10294000CDBFDF91CF911F910F91FF90EF90DF905E
:10295000CF900C940511862FFF2019F00E945C2364
:1029600002C00E94C42328960FB6F894DEBF0FBEA3
:10297000CDBFDF91CF911F910F91FF90EF90DF902E
:10298000CF900C944924842F837009F076C0F11005
:1029900047C2262F229526952770220F220F862FB9
:1029A0008F70C82ED12CE12CF12C022E04C0CC0C3F
:1029B000DD1CEE1CFF1C0A94D2F764FF10C06FE010
:1029C00070E080E090E004C0660F771F881F991FB9
:1029D0002A95D2F7609570958095909503C060E038
:1029E00070E0CB01242F269526952370422F50E0CE
:1029F00042305105D1F04330510559F16C297D2900
:102A00008E299F294130510541F128960FB6F8943F
:102A1000DEBF0FBECDBFDF91CF911F910F91FF9011
:102A2000EF90DF90CF900C94741B6C297D298E2938
:102A30009F2928960FB6F894DEBF0FBECDBFDF9159
:102A4000CF911F910F91FF90EF90DF90CF900C945A
:102A5000861B0E94741BC701B60128960FB6F89416
:102A6000DEBF0FBECDBFDF91CF911F910F91FF90C1
:102A7000EF90DF90CF900C94621BFF2019F0842F11
:102A8000817001C08695882309F4CAC1262F22953A
:102A900026952770220F220F862F8F70C82ED12CDB
:102AA000E12CF12C022E04C0CC0CDD1CEE1CFF1C12
:102AB0000A94D2F764FF10C06FE070E080E090E00D
:102AC00004C0660F771F881F991F2A95D2F760955B
:102AD00070958095909503C060E070E0CB01242F45
:102AE000269526952370422F50E042305105D1F0B3
:102AF0004330510559F16C297D298E299F29413098
:102B0000510541F128960FB6F894DEBF0FBECDBF38
:102B1000DF91CF911F910F91FF90EF90DF90CF90B9
:102B20000C94131C6C297D298E299F2928960FB699
:102B3000F894DEBF0FBECDBFDF91CF911F910F91F3
:102B4000FF90EF90DF90CF900C94251C0E94131CF7
:102B5000C701B60128960FB6F894DEBF0FBECDBFF1
:102B6000DF91CF911F910F91FF90EF90DF90CF9069
:102B70000C94011C603F49F118F4603E48F48CC08D
:102B8000623F09F451C0E0F1633F09F461C084C0C1
:102B9000162F1F70842F8F71FF2021F00E94AC1B15
:102BA000812F7ECE0E94C71B812F28960FB6F894E6
:102BB000DEBF0FBECDBFDF91CF911F910F91FF9070
:102BC000EF90DF90CF900C949713FF20A9F0253061
:102BD00008F026C1842F8F7128960FB6F894DEBFB7
:102BE0000FBECDBFDF91CF911F910F91FF90EF905E
:102BF000DF90CF900C94E61B263008F011C1EACF8D
:102C0000FF20A1F0842F8F7128960FB6F894DEBFB5
:102C10000FBECDBFDF91CF911F910F91FF90EF902D
:102C2000DF90CF900C94AC1BFF2061F3842F8F7149
:102C300028960FB6F894DEBF0FBECDBFDF91CF91BF
:102C40001F910F91FF90EF90DF90CF900C94C71BD6
:102C5000FF2091F0842F8F7128960FB6F894DEBF75
:102C60000FBECDBFDF91CF911F910F91FF90EF90DD
:102C7000DF90CF900C949D1B28960FB6F894DEBF82
:102C80000FBECDBFDF91CF911F910F91FF90EF90BD
:102C9000DF90CF900C94981BFF20A1F0222309F421
:102CA000B1CF862F28960FB6F894DEBF0FBECDBFEA
:102CB000DF91CF911F910F91FF90EF90DF90CF9018
:102CC0000C946E12222309F4B1CF862F28960FB6EA
:102CD000F894DEBF0FBECDBFDF91CF911F910F9152
:102CE000FF90EF90DF90CF900C9441134F70C8018C
:102CF0000E94DF0628960FB6F894DEBF0FBECDBF48
:102D0000DF91CF911F910F91FF90EF90DF90CF90C7
:102D10000C94AA1AF11084C0662341F0842F8F709E
:102D2000843021F0407F862F8F70482B942F9F7026
:102D3000492F50E04230510509F440C0BCF4411520
:102D4000510561F14130510509F06AC028960FB66E
:102D5000F894DEBF0FBECDBFDF91CF911F910F91D1
:102D6000FF90EF90DF90CF900C94DC2F4330510513
:102D7000A9F14430510509F053C0862F28960FB6AB
:102D8000F894DEBF0FBECDBFDF91CF911F910F91A1
:102D9000FF90EF90DF90CF900C94723028960FB692
:102DA000F894DEBF0FBECDBFDF91CF911F910F9181
:102DB000FF90EF90DF90CF900C94B02F28960FB635
:102DC000F894DEBF0FBECDBFDF91CF911F910F9161
:102DD000FF90EF90DF90CF900C94083028960FB6BC
:102DE000F894DEBF0FBECDBFDF91CF911F910F9141
:102DF000FF90EF90DF90CF900C943A304F70C80165
:102E000028960FB6F894DEBF0FBECDBFDF91CF91ED
:102E10001F910F91FF90EF90DF90CF900C94EB06F5
:102E200028960FB6F894DEBF0FBECDBFDF91CF91CD
:102E30001F910F91FF90EF90DF90CF9008950E9427
:102E4000201E0E94EF1D0E94311E0E9477250E94C5
:102E5000492480E090E00E94EF1080E090E00C9424
:102E600005110E94101E0C941F170E94381C292F58
:102E700022952F7030E02C3031054CF42A3031058A
:102E80006CF4225031092230310590F407C02C3007
:102E9000310551F02F30310539F00AC0803E10F075
:102EA000803F31F481E0089593FB882780F90895ED
:102EB00080E00895CF93DF9300D000D01F92CDB76C
:102EC000DEB70F900F900F900F900F90DF91CF9182
:102ED0000895CF93DF9300D000D000D0CDB7DEB7F8
:102EE00026960FB6F894DEBF0FBECDBFDF91CF910F
:102EF00008951F93CF93DF93C091860316E08091CE
:102F00008703C81799F0D0E01C9FF0011D9FF00DBA
:102F10001124E857FC4F4081518162817381848183
:102F200095810E9469172196C770E9CFDF91CF91F3
:102F30001F9108954091B8035091B9036091BA036D
:102F40007091BB038091BC039091BD030C946917F1
:102F5000CF938091BD0382958F7009F05FC08091FF
:102F6000BA03882309F45AC020918603A0918703ED
:102F70006091B8037091B9038091BB039091BC0339
:102F800031E06F3F09F030E0B32FC6E02A1709F4B3
:102F900045C0009721F07F3F21F44B2F03C041E053
:102FA00001C040E030E040FD35C0C29FF001C39F4A
:102FB000F00D1124E857FC4F418174132BC0408160
:102FC000641328C04281411125C0438154814817B0
:102FD000590710F441505109481B590B483C510501
:102FE000C8F48091BD038F7080618093BD0386E03B
:102FF000829FF001839FF00D1124E357FC4F8081E5
:103000008F708061808388EB93E00E949E13CF9144
:103010000C9479172F5F3F4F2770B8CFCF91089549
:10302000CF92DF92EF92FF920F931F93CF93DF9394
:10303000CDB7DEB762970FB6F894DEBF0FBECDBF37
:103040008C0185E0F801DE011D9601900D928A95B4
:10305000E1F7D8014C9111965C91119712966C9101
:1030600012971396ED90FC9014977091B803E0912D
:10307000B9032091BB033091BC032115310531F018
:10308000EF3F31F481E07F3F19F403C081E001C0DC
:1030900080E0B82FB170CB2E80FD6CC1D090BA0308
:1030A000DD2009F4F5C0F091BD03E216F30638F017
:1030B000C701821B930B883C910548F09BC020956B
:1030C00030952E0D3F1D283C310508F093C08F2F01
:1030D000807F09F052C0E51314C0741312C0D62EBD
:1030E00061110FC0FF70F061F093BD030E949A1749
:1030F00088EB93E00E949E138091BD03F8018583C5
:103100006CC1EF2831F05F3F31F481E04F3F19F49B
:1031100003C081E001C080E080FD03C081E086271C
:1031200001C080E0F82FF170FF2E80FF1CC080915D
:1031300086032091870336E0821709F428C190E0C6
:10314000389FF001399FF00D1124E857FC4F718131
:10315000571306C07081471303C07281671303C001
:1031600001968770E9CFD62E662309F436C1809187
:10317000BD0381608093BD0353C0E51308C0741381
:1031800006C0611104C0D8011596FC93AEC04D87EE
:103190005E878D859E856A8B0E9435176A89882394
:1031A00029F1D62E662311F12091BD03822F82953D
:1031B0008F7090E002970CF460C08091B8039091FA
:1031C000B90398878F831986FB86EA862C87CE0100
:1031D000079651C0E51731F14D875E878D859E8535
:1031E0006A8B0E9435176A8981112EC0C8010E941E
:1031F0009E13A4C08F2F807F69F77E2DF98AE88AFD
:1032000089890E945A1788EB93E00E949E13E8EB8D
:10321000F3E086E0DF011D928A95E9F70E949A1794
:10322000D12CDBC07413D8CF6111D6CFD80115963D
:10323000FC93C8010E949E13E8EBF3E086E0DF01F7
:103240001D928A95E9F7C9C0D62E662379F220919E
:10325000BD03822F82958F7090E0029774F0809169
:10326000B8039091B9039A8389831B82FD82EC8213
:103270002E83CE0101960E949E1386E0F801A8EBF2
:10328000B3E001900D928A95E1F70E94A8176FC0F4
:10329000E216F30628F0C701821B930B9C0104C0C1
:1032A000209530952E0D3F1D283C310508F052C069
:1032B000D62E662309F49ACFE5132CC074132AC0C6
:1032C0008091BD0380FD1DC0982F92959F70C9F01D
:1032D000D80115968C9315979F3039F09F5F929582
:1032E000907F8F70892B15968C93C8010E949E1336
:1032F00086E0F801A8EBB3E001900D928A95E1F722
:1033000036C086E0F801A8EBB3E001900D928A95F3
:10331000E1F763C04D875E878D859E850E943517D6
:10332000882379F086E0F801A8EBB3E001900D92D4
:103330008A95E1F70E94A8170E949A17DD24D3947A
:103340004CC08091BD0381608093BD03C8010E9481
:103350009E1343C07E2DF98AE88A89890E945A17F4
:10336000E8EBF3E086E0DF011D928A95E9F70E9421
:103370009A1733C0662309F439CF4D875E878D8550
:103380009E850E943517882309F430CFCBCF4D8717
:103390005E878D859E850E94381C292F22952F706F
:1033A00030E0223031052CF49F7041F0811106C0CD
:1033B0000CC0243031052CF49F7049F4805E8830B5
:1033C00020F0C8010E949E13CF2CDC2C06C0D8012F
:1033D00015969C91907F91F7F8CF8D2D62960FB640
:1033E000F894DEBF0FBECDBFDF91CF911F910F913B
:1033F000FF90EF90DF90CF9008951F93CF93DF93CE
:10340000CDB7DEB72C970FB6F894DEBF0FBECDBF99
:103410004F83588769877A878B879C87CE01079669
:103420000E9410188823C1F02F8138858A859B85DA
:10343000892B31F03F3F11F080E003C02F3FE1F7CF
:1034400081E0811147C04F81588569857A858B85D8
:103450009C850E9469173EC086E0FE013796DE011A
:10346000119601900D928A95E1F7FF81E8854A85D2
:103470005B854115510531F0EF3F31F481E0FF3FAD
:1034800019F403C081E001C080E080FD23C02091D9
:10349000870330E0C9010196877099276091860300
:1034A00070E086179707F1F1F983EA835D834C8317
:1034B00096E0929FD001939FB00D1124A857BC4F66
:1034C000FE01319601900D929A95E1F78093870362
:1034D0000E94791716E080918603909187038917DF
:1034E00079F1189FC001112488579C4F0E94101831
:1034F000882331F1E09186031E9FF0011124E857E3
:10350000FC4F4081518162817381848195810E9449
:1035100069178091860390E00196877099278093C0
:103520008603D9CF0E943117109287031092860329
:10353000E8EBF3E086E0DF011D928A95E9F7CACF58
:103540002C960FB6F894DEBF0FBECDBFDF91CF91A2
:103550001F910895DF92EF92FF920F931F93CF93E5
:10356000DF939C01009709F48AC0E12CF12CDD2443
:10357000D394E9012196F9018491853709F462C059
:1035800058F4843708F04EC0843008F069C08130A8
:10359000D1F0823071F173C0883709F45CC050F407
:1035A000863709F454C0873709F069C08E2D0E9410
:1035B0000D1E53C09CE7980F903708F060C08F77BE
:1035C0000E9441134FC089010E5F1F4FFE01C4913D
:1035D00080E28C0F883048F4C7708D2D01C0880FB1
:1035E000CA95EAF70E94131E15C08C2F0E946E1216
:1035F00013C089010E5F1F4FFE01C49180E28C0F42
:10360000883060F4C7708D2D01C0880FCA95EAF725
:103610000E94191E0E94311EE80124C08C2F0E94B6
:103620004113FACF2E5F3F4FFE01C491CC2341F0EE
:103630008FE99FE00197F1F700C00000C150F6CF7D
:10364000E90110C0FE01F490E90122960BC00E942E
:10365000FD1DE82E07C00E94101E0E94311E02C0F0
:103660000E946E129F2D992341F0EFE9FFE0319700
:10367000F1F700C000009150F6CF9E017ACFDF91A4
:10368000CF911F910F91FF90EF90DF90089560937D
:10369000C2037093C3038093C4039093C5030E9435
:1036A00011320C941F176093BE037093BF03809375
:1036B000C0039093C1030E9469320C941F170895B0
:1036C0000C94471B0F931F930091C2031091C303E7
:1036D0002091C4033091C503602B712B822B932B57
:1036E0001F910F910C94471B0F931F930091C203DE
:1036F0001091C3032091C4033091C503602371234B
:10370000822393231F910F910C94471B0F931F93B8
:103710000091C2031091C3032091C4033091C503EB
:1037200060277127822793271F910F910C94471BC5
:1037300060E070E0CB010C94531B41E050E060E08E
:1037400070E004C0440F551F661F771F8A95D2F79B
:10375000CB01BA010C94531B41E050E060E070E0F3
:1037600004C0440F551F661F771F8A95D2F78091BA
:10377000BE039091BF03A091C003B091C103482B39
:10378000592B6A2B7B2BCB01BA010C94531B41E0C4
:1037900050E060E070E004C0440F551F661F771FC3
:1037A0008A95D2F740955095609570958091BE03AB
:1037B0009091BF03A091C003B091C1034823592346
:1037C0006A237B23CB01BA010C94531B41E050E0E8
:1037D00060E070E004C0440F551F661F771F8A9594
:1037E000D2F78091BE039091BF03A091C003B09126
:1037F000C103482759276A277B27CB01BA010C94BC
:10380000531B0F931F930091BE031091BF03209190
:10381000C0033091C103602B712B822B932B1F911E
:103820000F910C94531B0F931F930091BE031091A3
:10383000BF032091C0033091C10360237123822311
:1038400093231F910F910C94531B0F931F9300917F
:10385000BE031091BF032091C0033091C1036027C4
:103860007127822793271F910F910C94531B089562
:10387000CF92DF92EF92FF920F931F93CF93DF933C
:10388000EC01C090C203D090C303E090C403F09059
:10389000C5038091BE039091BF03A091C003B09176
:1038A000C103C82AD92AEA2AFB2A0FE110E0B7018E
:1038B000A601002E04C076956795579547950A9402
:1038C000D2F740FF07C0BE01802F0E944820813000
:1038D000910539F40150110950F7BE0180E00E94B2
:1038E0004820DF91CF911F910F91FF90EF90DF90D3
:1038F000CF900895CF92DF92EF92FF920F931F9394
:10390000CF93DF93F82E80910B01882369F180918A
:103910000C01882349F18F2D8695869586958F30E9
:1039200090F4E0910D01F0910E01E80FF11D8F2D43
:10393000877021E030E001C0220F8A95EAF781818B
:10394000822B8183A3C08091DC0380FF9FC01F92E4
:10395000FF928AE892E09F938F930E94D0060F9087
:103960000F900F900F9092C0E090D9034091D70331
:10397000E0910D01F0910E01442309F472C02091F1
:10398000D8038E2D3FEF06E010E0A82FBB27A7FD40
:10399000B095EF01CA0FDB1F9A819F1509F476C01D
:1039A0003F3F19F4911101C0382FCD010196C6E0B7
:1039B000D0E0B8010E94A5358213E7CF2E1151C087
:1039C0003F3F71F4822F992787FD90950196BE01A4
:1039D0000E94A5358093D90341504093D70341C03D
:1039E000832F992787FD90950196BE010E94A535EA
:1039F000EE24E394C6E0D0E0082F112707FD1095D0
:103A00006F01C00ED11ED60112966C916623A1F0F3
:103A1000432F552747FD5095CF01840F951FDC019B
:103A200012966C93D60112961C92CA010196BE01A1
:103A30000E94A535382F01C0E394C8010196BE014C
:103A40000E94A5358213D8CF822F992787FD9095A4
:103A50008E199109069666E070E00E94A535809364
:103A6000D8032091D803332727FD3095E20FF31FA9
:103A7000F282C901019666E070E00E94A53580934C
:103A8000D8038091D7038F5F8093D703DF91CF91C5
:103A90001F910F91FF90EF90DF90CF900895DF92EC
:103AA000EF92FF920F931F93CF93DF93482F809154
:103AB0000B01882371F180910C01882351F1842F2F
:103AC0008695869586958F3098F4E0910D01F0915A
:103AD0000E01E80FF11D477021E030E0042E01C017
:103AE000220F0A94EAF720958181282321836FC051
:103AF0008091DC0380FF6BC01F924F938CE692E0B5
:103B00009F938F930E94D0060F900F900F900F906D
:103B10005EC0E091D903D090D703DD2009F457C0EF
:103B2000C0910D01D0910E010091D803112707FD1E
:103B3000109586E0E82EF12CF0E0DE01AE0FBF1FFD
:103B40009D012E5F3F4F12968C91841336C0D90190
:103B50001C92DA94D092D703D11004C01092D903EA
:103B60001092D8032091D803822F992787FD909532
:103B7000059666E070E00E94A535E817F90739F56B
:103B80004091D903E6E0F0E0822F992787FD9095D8
:103B90000596BF010E94A5359C010596BF010E94B4
:103BA000A5358C0F9D1FDC0112968C91811102C0EE
:103BB0002413EACF2093D8030AC0CF010196B7019E
:103BC0000E94A535E82F8017910709F0B5CFDF9146
:103BD000CF911F910F91FF90EF90DF90089581E0BA
:103BE00090E0E0910D01F0910E01E80FF91F1082B5
:103BF000019680319105A9F708958091DB0308951E
:103C00009091DB03982B9093DB030895809590911E
:103C1000DB0398239093DB0308958093DB030895DF
:103C20001092DB0308959091DA03982B9093DA03B6
:103C3000089580959091DA0398239093DA0308957C
:103C40001092DA0308958093C60308951092C60374
:103C5000089580910C01811103C08091D7030895CC
:103C60000895E0910D01F0910E018091DB038083B6
:103C7000E0910D01F0910E0180819091DA03892B82
:103C800080839091C603992361F0E0910D01F0913A
:103C90000E018081892B80830E94291E8111109240
:103CA000C60380910D0190910E010C949F1090938A
:103CB00021038093200308958295982F9C7C9695EC
:103CC0009695837344E0849F90011124922B892F51
:103CD0008A7A86959575990F892B08951F93CF93AE
:103CE000DF931F92CDB7DEB799830E945C1E182F19
:103CF0009981892F0E945C1E212F30E0322F2227CC
:103D0000A901482BCA010F90DF91CF911F9108950F
:103D10000895089580918604843019F11092DD038E
:103D200020E488E190E00FB6F894A89580936000B5
:103D30000FBE209360000E94092B83B7817F8460AF
:103D400083BF83B7816083BF7894889583B78E7F64
:103D500083BF88E10FB6F8948093600010926000F2
:103D60000FBE089508950895CF930E94B21E0E9439
:103D700098070E94B31EC0E08C2F0E94DF08672BBB
:103D8000682B692B29F4CF5FC630B1F780E001C002
:103D900081E0CF9108950E9431170C949F2F1F92BC
:103DA0000F920FB60F9211248F939F93AF93BF93EF
:103DB0008091DD03811113C08091DE039091DF03B8
:103DC000A091E003B091E1034196A11DB11D809344
:103DD000DE039093DF03A093E003B093E103BF9170
:103DE000AF919F918F910F900FBE0F901F901895DC
:103DF00082E084BD93E095BD9AEF97BD80936E00FD
:103E000008952FB7F8948091DE039091DF03A0917D
:103E1000E003B091E1032FBF08952FB7F8946091AC
:103E2000DE037091DF038091E0039091E1032FBFE7
:103E30000895CF92DF92EF92FF920F931F932FB7C7
:103E4000F8944091DE035091DF036091E00370919C
:103E5000E1032FBF6A017B01EE24FF248C0120E0E7
:103E600030E0C016D106E206F30610F441505109C5
:103E7000481B590BCA011F910F91FF90EF90DF90E3
:103E8000CF9008951F920F920FB60F9211248F9327
:103E90009F93AF93BF938091DE039091DF03A09136
:103EA000E003B091E1030196A11DB11D8093DE03F3
:103EB0009093DF03A093E003B093E103BF91AF9130
:103EC0009F918F910F900FBE0F901F9018950E9499
:103ED000F70DF8942FEF87EA91E62150804090404B
:103EE000E1F700C0000087E090EBDC0180939104D3
:103EF00090939204A0939304B09394042CE088E1EF
:103F000090E00FB6F894A895809360000FBE2093C0
:103F10006000FFCF8D3B60F4883A80F5853A28F544
:103F2000843008F5813009F06BC081E090E008959D
:103F3000883E98F4803EB8F48F3B09F061C00E943F
:103F400031172FEF80E792E0215080409040E1F759
:103F500000C000000E94671F53C0803F08F450C09B
:103F600090E09065089590E00895853A09F44BC07B
:103F7000863A09F04BC082E890E40895883A09F443
:103F800048C0893A09F448C08A3A09F448C08B3AD3
:103F900009F448C08C3A09F448C08D3A09F448C085
:103FA0008E3A09F448C08F3A09F448C0813B09F4BD
:103FB00048C0803B09F448C0823B09F448C0833BB9
:103FC00009F448C0843B09F448C0853B09F448C063
:103FD000863B09F448C0873B09F448C0883B09F494
:103FE00048C0893B09F448C08A3B09F448C08B3B70
:103FF00009F448C08C3B09F048C08AE296E4089571
:1040000080E090E0089581E890E4089583E890E4EA
:10401000089582EE94E4089589EE94E408958AEE7A
:1040200094E4089585EB94E4089586EB94E4089570
:1040300083EB94E4089584EB94E4089587EB94E48F
:1040400008958CEC94E408958DEC94E4089583E84D
:1040500095E408958AE895E4089582E995E4089541
:1040600084E995E4089581E296E4089583E296E474
:10407000089584E296E4089585E296E4089586E240
:1040800096E4089587E296E4089580E094E4089524
:104090000E944907803EA8F4803C00F5813309F472
:1040A0005CC038F4893209F452C08A3209F45BC02A
:1040B0005FC08933B1F08238A1F0853309F441C083
:1040C00057C0833E41F128F4803E99F0823EB9F01A
:1040D0004FC0863E31F1873E71F14AC00E944D07C4
:1040E000089590918F0490FD02C091FF41C080EE31
:1040F0003FC080918F0480FFFACF89E339C080915F
:104100008F0482FF0CC080918F0484FF02C080E086
:104110002FC083EE2DC080918F0482FFF4CF82EEFA
:1041200027C080918F0483FF0AC080918F0484FD93
:10413000EECF87EE1DC080918F0483FFF6CF86EE11
:1041400017C080918F0485FF06C089E211C080915D
:104150008F0485FFFACF85E30BC080918F0486FF23
:1041600006C08AE205C080918F0486FFFACF81E302
:104170000E948A1F0895BF92CF92DF92EF92FF9222
:104180000F931F93CF93DF93EC01B12C8B2D0E94E3
:10419000DF086B017C0100E010E0B701A601002EF2
:1041A00004C076956795579547950A94D2F740FFD6
:1041B00016C0602F7B2D80E00E9448208C179D0741
:1041C00061F0292F207E392F307C11F0203A39F40C
:1041D000282F30E02C173D0711F481E00AC00F5F53
:1041E0001F4F01311105C9F6B39486E0B812CECF46
:1041F00080E0DF91CF911F910F91FF90EF90DF90C2
:10420000CF90BF900895CF93DF93EC018CE290E0C4
:104210000E94BB20882329F0CE01DF91CF910C941E
:10422000BB2080E0DF91CF910895CF930E949A2226
:10423000811102C00E9468228FEA92E00E94370634
:10424000C5E6C15049F00E9498078FE39CE90197A9
:10425000F1F700C00000F5CF88EA92E00E9437062F
:1042600089E290E00E940321811130C18AE290E04E
:104270000E940321882341F00E9494220E94682218
:104280000E94F3330E94583385E090E00E9403219E
:1042900081110E94671F0E94891E0E94A52280939F
:1042A000DC0387E090E00E9403218823B1F18BE1D9
:1042B00090E00E940321882351F09091DC0391FB50
:1042C000882780F921E0822780FB91F924C08EE0C5
:1042D00090E00E940321882351F09091DC0392FB2F
:1042E000882780F921E0822780FB92F914C080E1C1
:1042F00090E00E9403219091DC03882341F093FB1E
:10430000882780F921E0822780FB93F904C0892F58
:10431000809580FB90F99093DC038091DC030E94F0
:10432000A9220E94B72280938F0480EE90E00E9421
:104330000321882341F080918F04982F909590FB62
:1043400080F980938F0489E390E00E940321882301
:1043500059F090918F0491FB882780F921E0822702
:1043600080FB91F990938F0482EE90E00E940321EC
:10437000882359F090918F0492FB882780F921E0DF
:10438000822780FB92F990938F0486EE90E00E9442
:104390000321882359F090918F0493FB882780F99B
:1043A00021E0822780FB93F990938F0483EE90E0C5
:1043B0000E940321882359F090918F0494FB882751
:1043C00080F921E0822780FB94F990938F0485E3A4
:1043D00090E00E940321882359F090918F0495FB6F
:1043E000882780F921E0822780FB95F990938F043C
:1043F00081E390E00E940321882359F090918F047B
:1044000096FB882780F921E0822780FB96F990931C
:104410008F0481E190E00E940321882359F090915C
:104420008F0497FB882780F921E0822780FB97F98A
:1044300090938F0480918F040E94BB2280918F04FF
:1044400087FB882780F980930C0187E290E00E9427
:104450000321C82F8EE190E00E9403218111C260E8
:104460008FE190E00E9403218111C46080E290E01E
:104470000E9403218111C86081E290E00E94032123
:104480008111C06182E290E00E9403218111C0622B
:1044900083E290E00E9403218111C06484E290E0F5
:1044A0000E940321882311F0C06802C0CC2329F0A8
:1044B0008C2F0E94B2226C2F03C00E94AE22682F64
:1044C00070E080E090E0CF910C94601BCF91089554
:1044D0006DEE7EEF80E090E00E94DB3560E082E0F0
:1044E00090E00E94CD3560E083E090E00E94CD3501
:1044F00060E084E090E00E94CD3560E085E090E0EF
:104500000E94CD3560911F0386E090E00E94CD357A
:1045100060911E0387E090E00E94CD356091820497
:1045200088E090E00C94CD356FEF7FEF80E090E075
:104530000C94DB3580E090E00E94C73521E08D3E91
:104540009E4F09F020E0822F089582E090E00C94C5
:10455000BF35682F82E090E00C94CD3583E090E089
:104560000C94BF35682F83E090E00C94CD3584E047
:1045700090E00C94BF35682F84E090E00C94CD352A
:1045800086E090E00C94BF35682F86E090E00C94B4
:10459000CD3587E090E00C94BF35682F87E090E040
:1045A0000C94CD3588E090E00C94BF35682F88E0FE
:1045B00090E00C94CD358091E40380FF0BC06091B6
:1045C000120185E0689FB001112475956795759576
:1045D00067952AC081FF09C06091120185E0689F3C
:1045E000B0011124759567951FC082FF07C06091C7
:1045F000120185E0689FB001112416C04091E503C7
:104600004423C9F060911101461788F720911201E7
:1046100085E0289F90011124429FC001439F900D87
:10462000112470E00E94A5356038710540F46115D1
:10463000710539F002C065E070E0862F08958FE7BC
:10464000089581E008958091E40380FF08C060919F
:10465000100170E0759567957595679521C081FF8C
:1046600006C06091100170E07595679519C082FFD2
:1046700004C06091100170E010C08091E5038823B0
:10468000C1F060910F018617A0F790911001989FDB
:10469000C001112470E00E94A5356038710528F42E
:1046A0006115710521F0862F08958FE7089581E047
:1046B000089561E070E0F4CF803F21F40E94DB2296
:1046C000819504C0813F29F40E94DB228093E80396
:1046D0000895823F21F40E94DB22819504C0833F2C
:1046E00029F40E94DB228093E7030895893F19F49F
:1046F0000E94232305C08A3F31F40E942323819521
:104700008093E90308958B3F21F40E942323819530
:1047100004C08C3F29F40E9423238093EA03089568
:10472000843F21F48091E603816017C0853F21F426
:104730008091E603826011C0863F21F48091E603F8
:1047400084600BC0873F21F48091E603886005C038
:10475000883F31F48091E60380618093E6030895F9
:104760008D3F21F48091E40381600BC08E3F21F4E2
:104770008091E403826005C08F3F29F48091E403B7
:1047800084608093E4030895803F39F48091E803C6
:1047900087FF6CC01092E80369C0813F29F48091C3
:1047A000E8031816BCF362C09091E703823F29F436
:1047B00097FF5CC01092E70359C0833F19F41916A4
:1047C000CCF354C0893F41F48091E90318160CF0F2
:1047D0004DC01092E9034AC08A3F29F48091E90351
:1047E00087FF44C0F6CF8B3F39F48091EA0387FFFF
:1047F0003DC01092EA033AC08C3F29F48091EA034D
:104800001816BCF333C0843F21F48091E6038E7FF9
:1048100017C0853F21F48091E6038D7F11C0863F4C
:1048200021F48091E6038B7F0BC0873F21F48091B8
:10483000E603877F05C0883F31F48091E6038F7ED1
:104840008093E60313C08D3F21F48091E4038E7FB3
:104850000BC08E3F21F48091E4038D7F05C08F3F14
:1048600029F48091E4038B7F8093E4038091E70334
:1048700081110EC08091E80381110AC08091E90383
:10488000811106C08091EA03811102C01092E503F4
:1048900008958091DC0383FF7EC08BEE92E00E943E
:1048A00037068091E6031F928F9386EE92E09F93E6
:1048B0008F930E94D00684EE92E00E9437062091EA
:1048C000E703822F992787FD90959F932F9381EE81
:1048D00092E09F938F930E94D0068FED92E00E940A
:1048E00037062091E803822F992787FD90959F93A3
:1048F0002F938CED92E09F938F930E94D0068AEDC8
:1049000092E00E9437062091E903822F992787FDC4
:1049100090959F932F9387ED92E09F938F930E94A2
:10492000D00685ED92E00E9437062091EA03822F9F
:10493000992787FD90959F932F9382ED92E09F9307
:104940008F930E94D0068FEC92E00E9437068091F0
:10495000E5031F928F938CEC92E09F938F930E94BC
:10496000D0068AEC92E00E9437068091E4031F9201
:104970008F9387EC92E09F938F930E94D00684ECF4
:1049800092E00E9437068DB79EB74C960FB6F8940A
:104990009EBF0FBE8DBF86EE93E00E94E4100E9482
:1049A000011F9093E3038093E20308951F93CF9335
:1049B000DF938091E2039091E3030E94191F4091DD
:1049C000E503442321F02091130130E006C020913B
:1049D00014015AE0259F900111248217930708F4CF
:1049E00082C08091E7031091E803D091E903C09160
:1049F000EA03811107C0111105C0D11103C0CC23F6
:104A000009F471C04F3F19F04F5F4093E50318164A
:104A100024F40E94DB228093E7038091E70387FF61
:104A200005C00E94DB2281958093E703111624F4D0
:104A30000E94DB228093E8038091E80387FF05C092
:104A40000E94DB2281958093E8036091E70366234F
:104A500039F11091E803112319F1772767FD70955B
:104A6000872F972F0E94A23423E333E343E35FE3CE
:104A70000E9406350E946F346093E703612F772709
:104A800067FD7095872F972F0E94A23423E333E3AD
:104A900043E35FE30E9406350E946F346093E803AE
:104AA0001D1624F40E9423238093E9038091E903D7
:104AB00087FF05C00E94232381958093E9031C167C
:104AC00024F40E9423238093EA038091EA0387FF62
:104AD00005C00E94232381958093EA03DF91CF9143
:104AE0001F910C944924DF91CF911F910895E6EE18
:104AF000F3E085E0DF011D928A95E9F71092E50366
:104B00001092E40308958EE095E00E9437061F920C
:104B100081E08F931F9285E08F9380EC94E09F93C8
:104B20008F930E94D0060F900F900F900F900F90D0
:104B30000F9008958330E9F128F4813061F08230DC
:104B400009F10895853009F462C008F449C086303F
:104B500009F474C0089520911401862F90E0820F0B
:104B6000911D8F3F910520F4620F6093140103C0E3
:104B70008FEF80931401809114011F928F9389EF1E
:104B800093E072C020911301862F90E0820F911D57
:104B90008F3F910520F4620F6093130103C08FEFE4
:104BA00080931301809113011F928F9387EE93E0FE
:104BB0005BC020911201862F90E0820F911D8F3FE4
:104BC000910520F4620F6093120103C08FEF809370
:104BD0001201809112011F928F9384ED93E044C0E3
:104BE00020911101862F90E0820F911D8F3F91053A
:104BF00020F4620F6093110103C08FEF80931101C5
:104C0000809111011F928F938FEB93E02DC0209123
:104C10001001862F90E0820F911D8F3F910520F4A7
:104C2000620F6093100103C08FEF80931001809199
:104C300010011F928F9386EA93E016C020910F0116
:104C4000862F90E0820F911D8F3F910520F4620F17
:104C500060930F0103C08FEF80930F0180910F01CC
:104C60001F928F938BE893E09F938F930E94D006BF
:104C70000F900F900F900F900895833081F128F4DA
:104C8000813059F08230D1F00895853009F449C05F
:104C9000B8F1863009F456C0089580911401681760
:104CA00020F4861B8093140102C01092140180919D
:104CB00014011F928F938CE793E054C080911301ED
:104CC000681720F4861B8093130102C01092130111
:104CD000809113011F928F938AE693E043C08091E5
:104CE0001201681720F4861B8093120102C01092F3
:104CF0001201809112011F928F9387E593E032C0D9
:104D000080911101681720F4861B8093110102C065
:104D100010921101809111011F928F9382E493E010
:104D200021C080911001681720F4861B8093100128
:104D300002C010921001809110011F928F9389E29E
:104D400093E010C080910F01681720F4861B8093B8
:104D50000F0102C010920F0180910F011F928F93DB
:104D60008EE093E09F938F930E94D0060F900F9058
:104D70000F900F900895CF93C82F1F928F9323E128
:104D800036E03F932F930E94D00661E070E080E010
:104D900090E004C0660F771F881F991FCA95D2F74D
:104DA0000E94601B0F900F900F900F90CF910C946A
:104DB0003117CF938B3109F409C208F049C08E3006
:104DC00009F417C200F5873009F4E7C1A8F486306A
:104DD00009F095C28091DC03817F8E7F8093DC0394
:104DE00088E196E00E94370680EC9AE00E94370640
:104DF00081E08093EC03CFC1883009F45BC08B3035
:104E000009F4C5C17CC2813109F461C220F480314A
:104E100009F402C274C2863109F418C2893109F05A
:104E20006EC284E39AE00E9437068BE09AE00E940B
:104E3000370689ED99E00E94370682EB99E00E94DF
:104E4000370680E299E00E94370685EF98E0A1C11D
:104E5000853309F44EC268F4873209F44AC228F453
:104E60008E3108F44CC28D5147C2893209F441C2D7
:104E700046C2833438F48A3308F03DC2883309F4DB
:104E800086C13DC2833409F434C2883409F037C284
:104E90000E9431178FEA9AE00E9437069FEF23EDB8
:104EA00080E3915020408040E1F700C000000E9464
:104EB000671F71C184EC9AE00E94370682E598E092
:104EC0000E9437060E94AE221F928F938FE498E0D3
:104ED0009F938F930E94D0068DE498E00E9437063E
:104EE0000E94A522C82F8AE398E00E9437061F92ED
:104EF000CF9325E338E03F932F930E94D00683E3BE
:104F000098E00E94370689E298E00E9437068C2FCD
:104F100081701F928F9326E238E03F932F930E9477
:104F2000D00684E298E00E9437068AE198E00E9469
:104F30003706C1FB882780F91F928F9327E138E05D
:104F40003F932F930E94D00685E198E00E94370698
:104F500089E098E00E943706C2FB882780F91F92FB
:104F60008F9326E038E03F932F930E94D00684E091
:104F700098E00E9437068BEF97E00E943706C3FB4C
:104F8000CC27C0F91F92CF9388EF97E09F938F9320
:104F90000E94D00686EF97E00E9437060E94B72253
:104FA000C82F82EE97E00E9437061F92CF932DED17
:104FB00037E03F932F930E94D0068BED97E00E943D
:104FC000370682EC97E00E9437068C2F81701F9283
:104FD0008F932FEB37E03F932F930E94D0068DB72E
:104FE0009EB780960FB6F8949EBF0FBE8DBF8DEB17
:104FF00097E00E94370686EA97E00E943706C1FBD9
:10500000882780F91F928F9323EA37E03F932F93ED
:105010000E94D00681EA97E00E9437068FE897E069
:105020000E943706C2FB882780F91F928F932CE8D5
:1050300037E03F932F930E94D0068AE897E00E94C2
:10504000370688E797E00E943706C3FB882780F978
:105050001F928F9325E737E03F932F930E94D0064E
:1050600083E797E00E94370689E697E00E943706BB
:10507000C4FB882780F91F928F9326E637E03F9381
:105080002F930E94D00684E697E00E94370682E5BF
:1050900097E00E943706C5FB882780F91F928F93FF
:1050A0002FE437E03F932F930E94D0068DE497E0E2
:1050B0000E94370681E397E00E943706C6FB8827E7
:1050C00080F91F928F932EE237E03F932F930E9437
:1050D000D0068CE297E00E94370684E297E00E94B7
:1050E0003706C7FBCC27C0F91F92CF9381E297E028
:1050F0009F938F930E94D0068FE197E00E9437061E
:105100000E94C022C82F88E097E00E9437061F92B5
:10511000CF9323E037E03F932F930E94D0068DB7C3
:105120009EB780960FB6F8949EBF0FBE8DBF81E0EC
:1051300097E00E94370687EF96E00E9437068C2F93
:1051400081701F928F9324EF36E03F932F930E943C
:10515000D00682EF96E00E94370689EE96E00E9424
:105160003706C6951F92CF9386EE96E09F938F9356
:105170000E94D00684EE96E00E9437068DB79EB757
:1051800008960FB6F8949EBF0FBE8DBF04C08FE384
:1051900096E00E943706C1E0B7C08091DC03C82FBB
:1051A000C17080FF09C082EA9AE00E9437068091B0
:1051B000DC03817F8E7F44C086E99AE00E94370637
:1051C0008091DC0381608093DC03E5CF8091DC0378
:1051D00081FBCC27C0F991E0C927C0FB81F98093FE
:1051E000DC03CC2319F089E89AE025C08BE79AE02C
:1051F000D0CF8091DC0382FBCC27C0F991E0C92796
:10520000C0FB82F98093DC03CC2319F08CE69AE092
:1052100012C08CE59AE0BDCF8091DC0383FBCC27E4
:10522000C0F991E0C927C0FB83F98093DC03CC234C
:1052300051F080E59AE00E9437068091DC0381609E
:105240008093DC0361C083E49AE0A3CF87EE98E00B
:105250000E9437060E9493101F928F938DEC98E066
:105260009F938F930E94D00680910B011F928F9382
:1052700086EB98E09F938F930E94D00680916603FF
:105280001F928F9383EA98E09F938F930E94D0069A
:1052900080910C011F928F9380E998E09F938F93E8
:1052A0000E94D0060E940D1F9F938F937F936F9350
:1052B00089E798E09F938F930E94D0068DB79EB7A1
:1052C00046960FB6F8949EBF0FBE8DBF64CF0E9466
:1052D0003117C0910C0181E0C827C0930C01CC2389
:1052E00029F08FE698E00E9437060EC084E698E029
:1052F00050CF80E001C089530E94BB264CCF82E68C
:1053000098E00E943706C0E08C2FCF91089580E08E
:10531000089580E00895CF93C82F8091EC038130E9
:1053200071F020F0823009F448C03FC1A0910D0116
:10533000B0910E018C91823209F039C107C0A09161
:105340000D01B0910E018C91823249F48C2F0E9494
:10535000872981112FC08C2F0E94D9262CC08C2F19
:105360000E948929811126C0C431E1F070F4CB304C
:1053700081F0C031D1F40E9483258BE096E00E9439
:10538000370682E08093EC0315C0C93259F0C83368
:1053900061F488E196E00E9437068FE096E00E9473
:1053A000370608C01092EC0304C189E096E00E9421
:1053B0003706FFC081E08170FEC0C43228F5CE31CF
:1053C00008F0C1C0CB30A1F1D0F4C73009F0D3C090
:1053D0008EE18093140182E3809313018AE080932D
:1053E000120184E18093110188E08093100188E22A
:1053F00080930F018FEA94E00E943706BFC0C3314B
:1054000049F1C431C1F0B7C0CB3409F4A9C028F4C4
:10541000C93289F0C83361F0AEC0C13509F49EC00D
:10542000C23509F499C0CE3409F0A5C06AE09EC027
:105430000E948325A3C08091EB03882319F010926A
:10544000EB039CC08CEB94E00E94370681E08093D4
:10545000EC03B1C086E994E00E94370684E894E04A
:105460000E943706809114011F928F9381E894E087
:105470009F938F930E94D0068FE794E00E94370697
:105480008DE694E00E943706809113011F928F935E
:105490008AE694E09F938F930E94D00688E694E07A
:1054A0000E94370689E594E00E9437068091120138
:1054B0001F928F9386E594E09F938F930E94D0066E
:1054C00084E594E00E94370683E494E00E94370666
:1054D000809111011F928F9380E494E09F938F93AA
:1054E0000E94D0068EE394E00E94370689E294E0A1
:1054F0000E943706809110011F928F9386E294E0FC
:105500009F938F930E94D00684E294E00E94370616
:105510008DE094E00E94370680910F011F928F93D7
:105520008AE094E09F938F930E94D00688E094E0F5
:105530000E9437068DB79EB748960FB6F8949EBF67
:105540000FBE8DBF1BC0CE51EC2FF0E0EC5EFC4FC8
:1055500080818093EB0312C061E003C061E006C06C
:105560006AE08091EB030E949A2508C08091EB03CA
:105570000E943D2603C08DEA94E013C08091EB03A6
:10558000882369F01F928F9387EA94E09F938F930B
:105590000E94D0060F900F900F900F9004C084EAE5
:1055A00094E00E94370681E006C01092EC0380E090
:1055B00002C080E000CFCF910895E1E8F0E0808163
:1055C000886080838081816080838FB7F89493E0C6
:1055D0009093890090ED909388008FBF0E94C13214
:1055E00081E080930504089580910504882381F06B
:1055F0008091880090918900892B51F080916F00F3
:10560000826080936F0082E0809305040C94DC320A
:105610000895809105048823D9F0809188009091A5
:105620008900892BA9F080916F008D7F80936F0096
:1056300081E08093050480E00E94CF3281E00E94E7
:10564000CF3282E00E94CF32809105040C94DC328C
:105650000895809104048760809304040895109253
:10566000040480910504882369F080E00E94CF3211
:1056700081E00E94CF3282E00E94CF328091050407
:105680000C94DC3208958093FE038093FF03809393
:1056900000040895E82FF0E0E250FC4F4081242FF1
:1056A00030E08FEF90E0861B9109821793071CF47E
:1056B0008FEF80830895640F60830895CF93C82F80
:1056C000682F80E00E944A2B6C2F81E00E944A2BB9
:1056D0006C2F82E0CF910C944A2BE82FF0E0E2503F
:1056E000FC4F8081861710F410820895861B8083FA
:1056F0000895CF93C82F682F80E00E946D2B6C2FE8
:1057000081E00E946D2B6C2F82E0CF910C946D2B69
:105710008091FD0387608093FD0308951092FD033F
:1057200008959091FC0321E030E0082E01C0220F83
:105730000A94EAF7662311F0292B02C02095292349
:105740002093FC030895CF93C82F682F80E00E9418
:10575000912B6C2F81E00E94912B6C2F82E0CF91D6
:105760000C94912B8093FB0308958093F80380930E
:10577000F9038093FA0308958091F703876080937B
:10578000F70308951092F7031092F603089580939B
:10579000F50308951F920F920FB60F921124EF9206
:1057A000FF920F931F932F933F934F935F936F93AA
:1057B0007F938F939F93AF93BF93CF93DF93EF9399
:1057C000FF938091F0038F5F8093F00301E014E07A
:1057D000C0E0D0E0FC2E2091040430E00C2E02C08A
:1057E000369527950A94E2F720FF1AC08091F003BE
:1057F00081110DC0F8018081882319F08C2F0E943F
:10580000C232FE01E250FC4F8081F801808390910A
:10581000F003F8018081981303C08F2D0E94CF32CE
:1058200021960F5F1F4FC330D105A1F68091EF0382
:105830008F5F803418F48093EF03B5C01092EF03AC
:10584000E090FD03EE20E9F18091EE038F5F8093FD
:10585000EE039091FB039817A0F51092EE0308EF6A
:1058600013E0C0E0D0E0F12CC7010C2E02C09695E9
:1058700087950A94E2F780FF1AC0F8018081882397
:1058800019F08150808313C08091FC0390E00C2EAE
:1058900002C0969587950A94E2F761E080FF04C004
:1058A0008C2F0E946D2B03C08C2F0E944A2B2196B7
:1058B0000F5F1F4FC330D105B9F681E094E00E941D
:1058C000B409F090F703FF2009F469C08091ED035B
:1058D0008F5F8093ED039091F503981708F05FC0F8
:1058E0001092ED031091F1030091F603A2EFB3E0E3
:1058F00080E090E041E050E02F2D30E0082E02C023
:10590000369527950A94E2F720FF39C06C91E62F6F
:10591000F0E0E153F54FE491EC01C250DC4FE88335
:10592000212F30E0082E02C0369527950A94E2F721
:1059300020FF19C0611115C0BA01082E01C0660F01
:105940000A94EAF760951623202F30E0082E02C053
:10595000369527950A94E2F720FF11C00623F62218
:105960000EC061500BC06F3741F49A01082E01C080
:10597000220F0A94EAF7122B02C06F5F6C93019614
:1059800011968330910509F0B7CFF092F703109389
:10599000F1030093F60381E094E00E94B9090E94AC
:1059A000B3090E94752FFF91EF91DF91CF91BF91C5
:1059B000AF919F918F917F916F915F914F913F91A7
:1059C0002F911F910F91FF90EF900F900FBE0F90AE
:1059D0001F90189525B1242B55B1342F30953523C0
:1059E00054B1542B54B94FB7F894FC01CB01880F34
:1059F000991F860F971F8E0F9F1FE817F90789F0D1
:105A0000519168E025B9000000C057FF35B9550F26
:105A1000000000C000C000C035B900C06A9591F711
:105A2000ECCF4FBF08952BB1242B5BB1342F3095B1
:105A300035235AB1542B5AB94FB7F894FC01CB0116
:105A4000880F991F860F971F8E0F9F1FE817F90762
:105A500089F0519168E02BB9000000C057FF3BB9B5
:105A6000550F000000C000C000C03BB900C06A95DF
:105A700091F7ECCF4FBF08952EB1242B5EB1342F98
:105A8000309535235DB1542B5DB94FB7F894FC01C7
:105A9000CB01880F991F860F971F8E0F9F1FE81746
:105AA000F90789F0519168E02EB9000000C057FF56
:105AB0003EB9550F000000C000C000C03EB900C094
:105AC0006A9591F7ECCF4FBF0895EF92FF920F9335
:105AD0001F93CF93DF9300D000D01F92CDB7DEB7D6
